:020000041000EA
:4000000000000108310100100D00000095010010000000000000000000000000000000000000000000000000000000009101001000000000000000009101001091010010DC
:4000400091010010410C00109101001091010010910100109101001091010010910100109101001091010010910100109101001091010010910100109101001091010010A5
:400080009101001091010010910100109101001091010010910100109101001091010010910100109101001091010010910100109101001091010010910100109101001020
:4000C00010B5064C2378002B07D1054B002B02D0044800E000BF0123237010BD8819000800000000C0570010084B10B5002B03D00749084800E000BF07480368002B00D1B4
:4001000010BD064B002BFBD09847F9E7000000008C190008C0570010C4020008000000007047EFF3108072B6704780F310887047FFF7F6FF72B6104C104DAC4209DA21685A
:400140006268A368043B02DBC858D050FAE70C34F3E70B490B4A0020521A02DD043A8850FCDC094809490860BFF34F8F00F0FAF800F01EF8FEE70000009D0110189D011075
:4001800088190008EC2800080000000808ED00E0FEE7FEE700B504207146084202D0EFF3098001E0EFF30880043002F085F8FEE7002110B5080000F059FA002000F0B8FAF6
:4001C00000F0DCF962B60A4B5B689B0301D502F015F8002000F0B4FE642002F025F8054800F030F905F0BEFB002001F0CDFFF9E70000264000000810F8B5E023504C9B000C
:40020000E2580F231340D022990092000919885807224C4D0240032A05D0042A05D0002A0FD0494811E028680FE0C022920089581F220A40112A01D0132A04D1802000022D
:4002400003E0424801E0FA20C001002B27D1B223B1210322DB00C900E658635867581B0F3F0F1340174205D0354F7958090F0A40012A01D1F20701D4032B3AD1B023344A05
:40028000DB00E658A158E758C904C90C02F05CFEB603F901B60BC90F7043013127E0012B27D1C823C0210322DB00C900E658635867583F0F174205D0214F7958090F0A4037
:4002C000012A01D1F20703D49B009B0F032B10D1C0227F23D200A758A1583B401F27A658090A3940584302F02FFE310C394002F02BFEE0239B00E3589B069B0FD840154B1D
:4003000068601C691969240A090E013102F01CFEE1B2A860013102F017FE0F4BE860286104000E49C01802F00FFEFA210C4B28758900E01802F008FEA861C003E861F8BDE8
:4003400000002640C000000800366E0100127A0084050000000021403F420F0040420F00E7030000B021E02010B530241F4BC9005A588000520052085A501A58A2431A50C3
:40038000802252045A501A491A4A80209950A021043289019950FF21174AC005995081315A5892009208024380205A505A580006024301205A505A5882435A5000F072FC4C
:4003C000FFF71AFF00F048FC00F050FC01F07CFBB0235B055A78002A02D05B78212B03D10022064BDA605A6010BDC0460000264001000200840500008C050000E000234022
:40040000024BD86F032318407047C0460400214010B5FFF786FE074A074BD16F0B4007490B43D367102306490A681A42FCD0FFF77CFE10BD04002140FCFF00000100FA058A
:400440008800214070B50F4C0600FFF76AFEE36F0500DB439B0701D1FFF7DAFFB0230A4A9B00D650E26F094B09491340094A1343E36710230A681A42FCD02800FFF755FE94
:4004800070BDC0460400214000002140FCFF0000880021400300FA05436870B50400012B02D1007B06F0BEFC2500A2682B1B01359A4203D9E87B06F0B5FCF6E770BD0000E8
:4004C00010B5034A0349002000F08CFB10BDC046396E00109904001007B50022030000911000110000F03AFB07BD10B500F074FB10BD10B500F096FB10BD10B50400007B0C
:4005000000F0EAF8606010BD10B50400007B216900F0ACF8606010BD10B5037B0169180000F0C4F810BD10B50400C06800F000F9606010BD10B5C06800F00EF910BD10B552
:400540000400C06800F01AF9606010BD10B5C06800F02EF910BD10B504000C23C05E00F055F8606010BD10B50C23C05E00F066F810BD10B5C06800F043F910BD10B5002214
:400580001849042000F01EFF01221749042000F019FF02221549042000F014FF03221449042000F00FFF04221249100000F00AFF05221149042000F005FF06220F490420E6
:4005C00000F000FF07220E49042000F0FBFE08220C49042000F0F6FE09220B49042000F0F1FE10BDFB040010090500101905001027050010350500103F0500104D05001012
:4006000057050010670500107305001070B507250412E4B205400D2C09D801F0B2FE064B1C5D2C41E407E41701F0AFFE01E001246442200070BDC046A419000870B5041293
:40064000E4B20D2C0FD80725054001F09AFE064901220B5D1E002E41164202D0AA4093430B5501F092FE70BDA4190008F8B50C00050001F086FE0C2301225D431300A3408B
:400680001A00094E71198F683A4008D13B43AD598B60631C4B60AB4202D94A6000E0FF2401F073FE2000F8BDE000000870B50C00050001F066FE01210C23A1406B43054A0E
:4006C000D3189A680A4201D08A439A6001F05DFE70BDC046E0000008F0B50C2485B0019001F04FFE019B114D5C432B195B68029003932E1971680198FFF7B8FF0700FF288D
:400700000DD173682A59934201D9002373602A1953680399994202D001335360E9E7029801F033FE380005B0F0BDC046E000000810B5040007280AD801F023FE054B0E3319
:400740001A5D002A01D101321A5501F01EFE0120404210BDA419000810B5040007280AD801F00FFE044B0E331A5D012A01D100221A5501F00AFE10BDA419000870B5050000
:400780001F280ED801F0FDFD084B30335C5D002C02D101225A5501E00124644201F0F5FD01E001246442200070BDC046E000000810B504001F280AD801F0E3FD044B3033F6
:4007C0001A5D012A01D100221A5501F0DEFD10BDE000000870B504000D0001F0D2FD074AA300D3189A69002A01D19D6101E00124644201F0CAFD200070BDC046A419000825
:4008000070B5B024C025144B144A15496405ED00E35CA25C615C665D3F251F242A400C4024039201224311002B407F2219430B003240520413430B4A1C0A110050310B7006
:400840001B0C8B7000234C7011005031595CC1540133062BF8D170BD040600000506000003060000E00000080378012B06D0082B0AD10122054B9A609A6105E0044B1B6810
:40088000181E02D0034800E000207047000038403C1A0008FF0042000022054B1A60054B0132DA67BFF34F8FBFF36F8F7047C0463C1A000804E100E00222044B01215A63F5
:4008C0005B6BC023024A5B00D1507047FC00384000E100E070B5FFF7DFFFFFF7EDFF1C4A5368002B33D101211A4C51601A4A1B49A3501B4B186802F027FB01382300FF28FF
:4009000007D8802109016458164A0002224010435850802201261449D200144C144D99509B5800212200280000F0AAFFAE60114801F0B2FB8021AE6149000020FFF74AFFBC
:4009400020000D494C3000F06DFBFFF7B5FF70BD3C1A0008000001404C0C000040420F00C8000008FF00FFFF00FF0080804A0010000038403801000899090010044B10B529
:400980005B68002B01D1FFF7A5FF024BD86810BD3C1A0008FC00384010B5FFF77DFFFFF78BFF00F06FF810BD0123F7B5104A0600D367BFF34F8FBFF36F8F02220D4D0E4C54
:4009C000EF68524223606368D21B0192002B01D1FFF780FF019BF318053300D9BE1CA6602E61FFF769FF0122044B1A60F7BDC04604E100E0FC0038403C1A000800E100E049
:400A00000748084903680A688A2252005343133AC318FF3A1A7101235B420B607047C046481A00085C0100080122044B10B5DA62FFF7A4FF9630FFF7B7FF10BD481C00084A
:400A40008A21012010B50B4C4900236B0A4A4B43D1180871206B01C288680849D31808601A1D0221064B032000F07EFC0023E36210BDC046481C0008481A00085C010008E3
:400A8000010A001010B5FFF7DBFF10BDF0B5304E85B00F000390346B01F073FC0123029001932C4D3B1E0CD11533FF336343EB181A79002A05D11F69013FFF3F7A427A4194
:400AC00001928A2380225B006343EB1819695200914201D1FF3A5A71019B002B08D0F36A002B05D01C4B1B68013301D1FFF7A8FFFFF79AFF029801F048FC019B002B05D10F
:400B00008A2040004443043528191CE08A235B006343EB181A79002AFCD0634263418A22DBB252005A43281D8018AA1811790129FCD08A24002264005C432D192A716A7175
:400B4000EA602A613363039B436005B0F0BDC046481C0008481A00085C010008F7B505000F00160000240093194B58600193089B9C421ED231002800FFF788FF0023866099
:400B80009E4204D0F95CC21811740133F8E7C368BF191A1B08991319A14202D8C3600026E5E7FF2BFAD80099C318095D01341975F0E7002EDED10123019A5B425360054B37
:400BC000AD005D196B6B002B00D09847F7BDC0465C010008481C000810B5022000F066FC10BD000070B504000E001500FFF772FE22003100022000F0E5FB0849022000F037
:400C0000F5FB074AA400536D1419013365635365012B01D1FFF7E0FF70BDC046010A0010481C000810B5022000F026FC10BD000010B50248B03000F0E3FB10BDA01C00088D
:400C400010B50248583000F0DBFB10BDA01C000810B5FFF7F5FF10BD10B5034A80216032042000F051FA10BDA01D000870B501F088FB0500094800F017FB094C200000F07E
:400C800045FB2000343000F041FB2000683000F03DFB280001F079FB70BDC046A01C0008D44A0010F0B5962191B0002001F01CFB01F0F2FA002801D101F0E0FA012001F039
:400CC00095F9E821854C864B626C89011A400A436264626C0193120AD2B23A2A04D1636C804A13400B4363643422002103A803F0ABFE03AA00217C4800F0D6FF342200212E
:400D000003A803F0A1FE03AA0121774800F0CCFF082204262368754D134323602369334207D1002D04D0012001F098FA013DF5E701E0002D00D1FEE7A026032201276C4C8C
:400D4000F600A35903AD93433B43A351D2196949280003F070FE280001F0B4FE664901980B68664A03400B608021136949041B021B0A0B4313611369019902200B4013611A
:400D8000E0230F219B00E2588A433A43E250E25821318A438021E250E25809060A43E250002100F099FB0021032000F095FB0021042000F091FB0321002000F08DFB0321B1
:400DC000380000F089FB4B4B0522191D280003F032FE2900380000F0B5FB002800D0FEE74749380000F000FC002800D0FEE7454B454AE1580A403A43E250E158434A0A4039
:400E00008021E250E25809060A43E250A259404B1340A351A2593F4B13408022920113438022A351A35912021343A3512B4B1A68394B1340294A136001F0AAFAC0235B006F
:400E4000E3583B4204D1354AA3585B005B08A3506421002001F048FAC0220021304B12019950802109015A580198019C02408020800102435A50802101202A4AC9005A50DA
:400E80005A58294A985029481A582240C424A40122431A50264A174C5A505B5823002A000C3343CB43C243CB43C243CB43C229000D4800F073FF23002A00303313CB13C24C
:400EC00013CB13C213CB13C229001A4800F066FF194A1A4B1A6011B0F0BDC04600002740FF00FFFFFFC5FFDF0000324020A1070000002640804B0010900021400000214023
:400F00001027000004050000FEFCFFFFFFFF00FFFFF0FFFFFF8FFFFFFFFCFFFF0C0500000000014000FF00804C0C00000408000001FF00800003324001001180000E1F41E0
:400F40000A480B4B10B543600A4B0B4C83600B4BC3602378002B02D001F08EFA05E001F07FFA012323700028F6D010BD64010008704B0010D44B0010901E000800006140C9
:400F8000030010B5FF24800882009B1ADB009C409940E243214007282DD8174B01F0CAFF04090E13181D2227186A02401143196221E0586A0240114359621CE0986A02408E
:400FC0001143996217E0D86A02401143D96212E0186B0240114319630DE0586B02401143596308E0986B02401143996303E0D86B02401143D96310BD00002140064B1030DB
:401000009A68064B9A4203D183009858995002E0034B8000C058704700ED00E00000000800000010F7B5051E01913DD00023C05E002802DBA978FFF7A3FF6A680023E85E45
:401040009201002812DB1A4B81088900C918FF2303271C00C0250740FF00BC401A40BA40AD004E59A64332434A5113E003250F2381B20B402940A940FC352F002A408F408A
:401080008A40083B9B080B4C9B001B19DE69BE433243DA61074B00259A68074B9A4204D10199FFF7ABFF00E0044D2800FEBDC04600E100E000ED00E00000000801005600A5
:4010C0000369002B03DA89B24160002000E001487047C04601008A000368002B01DB034803E089B2C26081600020704701008A000369002B03DAC36800200B6000E001487C
:401100007047C04601008A0070B5040010000F2C2BD8002A07D1002927D1154B6401E418144B1C6022E000291FD01F260E401CD1104D0F4B6401E4186960AA60CA083100A9
:401140002C6003F081FC31002000FFF7B9FF31002A1D2868FFF7C0FF011E04D12868FFF7AFFF011E02D0044900E00449080070BD00002340941E000801018A0003018A00B8
:40118000194BF7B51A680193D76804003B680E00834223D90025A94202D101F0F2F80500019B18680368002B01DB104C10E063095A01A41A012279689B00CB181968A2404D
:4011C0000C0014400CD10A431A600021FFF778FF002E07D1280001F0D8F803E0044C01E0044CF2E72000FEBD941E00080301880004018A0002018800194BF7B51A680193D0
:40120000D76804003B680E00834223D90025A94202D101F0B6F80500019B18680368002B01DB104C10E063095A01A41A0122A24079689B00CB18196811420DD00024914306
:4012400019600021FFF73CFF002E07D1280001F09CF803E0044C01E0044CF2E72000FEBD941E00080301880004018A00020188000A4B1B68DA68136883420DD94309990053
:401280005B01C31A0120984052688B581840431E9841034BC01800E002487047941E00080001880004018A00024B1A68002A00D118607047A01E0008F0B52C246043104C41
:4012C0001E0024681F0A2018FF2426403C400D4F06607601F61906610B4E1B0C44606401A4191E04836033434461A3600023059DC261016283619D4201D02B888381F0BD83
:40130000A01E00080000234000102340F0B5038985B002AD2B800368066A1933AB704368476A0095826AC16A040003930369C068FFF7C2FF00213B000A0000913000FFF705
:40134000BBFF216B2800FFF76DFE0023EA5E002A05DB1F231A401E3B9340024A136005B0F0BDC04600E100E0F7B52C25124C6843276801933C182669002E08D04D43791945
:401380008869002805D13568002D02DA03E00B4811E00B480FE06768012425004B689D4013882D041D431560F2608C61BC40019BA4B24B62B460FEBDA01E000804028A00E6
:4013C00007028A002C235843064B1B681818C369934204D9036A9200D150002000E002487047C046A01E00080A028A00034B1A682C235843101881627047C046A01E0008C3
:4014000073B5002642690400D56801962B0CB3421CD01B040069136013680369B34215DA01A9FFF765FEB0420CD10198E26903681E0C0378934205D2226A9B009B58002B46
:4014400000D0984731002069FFF73AFEADB2002D0ED063691D6000251B68636AAB4202D09847656203E0A36A002B00D09847A56163691B6873BD00000A4B1A682C23584338
:4014800010180C23C25E002A09DB1F231A401E3B9340054AD367BFF34F8FBFF36F8F00207047C046A01E000804E100E0084B1A682C23584310180C23C25E002A05DB1F232C
:4014C0001A401E3B9340034A136000207047C046A01E000800E100E0042819D804290FD94B1EFF3B132B13D81F231940094B8000C018C02304229B00C1504033C25005E0DE
:401500000723D0301940034B8000C150002000E0014870470000264001004A00084B8200D218D0239B00D05807231840042806D1C0239B00D0581F231840E1331843704738
:4015400000002640F0B5012819D1C022224BD2009A58002A0CDB8A78901E0E280FD84C78601E11280BD8C8780D7800282FD101E01A4830E07026152D01D9AE4201D21848E9
:4015800029E00E79022E14D0F82124024901F8270C4021007F2412047F033A4011432C4021438024C022C006240520400143D2009950C020C0248005360706403200E400E3
:4015C0001D590849002029400A431A5103E03826122DD4D9D1E7F0BD0000264003004A0001004A00FFFFFFCFF8B50D00012819D1C02180240D4BC9005A582406C8262243E5
:4016000007001C005A50F600A3593B4206D1002D0AD0012000F022FE013DF5E70020002D03D101E0024800E00248F8BD0000264001004A0002004A00484BF7B516009842EE
:4016400000D988E09A4200D985E0454B994200D981E00123434F3B700197FF2805D80F24030025002340072017E03F4B984202D80F2420400FE03D4B020A984204D8FF2464
:4016800000012040104306E0F02503022D012B4013431800364C00252B00FF2E0BD8FF2236011640E022D2020243F0200543F0203343000316E0F0272B4A3F03964204D86B
:4016C00032043A40024338000CE032023A401043264A964209D8F0223605120432400243FF2000040443234807E0F022360612051640320002432048F4E70668002EFCDAEA
:4017000001981E4E4078002803D01D48305800281CDA1C48844667461B4807601B48844667461B480760A320C00084463058A84303436046174D33507059019BA04302437D
:40174000725159600E4B0020F15000E012480022084B5A6000E01148FEBDC0460F060000FFFFFF00A41E0008FF040000FF0500000F0F0000E000234000000F0F0000264008
:401780001C0500001F1F0000080126403D3D0000040126401405000003004A0001004A00002200238446F0B585B0029203932D4B00912D491A700A68002AFCDA2B4A00269C
:4017C00011682B4A914205D12A4A2B491268521856425641A42200252849D2008C5829002402214A200A029003915560AE4231D0029803990843A8422CD06246AA4216D1B3
:40180000029C039D029E039F009A58686146634601F030FDEB0762081A4300900191009801996B088018594132003B000DE0029803995C6802000B000098290001F01AFD84
:401840002B00620880185941220001F0F3FC0290039103E000220023029203930298039905B0F0BDA41E0008E0002340080126401F1F000004012640C3C2FFFF0000264081
:40188000F0B5002870D0002A6ED080245368E4021B061F0C9368D5689B042340C0243B43177FA4023B432F043C402343E0241F001669E40433061C403B0023430C1DA40129
:4018C0008901235043181468FC33002D04D0012D01D1DC6001E00125DD60002E05D155694318FC331D6195695D614518966CFC35AC61731C17D0136BF0241F02F0231B01E9
:401900001F40936B24031B0423400F243B43976A3C402343146C2407240C23433401FF26344023436B62D36AC0241D0130231D40536BA4001B02234003242B43556A41184D
:401940002C402343D46BFC31A501FF242C4023431D000C24536C00209B001C402B0023438B62136ACB6300E00048F0BD0100B6001E4A0300904238D010D840282ED005D846
:40198000002831D010282DD119482EE0802827D08021100049008B4227D023E0154A904214D008D8A022120690421DD0124AA020934211D016E0114A904209D0104A904271
:4019C00008D0104A90420DD10F480EE0A42003E00E480AE00E4808E0C00306E00D4804E00D4802E00D4800E0002070470600520001005000010000F0090000A0040000F03F
:401A0000050000F0030000F00100520002005200030052000200500005005200FF005200F0230F4A1B06C318934201D8580A15E0EC230C4A1B06C318934203D8580A802345
:401A40005B0207E0EA231B06C018904204D88023400A9B02184301E0012040427047C046FFFF0F00FF7F000010B50400FFF7D8FF0022431C02D0E40562426241100010BDC7
:401A80000B4B10B51B69002B10DB0A4B0A4C1868FFF76EFF0121094B094A995099580029FCD1064909590029F8D100E0054810BD00002340B01E00088C040000000025407F
:401AC0000C0400000200500010B5022202490020FFF778FC10BDC0461903000870B505000C00FFF7C1FF002826D0002C24D0FEF783FB124B124AFA211A6000225A609D600B
:401B0000DC60104B104A1C691B69240E013454431B0ADBB201335C430C4B8900186801F013FA0100200001F00FFA094BC1188020400002F09DFF00E0064870BDB01E0008E3
:401B40000001000500002140C0EA2101C4000008482600000600520010B5FFF791FF10BD70B50400FFF780FF002829D0FEF744FBE0228021134B52051A601A6849000A43AB
:401B80001A605C600024FA219C60DC600E4B0F4A1D691B692D0E013555431B0ADBB201335D430B4B8900186801F0CEF90100280001F0CAF9074BC118200002F059FF00E0C4
:401BC000054870BDB01E00080000214060F59000C4000008980800000600520070B505000C00FFF741FF00282DD0002C2BD0FEF703FBC0228021154BD2041A601A684900E2
:401C00000A431A608322FA2152005A609D60DC600F4B104A1C691B69240E013454431B0ADBB201335C430C4B8900186801F08CF90100200001F088F9E1239B00C118002097
:401C400002F016FF00E0054870BDC046B01E000800002140808D5B00C4000008060052000F4B30B5C0180F4BC009C01800011F23032909D81D00C9008D4013408B4004689B
:401C8000AC432343036009E01D000439C9008D4013408B404468AC432343436030BDC0460000CEBF00100304F7B504000E00150000286ED0002A6CD0012312688B40002A08
:401CC00001D1436000E08360B30001930F231900B0008140A26A8A4369680B4083401343A3622A7A31002000FFF7BAFF0320710088400322636A83431800EB6813408B4055
:401D00000343636201231F00B7400097FF43BC462F6962461F40B740A0691031104038436F69A0611F40B740E06A10403843E062A86903221840B0400600E869276B10409B
:401D40008A408840009930430A4397436A6A384356000222206304201640AA6A616B92000240286A324303401A43EB6AD80018230340FF2013432A6B019D5201024013433F
:401D8000FE2292002A40934081430B436363002000E00148FEBDC04601005A0000281BD0002919D00D4B0E4AC318DB099B180A681B010260CA6882620A69C2624A690263FB
:401DC0008A6842624A6882618A694263CA6900201A600A6A5A6000E0024870470000CEBF0010030401005A0010B50F2402200649064BCA58A2430243CA50F02212028B581C
:401E0000A34303438B5010BD0000214004F0000010B50F2403200649064BCA58A2430243CA50F02212028B58A34303438B5010BD0000214004F000000449054A054B88585A
:401E40000340C020C00103438B5070470000214004F00000FF8FFFFF0449054A054B885803408020C00103438B5070470000214004F00000FF8FFFFF70B50400002000F063
:401E80009FFA00280BD1802324065B041C4023000E490F4A8D692A4013438B6115E0002C01D10C4A00E00C4A01210C48FFF714F9002809D1094A1369002BFCDB074B00204B
:401EC000DB681B0EA02B00D0054870BD00F02540FFFFFFFE0100003001010030000023400400420010B5002000F06AFAB0235B055A78002A03D05A780123222A01D843422A
:401F00004341180010BD000070B50400FFF7EAFF002838D000F035FA0500022C10D10120FFF7AAFF061E2AD1FFF75EFF0721174A53698B4304390B435361FFF77DFF0BE0EC
:401F40000721124AC82053698B4304390B43536100F084F9FFF780FF07230C4900264A699A43234013434B61052C08D1C82000F075F9FFF74DFF0020FFF77EFF060028005D
:401F800000F003FA00E0024E300070BD0000264003004200031E03D1084B5869C00F0CE00020012B09D1054918008A69920F1A4201D18869C00F0123184070470000264091
:401FC000072370B5084CA2691A4090420BD0A5699D4303402B43A361002904D0904202D9C82000F03BF970BD00002640F8B50500FFF778FF002844D000F0C3F9B023060060
:402000005B05002D15D1E8220120D2009C5CFFF733FFE4B2071E30D1FFF7E6FE1F201A491A4A8B588343143803438B50FFF704FF0FE01F20164A14499C5C144AE4B28B58AB
:402040008343143803438B50023800F007F9FFF703FF1F230C480D491C40425800279A4314434450012D08D1092000F0F7F8FFF7CFFE0020FFF700FF0700300000F085F9AE
:4020800000E0044F3800F8BD000026401CFF0000410700000300420070B5050000F071F92C1E20D0124B19681F2901D900241AE0EC68002C17D02C68002C14D05E68002421
:4020C0003200002A04D0AA42F0D014005269F8E7002E01D15D6000E0656100222C61012401316A61196000F050F9200070BDC046C01E0008F0B5060085B00D00204F0429AE
:4021000001D001291AD100207C68002C35D01D4B984232D02379B3420ED1A368002B01D02B4209D1E36801A85A689B6842608360057023689847BC606469E6E7BC68022960
:4021400002D1002C00D024690020002C15D00D4B984212D02379B3420DD1A368002B01D02B4208D1E36801A85A689B68426083600570236898472469E7E705B0F0BDC04622
:40218000C01E0008FF00420070B5194C06002368002B0AD100F0F5F823680500002B10D004210020FFF7A6FF0BE001210020FFF7A1FF0028EED002210020FFF79BFF0D4CAA
:4021C00014E004210C4A13698B431361012E01D030BF00E020BF280000F0D7F823680024A34203D008212000FFF784FF200070BDC01E0008FF00420000ED00E010B5E824E2
:4022000000F0BFF8064B07495A68A4010A4022435A605A68114059605B6800F0B6F810BD00002640FF00FC0F70B5802504002D02AC4206D9064B186800F09AF8054BE418B3
:40224000F6E7054B1868604300F092F870BDC046DC0000080080FFFFD800000810B5034B1B78584300F084F810BDC046D40000080122014B9A60704700002540802200207C
:40228000034B12069A649B6C834200DA0148704700002740030046008022054B120198585B68DBB2002B02D08023DB021843704700002640FEE7000002680A4B10B51A6047
:4022C00042685A6082689A60C268DA6002691A6142695A6182699A61C269DA61FFF7EAFF10BDC046D8050008F0B51922002800D14B32E82403258A429241194E6400335983
:402300005242AB43134333513359164F3B403351154B5C68AC4322435A605A6817405F60002808D00023102913D921338B429B415B4201330DE003001D290AD901233A2991
:4023400007D9DB18572904D976338B4240410422131A0F21054A1068884303431360F0BD00002140FFFCFFFFFC002140000025400230800803D001300238FCD1C046C046CE
:402380007047EFF3108072B6704780F310887047094B042803D11A68104318600BE0C022000692041040902204499200885004211A688A431A60704710E000E000002140BA
:4023C000034B8002C0180F23006818407047C04600402440F8B50778012F06D0082F34D11C4B1868FFF7D1FF31E00320FEF740FF194B984229D000F085FD012825D0022076
:4024000003F0B4FA0600FFF7BCFF124D286003F0B1FA040006281AD0022E0AD1033CB4433000E4B204F040FF002C0BD100280ED008E0380004F038FF022C03D0002801D115
:40244000FFF7A2FE2868FFF7A0FF044800E00020F8BDC046CC1E000801018800FF004200002803D0024B5860002000E001487047CC1E00080100160000B58BB00021282279
:40248000684602F0E1FA6A46154B16489381FB2313835383F83B1377013353770C33D3770132D3776A460232D3776A465B3353846B4601220733DA77FFF7EEFD03F034FA30
:4024C00003F03AFA03F034FA06A803F083FA002804D1054B6846019303F050FA0BB000BD9013000078010008F8050008014B024AD050704778F0010000003C4010B50BF0F5
:402500002DFC10BD10B50A00002808D0FA23FF33994204D8034902F08EFA002000E0024810BDC0460708001601001600F0B5954C0D00A5440993944B08900592994200D8D8
:4025400016E18B18914A93420ED9914A914200D80EE1904A934207D98F4A914200D807E18E4A934200D903E101228D4F7C69A40F144014D0072379690B40022B04D0DBB29C
:4025800002930392002423E00520FFF7BDFC854B04009842F8D001230393DB1817E0824BB021F858E8234905DB00C95C1F2303408B420AD10120FFF719FD7A4B0400984298
:4025C000F8D000230393053301E0052303920293F0231B06EB185E0A0693760200210320FEF7CEFD0028F9D1802305005B05F31801930AAB9B1B049300902B00234300D0AF
:4026000081E0009A05998A427CD280229200B2180792069AB24215D8059A00998A4211D9089A525C04998A55002B07D180235B05F3181B78D31A5A1E9341DBB2009A0132DE
:40264000009205E080225205B218127804998A55079A01369642DCD10025AB4245D0099BAB423CD1C8260198FFF77AFA05000120FFF7F4FDA423A422DB032B40D20393427A
:4026800003D1013E002EEED11EE0484B9D4271D1FFF762FA464B05009842F9D0002813D1C8260AA90198FFF799FA05000120FFF7D5FDA423A422DB032B40D203934203D1CC
:4026C000013E002EEDD10FE0384B01209D420CD1FFF742FA364B05009842F9D004E00AA90198FFF7FBF905000120802292009446019B304A634494460193049B079E6344A1
:4027000004937AE71D00002801D0FFF7B1FD00210320FEF771FD0028F9D1002C01D026482BE07B695B0009D5029B022B06D10220FFF7EAFB1B4B04009842F8D03B681B0251
:4027400009D4039B002B06D10020FFF74FFC154B04009842F8D0002CE1D1184B9D4207D0174B9D4204D02000002D06D0154804E0154802E0002D93D0B6E78B239B009D446F
:40278000F0BDC046D4FDFFFFFFFFFF0F00001010FFFFFF1300800014FF070016000A001600002640040042001CFF0000010050000200500000FEFFFF1200160002005200A9
:4027C00006005200130016000100160010B50A00002809D0FA23FF33994205D8F93BFF3B0249FFF7A3FE00E0014810BD070800160100160000207047B0235B05588880B2CC
:4028000070470020704710B5FFF728FD10BD000010B5FDF76AFE074B1B681B6800229A5E002A05DB1F231A401E3B9340024A136010BDC046D01E000800E100E010B5FDF7F6
:4028400058FE094B1B681B6800229A5E002A09DB1F231A401E3B9340044AD367BFF34F8FBFF36F8F10BDC046D01E000804E100E0A023034ADB00D058032318407047C04614
:4028800000002640024B034AD058C00F7047C0461C0500000000264010B5FEF781FF10BD70B5040003200D001600FEF7E1FC054B984205D0320029002000FEF7BDFE00E08B
:4028C000014870BD0101880003004A00F8B50B001100C21AD417070010196040884220D3124E134D48087459A405A40D9F4207D9101800F029FB201AC343DB17184008E0C8
:40290000C318D81B00F020FB0A4B0019984200D90948735982059B0A9B02920D1343735101E000242000201AF8BDC046000026403C050000FE030000FF030000802110B5D4
:40294000024B09021A68FFF7C1FF10BD9001000810B500F083F80220FFF7C8FD094C0A4923681868FEF75EFB23681B6800229A5E002A05DB1F231A401E3B9340034A136099
:4029800010BDC046D01E0008FD24001000E100E00420704710B5FFF7F4FC10BD10B5FFF7F4FC10BD10B50021FFF70AFB10BD0000F8B58023FA250C0001271B0218430D4E6D
:4029C0000004F061AD00326C0A4B01203A4205D1002D0CD0013DFFF741FCF4E7002D06D01A6C10431864DB6A0020238000E00248F8BDC04600003C400400160070B5FA24FC
:402A000001260D4B000418400C4D0143E961A4002B6C0A4A0120334205D1002C0AD0013CFFF71CFCF4E7002C04D0136C18431064002000E0024870BD0000FF7F00003C40EE
:402A40000400160010200349034A8B5803438B507047C04600003C4070F00100F0B5154B9DB001A90A00180070C870C270C870C270C870C20AAC1A0020002432E0CAE0C0E9
:402A8000E0CAE0C0E0CAE0C013AD2A004833C1CBC1C2C1CBC1C2C1CBC1C20748FFF77EF921000648FFF77AF929000548FFF776F91DB0F0BD144C0010000132408001324031
:402AC00000023240F0B585B00090002800D159E1C54F7B689B0301D5FFF790FBC34CC44DC44BEA58002A06D0013C002C03D00120FFF7B4FBF3E70122BF4C2959114205D0B4
:402B0000BE49BB484158114200D03DE1EB58B84E002B00D038E1FFF7A1FFB94AB94BF2508022009BD2021B781343B74AB350B74AB74BF250B74B5A6801231A4200D025E118
:402B4000B54A116F08220A4008D1B44BB44918681300884202D900F0F7F9431E2A68002B03D0B0485B03034300E0AF4B13432B607B699F499C4E01275B000DD539000320B6
:402B8000FFF71EFA73699B0F3B420AD08022B369D2051343B36104E00320A44A8B5803438B502B5940200193019AA14BA14E13432B51FFF753FB0123AA598D4F1A4208D1F6
:402BC000BB514020FFF74AFB03234020BB51FFF745FBFA27019A984B984E1A4016430192FF002E51964A974BD3581022134207D1002F00D1CCE00120013FFFF72FFBF1E7CC
:402C0000002F00D1C4E008218F4A0120AB580B43AB50FFF7BFF9002802D18C4E019B1E438B4B1E4001231E432E511E00894C734BEB58334207D1002C00D1A9E00120013CA4
:402C4000FFF70CFBF3E7002C00D1A1E00B27C02181484901FFF7D2FE041E05D102AB991D7D48FFF7A5FE0400013F002F00D136E1002C26D1C02202AB9E1D338852019342AF
:402C8000E5D131007548FFF793FE041E19D180233288DB001A4200D081E00B27019380216E48C900FFF7AAFE041E04D131006B48FFF77EFE0400013F002F00D10FE1002CE7
:402CC00068D0B0256D056B78002B44D06B78212B41D0634FEB5B002B3DD0002C00D000E102AB9E1D31005F48FFF762FE041E00D0F7E0C021E85B3488084060398C434008AF
:402D0000594920430140F020EA5BC000EB5BD201024011439B05554A9B0F1140DB02194350483180FFF76AFE041E00D0D9E031004F48FFF73DFE041E00D0D2E0C022EB5BFF
:402D400031889B069B0F9B019143194348483180FFF754FE0400002C00D0C2E0009B454859781D78444B49001943FFF747FE041E04D142494248FFF741FE04006801FFF7B7
:402D80006DFAAEE03F4CACE03F4CAAE03F4CA8E03F4CA6E03388019A934200D07FE731003C48FFF705FE041E00D08AE732883F2310009843009B38499F78DB78012F0ED1C0
:402DC0000222012B04D89FB2D21B92B2019201E017000194702210433080304A69E0002B5ED0019401275EE000002640F17E0E0000003C406CF00100A0F00100B4F0010067
:402E000006000001A4F00100A8F0010001000100ACF00100FC003C4000F03D40C800000800093D00041A0080040A0080C4F0010030000300B0F00100EFFFFEFF2000020001
:402E4000000032401040000068F0010028000200FFFFFBFFF07E0E00021E0000031E000016180000071E00007FF5FFFFFFE7FFFF061E0000081E00000110000037680000B5
:402E80000F1E000001001600030016000200160004001600091E0000C00000080048E80101201F0001907F2082436F38024332800D4ADA400A6031880C4839433180FFF785
:402EC0009DFD009B0400DB78DF1B03231F40019B9B001F43064BBFB23780EF50F1E6054CEFE6200005B0F0BD0024F400091E000064F0010004001600014B18687047C046C0
:402F0000C000000810B500242000FEF707FB032804D00134052CF7D1002000E0012010BDA023034ADB00D058012318407047C0460000264002B4714649084900095C490047
:402F40008E4402BC7047C046002243088B4274D303098B425FD3030A8B4244D3030B8B4228D3030C8B420DD3FF22090212BA030C8B4202D31212090265D0030B8B4219D321
:402F800000E0090AC30B8B4201D3CB03C01A5241830B8B4201D38B03C01A5241430B8B4201D34B03C01A5241030B8B4201D30B03C01A5241C30A8B4201D3CB02C01A5241CE
:402FC000830A8B4201D38B02C01A5241430A8B4201D34B02C01A5241030A8B4201D30B02C01A5241CDD2C3098B4201D3CB01C01A524183098B4201D38B01C01A5241430922
:403000008B4201D34B01C01A524103098B4201D30B01C01A5241C3088B4201D3CB00C01A524183088B4201D38B00C01A524143088B4201D34B00C01A5241411A00D2014630
:40304000524110467047FFE701B5002000F0F0F802BDC0460029F7D076E7704703460B437FD4002243088B4274D303098B425FD3030A8B4244D3030B8B4228D3030C8B423A
:403080000DD3FF22090212BA030C8B4202D31212090265D0030B8B4219D300E0090AC30B8B4201D3CB03C01A5241830B8B4201D38B03C01A5241430B8B4201D34B03C01A7E
:4030C0005241030B8B4201D30B03C01A5241C30A8B4201D3CB02C01A5241830A8B4201D38B02C01A5241430A8B4201D34B02C01A5241030A8B4201D30B02C01A5241CDD2D4
:40310000C3098B4201D3CB01C01A524183098B4201D38B01C01A524143098B4201D34B01C01A524103098B4201D30B01C01A5241C3088B4201D3CB00C01A524183088B42FB
:4031400001D38B00C01A524143088B4201D34B00C01A5241411A00D201465241104670475DE0CA0F00D04942031000D34042534000229C4603098B422DD3030A8B4212D3C3
:40318000FC22890112BA030A8B420CD3890192118B4208D3890192118B4204D389013AD0921100E08909C3098B4201D3CB01C01A524183098B4201D38B01C01A524143097B
:4031C0008B4201D34B01C01A524103098B4201D30B01C01A5241C3088B4201D3CB00C01A524183088B4201D38B00C01A5241D9D243088B4201D34B00C01A5241411A00D20B
:403200000146634652415B10104601D34042002B00D54942704763465B1000D3404201B5002000F005F802BD0029F8D016E770477047C046002B11D1002A0FD1002900D154
:40324000002802D00021C943081C07B4024802A14018029003BDC046D9FFFFFF03B4684601B5029800F050F8019B9E4602B00CBC7047C046F0B54F464646C0B41604360C9B
:403280009946330005042C0C070C150C63437E436F4365431C0CAD1964199C46A64203D980235B02984647446346250CEF191D044B464A4343432D0C240464199918C91934
:4032C00020000CBC90469946F0BDC04670B500220C4B04000D0001F05DFA002804D12000290001F0B5F970BD064B00222000290000F05AFE01F0ACF980231B069C46604491
:40330000F1E7C0460000E041F0B54D46564644465F46F0B4924683B004000D0099468B422FD82CD04946504601F05CFA29000600200001F057FA331A9846203B9B4600D5E3
:4033400074E053465A4693401F005346424693401E00AF4229D826D05B46A41BBD41002B00DA79E0002200230092019301235A4693400193012342469340009319E08242B3
:40338000D0D900220023009201930C9B002B01D01C605D600098019903B03CBC90469946A246AB46F0BDA342D6D900220023009201934346002BE8D0FB0772081A43464635
:4033C0007B080EE0AB4201D1A2420CD8A41A9D41012024196D410021013E24184D41002E06D0AB42EED9013E24196D41002EF8D15B460098019900196941002B22DB2B0041
:403400005A46D3402A004446E2401C005B461500002B2CDB26009E40330026004746BE403200801A994100900191AEE7424620239B1A5246DA40414613004A468A4017007D
:403440001F4382E7424620239B1A2A0046469A402300F3401343D5E74246202300219B1A0022009101920122DA40019282E74246202326009B1ADE402F00B4469740664679
:403480003B003343C9E7C046F0B556464D4644465F46F0B41D000E034C00CB0F87B0070092468146360B640D98466AD06D4B9C4235D08022430F12041343F6001E43C300EE
:4034C0009946694B00279C460023644402932B0368001B0BED0F51469B46400D009500D178E0604B98426CD05B46DA004B0F802109040B4313439B465346D9005A4B9C46D3
:40350000002360444246201A6A40924601901F430F2F00D9B0E05548BF00C0598746374300D088E0002399460233082700260293CDE74346B34649460093029B009A92466A
:40354000022B00D0BFE1002153460122002689461A40444B002136030C0D2405360B2643434C1B0526401E437600D207760816434846310007B03CBC90469946A246AB4615
:40358000F0BD330003434FD0002E00D1BCE1300001F00AF903000B3B1C2B00DDADE11D220100D31A08393A008F408E40DA40B9461643304B00279C460023604444420293EE
:4035C00085E753465A4613432CD1002300219B46023397E70B4320D05B46002B00D19EE1584601F0E1F803000B3B1C2B00DD8FE102005946083A91408B461D21CB1A51461D
:40360000D9400B0059460B4351469B469140194B9C4660444042002374E7002300219B4601336FE703236DE70023994601330427002602934BE703230C27029347E7012290
:40364000D51A382D00DCB0E153461A4000210023002689467EE700238026994600223603004B77E7FF07000001FCFFFF40570010FFFF0F80F30300005E4500D972E100D181
:403680006DE1019B4D46013B01930023340002935B461E020B0E1E430B020393330C994633041B0C494620000093FFF74DFC009B370043430600494620009846FFF7CAFC4F
:4036C0002C0C09040C43A04509D9E419731EA74200D95CE1A04500D859E1023EE4194346E41A49462000FFF72FFC0300009A80465343494620009B46FFF7ACFC2A040904F5
:40370000120C0A4393450DD94346D219013B974200D93AE1934500D837E102235B429C46D219E0445B46D21A4346360433439B460399180C0B0C1D00059309045B46090C72
:403740000C001B041B0C4443049159436B4368431B190D0CEB189C4203D980246402A44660441C0C09041B04090C20185D18824200D2DEE000D1D7E0161A029B9C465D1B2B
:40378000AC459B415B42F61AB74200D106E149463000FFF7D9FB009B04004343494630009846FFF757FC2E0C09040E43B04509D9F619631EB74200D9F3E0B04500D8F0E009
:4037C000023CF6194346F31A494618000293FFF7BBFB009B06004343494602989846FFF739FC2D0409042D0C0D43A84509D9ED19731EAF4200D9D6E0A84500D8D3E0023E40
:40380000ED192404210043463143049E059A3000ED1A0B040C0C1B0C58436643534354439A19030C9B189E4203D980225202944664441A0C00041B04000C14191B18A542C0
:4038400050D34DD001231943964A019B94466344002B00DCF3E64A0709D00F220A40042A05D00A1D8A42894149428B4411005A46D20108D55A468C4B1A4093468022D2006D
:403880009446019B6344894A934200DD5BE65A46C908500708435602514601225B058146360B5B0D0A4055E680231B031E4211D05A461A420ED15E461E433603360B2A0025
:4038C00089467B4B46E6032B00D1E1E0012BBBD11A40BBE61E433603360B4246744B39E6002BB1D07D194A1EAF4252D91100A542A8D1039A9A42A5D1A6E703003E00283BFC
:403900009E400023994654E600F04EFF203041E603005246283B9A400021934677E6504600F042FF20305EE6029B0026AB4200D323E7039E0299B44661448846B045B6410D
:403940005B467642F619B218013B0291974213D290424FD800D18EE0161A9B460DE7894500D28EE674084B46F60735005B081D434B46DB0702938BE69742EDD10399029CEB
:40398000A142E5D93E1A9B46F7E69846CAE61E00A5E6AC423ED874D0110053E70121494252E71C000EE71E002BE71F2D3CDC20230A0058465B1B9840EA4099400243481E14
:4039C00081415E461143EE404B0709D00F230B40042B05D00B00191D99429B415B42F61833023CD55346012200211A40002601238946AFE502235B429C46039CE344A44612
:403A0000029B63449846A045B6417642F6190293B218B1E603988A1E41008142B6417642F619AD19039161E71F225242D31A5A46DA401300202D29D040225846551BA840F7
:403A40000143481E814107200B4318400026002809D00F2200261A401900042ABBD10B0070077602360BDB0803439946012253461A4000236EE502998D42BBD89B4600268F
:403A80007BE603989842C5D3110032E70020D7E780265B4636031E433603360B009A8946034B57E5FF030000FFFFFFFEFE070000FF070000F0B55F4656464D464446F0B493
:403AC0000D0399464E002B0B87B00700924680469B46760DCC0F002E69D06D4B9E4235D05B468022DD001204430F13432B439B46C3009846674B00279C460023664401934A
:403B00004A4615035000D20F53462D0B400D914600D176E05E4A90426CD080225B0F120413435C4AED0094461D4353460022DB00604449463618701C6140029017430F2F27
:403B400000D9AFE05448BF00C759BF465B461F4300D088E000239B469846023308270193CEE74946022A6AD0032A00D109E2012A00D0BBE111400022002300259046CCB20F
:403B800000212D030A0D12052D0B1543434A1B0515401D436D00E4076D0825434046290007B03CBC90469946A246AB46F0BD034352D05B46002B00D18AE1584600F0F4FDD7
:403BC00003000B3B1C2B00DD7BE11D22D31A3A0001005D46DA4008398D4013008F402B439B46B8462E4B00279C46002360444642019385E752462A432CD10025002302225C
:403C000097E752462A4321D0002D00D154E1280000F0CAFD03000B3B1C2B00DD46E11D21CB1A51460200D9405346083A954093400D431B4A944660444042002279E70124B6
:403C400000220C40124B0025904699E70025002301226EE703226CE700239B4698460133042701934CE703230C27019348E700238025984600242D03054B81E75D464346C4
:403C8000019A6FE75D4643462100019A6AE7C046FF07000001FCFFFF80570010FFFF0F80F30300004246120C91461A0C9446424617044A461B041B0C5A43604690464A46CA
:403CC00042431000039262461C003F0C7A437C4342440192220C9246019A5244904506D98246802040028046C24450460390100C049048462404240C1204121905922A0CC8
:403D00002D042D0C68432C00824648467C4350438146200C8046574357444744BA4503D9802040028046C144380C3F04B84648442404240C01900498A04440440490584669
:403D4000000C814658460404200C8246070048465F434C464343604660436446834650464443380C8446E4186444A34203D980235B029C46E34448463F04230C3F0C2404BF
:403D8000E419574668436F4384464D46504655434243380C814662444A445B44944503D9802040028446654403983F04834604983F0C8446E344C34580414042824610046E
:403DC00084460198674484466744A344BC46A345A4419946D44464428742BF41D4458041E144A04699459B417F424042C8440743120CBA18A045A4415F423B00644223434A
:403E0000D71843467D19DB0D6D021D435B465A02059B1A43531E9A415B46DB0D1A4343465B021343EA0107D501225C0813402343EA07029E13436D08574AB218002A4BDD35
:403E4000580709D00F201840042805D0181D98429B415B42ED180300E80104D54F4A15408022D200B2184E48824200DDE7E60124DB08680718436D02530580462D0B5B0D01
:403E80000C407DE6802259461203114208D0154206D115432D0398462D0B4C46414B6FE65D4615432D032D0B3E4B69E603005546283B9D400023BCE6504600F075FC20306E
:403EC000A8E60300283B9F400023BB46984689E600F06AFC203073E60124A61A382E07DD00220C4000230025904649E6029EA3E71F2E20DC20222C001800921BF0409440EB
:403F000093400443581E83411C43F540630709D00F232340042B05D023001C1D9C4292415242AD182B021FD5012400220C4001230025904624E61F202C004042821AD440DD
:403F4000202E1CD04022961BB5402B43581E83410720234318400025002809D00F2200251A401C00042AD8D1230068076D022D0B0124DB08034398460C40002300E60025CA
:403F8000E3E780220124120315432D0398462D0B0C40044BF4E5C046FF030000FFFFFFFEFE070000FF070000F0B557464E464546E0B40E001100F20F9246C500420F18031D
:403FC00037037400400A4E0F7F0A3043CF4E17435A00640D520DDB0FC900B24200D1E5E001267340A61AB446534500D1AFE0002E00DC0DE1002A3AD103000B4300D0E4E0F4
:404000006B0709D00F232B40042B05D02B1DAB42AD416D427F191D003B0200D488E0BB4B01349C4200D110E13A00B94B51461A4001235007ED08520264050543120B640D87
:404040000B400021280012030D0D120B64052D0515436208AF4CDB072C401443640064081C4321001CBC90469946A246F0BDA74B9C42C5D080231B0418436346382B00DD86
:40408000FDE01F2B00DD30E1624620239B1A02009A40664690460A009940F24046464B1E99413243114363460200DA40691A8D429B410D00BA1A5B42D71A3B0235D57A021B
:4040C000530A98464346002B00D1C4E0404600F06BFB0300083B1F2B00DDC5E020222900D21A4746D1409F400A009D403A439C4200DDC0E01C1B631C1F2B00DDE4E02021F9
:4041000014002800C91AD8408C408D400443DA40681E854117002543002471E7424663461A4300D14CE2674645466B0700D069E7012351467807ED08FA080B400543734930
:404140008C4238D012036405120B640D79E7002E00DC9AE0002A47D06C4A944200D14FE78022120410436246382A00DC08E10143481E81410022C9B24919D219A942BF418A
:404180000D007F42BF183A0200D442E15F4A0134944200D14EE101205D4A69083A4028400843D507054357089A4629E706000E4300D017E714E72900114300D1F9E18021B1
:4041C00009030A431203120B3BE701235B429846C4446346002B72D1691A8D429B413F1A5B42FF1A0D0068E702000A4300D107E7012252429046C4446246002A00D0E6E0B0
:404200006918A942B6413F187642F7190D00BAE7002E00D080E0621C5205520D012A00DCF9E06A1A91464D45B6413A1A7642921B9046120200D499E04D1BA9428941C71B09
:4042400049427A1A90469A463CE752460123002513400022F5E6280000F0A6FA20300300083B1F2B00DC39E72A002838824000259C4200DC3EE7264FE41A1740C0E601437D
:40428000481E81410022C9B210E7002E00D0F1E0621C94465205520D012A00DCA0E01B4A944500D1C5E06918A94292413F185242D2194908D5070D4357086446A0E6134BAB
:4042C0009C4200D0D9E69BE611001F3CE1400C00202B00D180E04021CB1A9A4015436A1E95410027254300241FE763460200203BDA406346202B71D0402366469B1B98403A
:404300000143481E814111430022CFE6FF070000FFFF7FFFFFFF0F80002C48D0CA4CA24200D1A2E07442A1468024240427434C46382C00DDDBE01F2C00DD44E14E462024C0
:40434000A41B3E00A640A246B0464C462E00E640B4464646644626435446A5406C1EA54134002C434D46EF400D1B28E04A4643464D461A4300D0A5E6002300240025DEE6E5
:404380001F2A5ADC66462022921B060096409146B04662460E00D640424616434A4691404A1E9141020060463143C240E4E63C002C435AD0F443A146002C52D14D1BA94275
:4043C0008941C71B49427F1A14009A4675E69E4A944200D0C7E613E600227FE700208FE7002C00D0C8E03B002B4300D10FE103000B4300D104E66918A9429B413F185B42F6
:40440000DF193B0200D41AE1904B0D001F406446F6E59A4689E63A002A43002C5CD1002A75D102000A4300D1CAE007000D009A46E6E564460022002581E662460600203A04
:40444000D6406246B046202A00D1B7E040226646921B904001434246481E8141114300228AE6794CA24200D061E707000D0014009A46C5E5002C41D13C002C4378D0F44396
:40448000A146002C20D0704CA24271D04C46382C00DDB2E01F2C00DDBCE02026341BA2463C005646B4404E46A0462C00F440A446444666463443A4465446A54064466E1E96
:4044C000B54125434C46E7406D188D4289413F184942CF19140056E6002A2FD102000A4300D184E007000D009A46574C88E53D436F1EBD41ECB200270D1B60E7524CA242FA
:4045000036D0744280263604A1463743BEE702000A4300D174E56A1A90464545B6413A1A7642921B9446120200D4F7E54D1BA9428941C71B49427F1A9A4661E502000A4396
:404540003AD0ED087C072C438025FA082D032A4208D0C7082F4205D145072C003A009A46C9080C43670FD200E5001743364C47E507000D00140043E53A002A4343D0020026
:404580000A4319D0ED087C072C438025FA082D032A4207D0C6082E4204D147073C003200C9080C43D700620FE50017439A46264C26E50022002544E5234C21E5002049E7BC
:4045C00000230025BBE54C463E00203CE6404C46B446202C31D040244E46A61BB7403D436C1EA54164462C4300270D1BE7E6802200231203144C0025A1E53D436F1EBD41E3
:404600000027EDB260E707000D000F4CF8E407000D00F5E44E463C00203EF440A0464C46202C0ED040244E46A41BA7403D436F1EBD4144460027254346E70027CFE70D0058
:4046400073E50027F2E7C046FF070000FFFF7FFF0B0330B5134D1A0B4B005B0DC90F0024AB4211DD104CA34210DC8024640322430E4CE41A1F2C0CDD0D48C31ADA401300D0
:404680005C42002900D11C00200030BD094BCC18FAE7E040084CA44663449A4013000343EEE7C046FE0300001D0400003304000013040000FFFFFF7FEDFBFFFF70B5051EF3
:4046C00028D000F071F8154B154A1B1AD21A1F2A16DD2C00134A0025D21A94405A052403240B520D002124030B0D240B1B0523430D4C1205234013435B002800590870BD7C
:404700000B212C00081AC440954024035A05240B520DE7E700220024E4E7C0461E0400003304000013040000FFFF0F808446101C62468C46191C634600E0C0461FB500F038
:4047400001F9002801D40021C8421FBD10B500F055F84042013010BD10B500F0F3F8002801DB002010BD012010BDC04610B500F0E9F8002801DD002010BD012010BDC046B7
:4047800010B500F07BF8002801DC002010BD012010BDC04610B500F071F8002801DA002010BD012010BDC0461C2101231B04984201D3000C10391B0A984201D3000A083948
:4047C0001B09984201D30009043902A2105C40187047C0460403020201010101000000000000000010B5002903D1FFF7DDFF203002E0081CFFF7D8FF10BDC046F0B55F4699
:4048000056464D464446F0B41F035C00DB0F9A46194B0E034D00C90F8046360B6D0D8B4691463F0B640D9D4219D0134B9C421BD00123A54206D018003CBC90469946A246D8
:40484000AB46F0BDBE42F6D1C845F4D1D34510D0002DF0D1304303005A1E9341EBE7310001230143E7D1E0E73A430123002AE2D1DEE70023DFE7C046FF070000F0B55F46ED
:40488000444656464D46F0B41F033C0B2C4F0E034D00A3465C008446360B6D0DC90F9046640DDB0FBD422BD0254FBC422ED0002D0ED130430700814678427841002C17D148
:4048C0005F463A4314D14B460020002B0AD006E0002C02D15846024301D099421AD00123484218433CBC90469946A246AB46F0BD0028F2D058425841012240421043F1E774
:4049000037000743D0D002204042EBE75F461743CDD0F8E7A542E2DC05DB5E45DFD808D000205E45DED248424841012340421843D8E7C445D3D80020C445F4D3D2E7C04605
:40494000FF070000F0B55F464D4644465646F0B41C03240BA4462F4C0F034D005E00C90F80463F0B6D0D8B469146760DDB0FA54220D0284CA64222D0002D12D1384344426D
:404980004441002E20D0002C0DD05C42634101245B421C4320003CBC90469946A246AB46F0BD002E17D05B4519D05B465C4201231C43EFE7390002240143EBD1D9E7614699
:4049C00002241143E6D1D7E761460A43DBD100240028DFD0E9E761460A43E4D1E5E7B54203DD01225C421443D4E7B542CDDB6745DBD809D000246745CCD259464C4261412A
:404A0000012449420C43C5E7C845CED80024C845F3D3BFE7FF07000030B50024A24208D0035D651C0C5DA34201D0181B02E02C00F4E7002030BD002310B59A4203D0CC5CC8
:404A4000C4540133F9E710BD03008218934202D019700133FAE77047F8B5C046F8BC08BC9E467047F8B5C046F8BC08BC9E46704701B40248844601BC604700BF45030008DC
:404A8000FFFFFFFF000000000000000000000000000000000000000000000000000000000200000000000000000000000000000000000000000000000000000000000000F8
:404AC00000000000030000000100000000005A000300000003000000030000000100000000000000050360000400000001000000000000000100000006046000080000006E
:404B0000101E0008410C00100800000001000000020000000200000008080003090000000100000000000000030000000909000308000000301E0008510C00100A000000CB
:404B40000100000004000000040000000A0A000C0B0000000100000000000000050000000B0B000C10000000501E0008310C00100A002900030000000300180003000000B2
:404B80001920010219010200000000000C0000000000000000000000006800000000000000000000000000000000121200000000000000000000000000000000000000BA4B
:404BC0000000000000000000000000000000000000001D1D000000000D00000008000000000200000000000000000000000000000000000000000000000000000000000064
:404C00000B0000000000000064000000000000002002000000000000000000000000000066666666000000000000FFFF000000001C1C1C1C1C1C1C1C00000000000000006D
:404C40000000000066E6EE66000000000000FFFF000000001C1A1A1A1A1A000000000000000000000000000066E66666000000000000FFFF000000001A1A001C0000000092
:404C80007C01000031010000090901120C00FF0380ABCDABCD80409C1B04041BFFFFFFFF000000000410080007070400F216FBE0FBE01F60427EF56D720096BE2090000009
:404CC00010502604060037D7F401FA00960064004B0032001E00140003040506020D1100BDE0001021E0001073E6001071E1001023E200101FE6001037E60010F9E600107D
:404D00009DE2001005E30010E1E400100FE5001047E700100DE60010DBE60010DBE60010DBE60010B5E500105DE50010A1E50010691C0110751C0110412C0110292D0110B0
:404D4000352D01106DE10010BBE00010B7E6001021E200105BE200102FE6001051E6001045E7001001E300105DE30010FBE4001035E50010B3E7001017E6001045E70010B2
:404D800045E7001045E7001005E6001045E7001045E7001045E7001045E7001045E7001045E7001045E70010D3FC0010DBFC0010D7FC0010D1FC0010AFFC0010ABFC0010E4
:404DC000C9FC0010C7FC0010A3FC0010A7FC0010DFFC0010CBFC0010C5FC0010E3FC0010E3FC0010A1FC0010CFFC0010C11301107517011039150110E5120110F5050110BC
:404E0000A9020110790D0110BD08011015FE001079FE0010CD180110051101105508011029020110050D011045620010B51101106D190110F91C0110451E0110191F0110AD
:404E4000351B0110C9190110811C0110A91A0110D31A0110E31A0110E51A0110E91A0110DBE60010D51A0110DF1A0110DD1A011071300110292A0110DD2F01108D2F011049
:404E800029300110412D01104D2C0110E52C0110A92D0110EDC400104B2A0110412A0110472A0110452A0110492A0110432A0110DBE60010DBE60010DBE60010B5B30010C4
:404EC000394301101B4301101B4301101B430110514301104D8201101B4301103D8201105582011045820110D3470110CB470110354701102D4701102B430110134301100E
:404F0000094301102F4301102547011055470110234301104D470110AD4701101B4301105D470110454701103D4701101B4301105943011061430110694301101F430110EF
:404F40001F430110394301101B4301101B4301101B430110514301104D8201101B4301103D8201105582011045820110D3470110CB470110354701102D4701102B43011081
:404F800013430110094301102F4301102547011055470110234301104D470110AD4701101B4301105D470110454701103D4701101B4301105943011061430110694301107B
:404FC0001F4301101F430110756B0110696B0110816B01101F4301101F43011015680110516801102168011045680110396801102D6801105D680110696801105D6B011079
:40500000C16D0110C56D0110D16D0110A96D0110B56D01101F4301101F4301101F4301101F4301101F4301101F4301101F4301101F4301101F4301101F4301101F43011054
:405040001F4301101F4301101F4301101F4301101F4301101F4301101F4301101F4301101F4301101F4301101F4301101F4301101F4301101F43011075680110B35E0110D6
:40508000615D0110615D0110615D0110E55E0110755E0110615D0110595E0110255F01106F5E0110FF5E0110F55E0110E35C0110615D0110615D0110615D0110675C0110DE
:4050C000435E01108D5C0110C55E0110EB5D0110FB5D0110755D0110615D01103B5F0110B15D0110A35D0110615D01102F5E0110735F0110615D0110615D0110615D0110C4
:40510000056B0110F96A0110116B0110F95D0110935D0110616701109D6701106D670110916701108567011079670110A9670110B5670110ED6A0110FD6C0110096D011004
:40514000156D0110E56C0110F16C0110615D0110615D0110615D0110615D0110615D0110615D0110615D0110615D0110615D0110615D0110615D0110615D0110615D011049
:40518000615D0110615D0110615D0110615D0110615D0110615D0110615D0110615D0110615D0110615D0110615D0110615D0110C1670110E36101101161011011610110A7
:4051C00011610110276201108D61011011610110D5610110D56101107F6101103D6201102B6201108D600110896001106D610110216001101360011013600110256001103C
:405200000762011041610110556101101561011011610110716201102D6101101961011011610110716101108D620110896201101161011011610110316A0110256A0110AE
:405240003D6A0110B56201100F600110A9660110B1660110BD660110C9660110B1660110B1660110D5660110E1660110196A0110096C0110156C0110216C0110F16B011067
:40528000FD6B0110116101101161011011610110116101101161011011610110116101101161011011610110116101101161011011610110116101101161011011610110C8
:4052C00011610110116101101161011011610110116101101161011011610110116101101161011011610110ED66011008000000060F0020200107021900000007070E058B
:40530000020220001C1202000103000E030600040040270700000707010200020307030400000000000000000000000000000000000000000000000000080000B35E01103E
:40534000615D0110615D0110615D0110E55E0110755E0110615D0110595E0110255F01106F5E0110FF5E0110F55E0110E35C0110615D0110615D0110615D0110675C01101B
:40538000435E01108D5C0110C55E0110EB5D0110FB5D0110755D0110615D01103B5F0110B15D0110A35D0110615D01102F5E0110735F0110615D0110615D0110615D011001
:4053C000E3610110116101101161011011610110276201108D61011011610110D5610110D56101107F6101103D6201102B6201108D600110896001106D610110216001107D
:405400001360011013600110256001100762011041610110556101101561011011610110716201102D6101101961011011610110716101108D6201108962011011610110DD
:405440001161011008000000060F0020200107021900000007070E05020220001C1202000103000E032000800000C00000000004000000A822000000000000040000F7FF77
:40548000FF7F000000300000000000000000000000000000000000000000000000000000000000000000000041650110F966011061660110A16501100767011089660110A9
:4054C00071650110156701106D6601109F650110196701108566011089650110076701107D660110736501100767011075660110B76501102567011091660110BD650110E7
:405500003567011099660110615D0110116101101F430110615D0110116101101F430110615D0110116101101F430110615D0110116101101F430110615D01101161011048
:405540001F430110615D0110116101101F430110615D0110116101101F430110615D0110116101101F430110CB6501104D670110A1660110615D0110116101101F43011086
:40558000615D0110116101101F430110615D0110116101101F430110615D0110116101101F430110615D0110116101101F43011085680110616A0110096A0110836801107D
:4055C000556A0110016A0110AB680110AD6A0110116A011081680110496A0110F9690110615D0110116101101F430110615D0110116101101F430110615D0110116101107A
:405600001F430110615D0110116101101F430110615D0110116101101F430110AD6B0110696C011000000000BB6B01107D6C0110B12E0110C96B0110A76C0110E12E0110B4
:405640008D6B01102D6C0110352B01109B6B01104B6C0110512B0110303030314238303030313032303330343035303630373038303930413042304330443045304631305C
:405680003131313231333134313531363137313831393141314231433144314531463230323132323233323432353236323732383239324132423243324432453246333074
:4056C000333133323333333433353336333733383339334133423343334433454142000026002B00300036003C0043004B0055005F006A00770086009600A800BD00D400C6
:40570000EE000B012B014F017801A601DA01130254029D02EE024A03B1032404A5043605D9058F065C0742084409650AAA0B160DAF0E79107C12BD1445171C1A4B1DDE20A0
:4057400078360010463500104C3600103C3500104C360010563600104C3600103C3500104635001046350010563600103C350010323500103235001032350010A838001004
:40578000A43C0010643B0010643B0010623B00107C3C00107C3C00106E3C0010623B00107C3C00106E3C00107C3C0010623B0010843C0010843C0010843C0010843E0010BE
:4057C00000000000F8B5074600256846058078683C1D2D492E46002807D06268002A06D0800702D1207A800701D00D4649E0FDF7AFF8FDF723F8FDF7CBF800F02BF9002806
:405800003DD1788C0006C00F00F0A4F905460004000C34D11D49084600F0E4FE0004000C2DD12289A17A2068194C002806D02060A280E68021810021FFF706F9684601F0F0
:405840005BFC054613486B460078E2888000001DC1B21B88A088D418A04206D3C01A801A80B201F0DBF9044600E00B4C00F06EFD002C04D100F07EFB08490120087000F08B
:40588000F7F82846F8BD000001001600295A0010E01E00081C1F0008FFFF00009401000810B503480078012801D101F053F810BD9401000810B5FCF7DBFF032801D100F0A0
:4058C00037FE00F0FFF901F099FC00F0BDFE02490020087010BD00009401000800487047E01E000870B5044600208A0703D08A07920F891A091D084B89B2DA889E88551897
:40590000B54206D81D68AA182260DA885118D98070BD024870BD0000E01E00080300160000487047EC1E000810B501F073FB10BD10B501F079FB10BD10B501F07DFB10BDEE
:405940000649002808D006498180052101700021417002218170002108467047010016009503000010B5FFF79BFF10BD10B501F06BFB10BD10B501F079FB10BD38B50546FC
:40598000002069460880002D09D0284601F07AFC0446684601F0A4FB002C02D015E00C4838BD01F05BFB2846FFF70CFF04000CD1284601F0EFFB040007D1FCF759FF0328BF
:4059C00003D100F07BFD00F0C9FD204638BD00000100160038B50446002069460880002C08D06189090A05D1617A102902D8E179102901D90A4838BDA0816946204601F015
:405A00000DFC05466946A08909884018A081002D04D1102221460348FFF70DF8284638BD01001600EC1E00087047000010B5084900200978002909D005F0AEFE044605F073
:405A400071FD201A80B281004018C00810BD00009C01000810B5FDF701F8442202490348FEF7E9FF002010BD844C0010FC1E000810B5FCF7CDFE10BD10B519461046044CA5
:405A800001F002FA002800D00024204610BD0000FFFF000010B501F023FA10BD10B501F009FA10BD010010B5044806D0044A01201070002007F0C6FD002010BDFFFF0000EA
:405AC0009C01000870B50024034D20462C7007F0E7FD2C70204670BD9C01000801480078704700009C01000870B5591C89B24C080B4D64000021451906E028685054000A12
:405B00005618891C707089B2A142F6D3D80705D0D0182038D15CC47FD454C17770BD000000103C4030B50A4C002100195B1E07E054186478555C240225430560891C89B26D
:405B40009942F5DB994201D1515C016030BD000000103C40F8B50746FF2000F0F3F9164EFF2070701548164900684018406B0024410F301D0125022901D0457000E044709B
:405B800005700D48801C4470384612F0C3FB070010D112F001FC3070012000F0D3F912F005FC68460470447012F06AFF6846457012F066FF3846F8BD9D01000898010008A1
:405BC00040F03D40F0B50021094D5B1E08E0441924685718260A7E705454001D891C89B29942F4DB994202D1401900685054F0BD00103C4070B500210A4E5B1E09E05418FE
:405C000064782502545C2C4385192C60001D891C89B29942F3DB994202D1515C8019016070BD000000103C40F0B50599091FCFB200217E1E0AE054186478555C240225434A
:405C4000144C04192560001D891C89B2B142F2DBFC0710D01C78515C24020E4A0C4381180C609C785D782102001D294384182160001DD9780BE059781A7809021143054A53
:405C800084182160D978001D9B780902194380180160F0BD00103C4038B509480024447012F084FB69460C704C70684612F0E8FE012069464870684612F0E2FE002038BD6C
:405CC0009F01000810B501F0C9F90A480078012805D1FDF717F9012809D012F0B5FF05490020891E0870062000F02CF910BD12F095FFF4E79F01000810B50B46062816D027
:405D000006DC01280FD0032801D1FFF7C5FF10BD0B2811D0112813D01228F8D11146184612F09EFA10BD0020FFF714FF10BD1146184612F023FE10BD04480078107010BDFA
:405D40001146184612F09CFA10BD0000A1010008F8B5184D184E28688019846AE00719D001F0B8F90127012811D1002001F084FA052000F0E7F81149FF204870881C40781B
:405D8000002804D128688019416B39434163286880198762E0050CD50848801C0078052802D1042000F0CEF8FF202968013089198862F8BD9801000840F03D409D010008C5
:405DC0000549002805D005494A78427009780170002108467047000001001600A101000838B504000C4816D06178012913D801F035F9607812F0FAFD207000280AD1694672
:405E00000870684600F090F869460878012801D104202070002038BD0100160010B5094900280CD00278082A09D24278042A06D205494A700078087012F0B8FA002108463D
:405E400010BD000001001600A101000810B504460448032C05D801F001F9204612F0D2FD002010BDFFFF160010B50400054808D06178012905D801F0F1F8204612F000FEFC
:405E8000002010BD0100160010B5FDF73BF80122084992040028084B086804D0C018016A1143016210BDC018016A9143016212F0D5F910BD9801000880F03D4009490878EB
:405EC00005280ED14A780848084900684018002A03D1416B490849004163C16A01221143C16270479F0100089801000840F03D4001480078704700009F01000802484078F7
:405F0000022800D0012070479D010008012807D0032807D0042803D0052803D0FF207047012070470220704710B5040002D012F0EBF9207010BD00000149487070470000CA
:405F40009F01000810B50446FCF778FC062C01D9FF2C01D102480470FCF75AFC10BD00009F01000801494870704700009D010008002070471CB5002469460C700220019075
:405F80002346054A054800F01DFA04480068401C00D1034C20461CBDE95F0010A4010008FFFF00003EB50F4A01460D4800230124126800290BD0012908D1684600930481EC
:405FC00043816946104600F0F8F980B23EBD68460093048143816946104600F0E9F9F4E7FFFF0000A401000810B50089002100280BD0012802D0052807D103E000200DF071
:40600000D9FD02E0084600F01DF9002010BD000010B50248006800F07FFC10BDA4010008FFB581B01F00154606463CD001F016F8FCF704FC2F49304B4878401CC0B2044697
:4060400006E02201D218127A202A2AD0641CE4B2202CF6D3002406E02201D218127A202A1FD0641CE4B28442F6D32024202C1AD03470029821490202120A200602432001E3
:40608000C61872601F501B4869180078009120280CD0FFF7CBFC0746BD4223D3281AF0601BE04C70E2E7164805B0F0BD13484042854207D9FFF7F6FC014611488142F3D04D
:4060C000009807E0A8B2FFF7EDFC01460C488142EAD00020F060074804703472FCF798FB0020E1E7FFF7EEFC781B012100F046F9DCE70000A8010008401F0008C063FFFFC9
:40610000FFFF000070B5074CA5780D2D07D2FFF787FF002802D1A178491CA17070BD024870BD0000A8010008FFFF000070B5074CE578002D01D0064870BDFFF771FF002884
:40614000FAD1E178491CE17070BD0000A8010008FFFF0000F8B520280BD2234D07017C19207A202805D000F079FFE068002802D031E00120F8BDFCF761FBFFF757FC012188
:4061800000F0FCF80020184EE060FFF79BFCFCF73FFB00F0C1F80546202819D0FCF74EFB280186191148F168814205D90646FFF779FC0021304604E088B2FFF773FC00210D
:4061C000F06800F0DBF8FCF723FB0948057002E00749202008702020034920720020C8516060E060F8BD0000401F0008409C0000A801000810B5074CA178002908D0FFF79B
:40620000A9FF002802D1A078401EA070002010BD014810BDA8010008FFFF000010B5074CE178002908D0FFF795FF002802D1E078401EE070002010BD014810BDA8010008D2
:40624000FFFF0000F0B500258BB02E46089500F005FF00236A4618462C49040161180C7A202C02D0C96800291DD000211154401CC0B22028F0D300240993099800280FD040
:406280006846005D00283BD020482101081806684168089100210160202241600272C160002D04D028E0012111540B46DFE700F033F80546202819D0144829010818C76839
:4062C0001348874207D90021074600F057F8FCF7B5FA384606E00021384600F04FF8FCF7ADFAB8B2FFF7DEFBFCF792FA094805700998002808D00125002E01D00898B0479C
:40630000641CE4B2202CB8D30BB0F0BD401F0008409C0000A801000830B50023DB432020094C00210A011219157A202D06D0D268002A03D09A4201D808461346491CC9B2DD
:406340002029EFD330BD0000401F000830B50020084C05462023020111190B72A550401C4D60C0B2CD602028F5D303480370457030BD0000401F0008A801000830B50B4DCB
:4063800000231A015219147A202C0AD0D468002901D0241804E0844201D9241A00E00024D4605B1CDBB2202BEBD330BD401F000810B50EC900F0C8FA10BD10B50EC900F00C
:4063C000FFFA10BD38B50024E443054600290AD0052000904B68097804A000F059FA2860401C00D00024204638BD00007461736B000000000EB5002005216A4600901181C0
:406400005081034869460068FFF7D7FF0EBD0000A401000810B51C481C4C0178491E0170FF206070FCF72EFA002823D0FCF764FD01460020FCF730FAFCF780FA401C022813
:4064400011D86288124882420AD0124B0021601CFFF76CFE002803D00D2010F0E7FE10BD0220207010BDFF20F530FCF7CCF900F075F810BD0548084B02220021401CFFF741
:4064800055FE0028E8D110BDAB010008AC010008FFFF0000D56400101564001010B503480078042801D100F059F810BDAC0100080148007870470000AC01000804480021BF
:4064C0000170FF214170FF21F531418070470000AC01000806490878401E087005480178012901D003210170FF21417070470000AB010008AC01000810B505490878401E0A
:4065000008700449FF20487000F028F810BD0000AB010008AC0100080149488070470000AC0100080149087070470000AC01000810B5054C6078FF2803D000F007F8FF20D7
:4065400060700020207010BDAC01000810B502484078FFF763FE10BDAC01000810B5114C6078FF2801D0FFF7F1FFFF22043280210820FCF795F9002809D00B4B022208E09D
:406580000120207010BD0D2010F050FE10BD074B052204480021401CFFF7C8FD0028F2D1EEE70000AC010008F964001015640010C0080A21484380B20849C82801D2084899
:4065C00009E002461923C83A5B019A4201D2400801E0FF20F530488070470000AC010008FFFF000010B50F4A002313600E4A13600E4B18600E4801600E49012008600E4944
:406600000860282090600E490C4808600D49143008603C38506000F0C5F800F0F5F9002010BD0000C8010008B0010008DC010008E0010008CC010008BC0100086821000886
:40664000C0010008D401000800207047014610B50020002910D0094B1A689C685118A14209D25868196080188A0704D08A07920F891A091D196010BD002010BDB00100084A
:40668000F8B50024164E671E321F3D463168136806E01422624310328A58521C1BD0641C9C42F6D36A1C14D02C461422544322460C3288500C214843FFF7C8FF3168002876
:4066C00008510AD031680020103408517068401C70602846F8BD2546E4E73846F8BD0000C0010008F3B50026F64381B000281FDB2149096888421BD80299002918D01E4FAD
:40670000142204463F1D54432546396810354859401C0DD0F9F7EDFEFCF790F838682F1F4159C359994205DBF9F7DFFEFCF770F83046FEBD214608310091465801590C2058
:40674000704308180C220299FEF775F90A48761C001D0068C159B14200D100260649009A091D865008684159491C4151F9F7BDFEFCF74EF80020FEBDBC010008002803DB3D
:4067800007490968884202D90020C043704704491422091D096850431030085870470000BC010008F0B500200D4A451E0346171F50600FE014260146714314680E1DA35163
:4067C0000C461668083433511668083435511468401C635039688842ECD30020F0BD0000C0010008F3B50026F64381B0002845DB26490968884241D8029900293ED0234FF7
:40680000142204463F1D54432546396810354859401C33D0F9F76DFEFCF710F83868415900292DD0211D009146580C21005971430F46C1190C220298FEF7FDF813480021DA
:40684000001D0068761C00590C34C0190160416081600E48001D00680159B14200D100260A49009A091D865008684159491E4151F9F73BFEFBF7CCFF0020FEBD3046FEBDAF
:40688000F9F733FEFBF7C4FFF8E70000BC010008FEB504460D4600201E49089E0860471E009001900290002C11D0486885420ED2002A0CD0002E0AD0642E08D808460C30F3
:4068C00001681C2068430C18207A002801D03846FEBD0120226020721846FFF7D1FE6060401C13D06681A6810A4827610C3067610179A94200D205710021684601810A46C7
:406900002846029B00F05CF82846FEBD00202072DDE70000C801000810B5002810DB0949496888420CD807491C220C310968504308184068FFF722FF002801D0002010BD7B
:40694000012010BDC801000838B50124009400F03DF838BDFEB50027184EFF433D4600240EE01C20316860430818017A002906D04068FFF703FF002801D0254603E0641C08
:406980003079A042EDDA681C16D01C2130684D434419F9F7AEFDFBF751FF69466068FFF721FF0546F9F7A1FDFBF732FF002DD5D1216868468847D1E7FEBD0000D4010008CA
:4069C00038B50024009400F001F838BD1FB500220C49541E0A60002811DB496888420ED808491C220C31096850430818406801A9FFF778FE401C02D0002004B010BD204695
:406A0000FBE70000C8010008F0B50021114A4D1E174611710C3F0B46BD6016E008461C2460431668041D355114680646235014680836A3551468361DA353044616680A347B
:406A4000335318301468491C255078688142E5D30020F0BDD401000838B500210091002811DB0F49097888420DDA0D4D04010C3529680859002807D0201D0818694600F023
:406A800073F9002801D0002038BDFBF7D7FE28680F34015D491E0155FBF7BAFE009838BDE4010008F7B582B0002502986E1E06602F48D21C024017462E4A2C4610460C386C
:406AC0000178106805E02301C358002B0FD0641CE4B28C42F7D3711C29D03401211D40180191039900F02EF9002820D101E02646F1E72048016820460C300F521D48039920
:406B0000026820460E3011541A480399026820460F30115403993846484300F0A1F8154900280968085102D00024009011E001251AE01048016801980818009900F02FF930
:406B4000002801D0012502E00098C0190090641CE4B203988442ECD3002D05D10298054906600879401C0871284605B0F0BD0000FCFF0000F0010008F8B50D4600216A46A1
:406B80008C461180002839DB23490978884235DA214B04010C3319680A59002A2ED020460C300B5A801C0E5C184670438018954224D3854222D2002006E007465F43BF18A9
:406BC000AF4206D0401CC0B2B042F6D36046002814D0114E271DC8190C366A46294600F008F900280AD168460088012808D030682946C01900F0D3F8002803D00120F8BD17
:406C00000020F8BDFBF71AFE30680F34015D491C0155FBF7FDFDF3E7E4010008F8B50F46002400F031F8002817D10C4900220B460C334A600EE021011D680E466A501D68A6
:406C40000C36AA53B61C1D680F31AA551D68641C6A54E4B2BC42EED31A71F8BDE401000800280BD0C01C074A81085068890053884118994203D89368516018187047002063
:406C800070470000E4010008F8B5064600200F4D009029700C0121466846FEF723FE00280CD129460C3100980860301B001F84B221466846FEF716FE002801D00448F8BDF1
:406CC0006C800098A8600020F8BD0000E4010008FFFF0000F8B5002827DB19490978884223DA174C05010C342168485900281CD028460C30085A009028460E300E5C401CD2
:406D00000E5420682F1DC01900F064F800280CD12068002445590EE0094829460C300068C01900F03CF8002801D00120F8BD00982D18641CE4B2B442EED30020F8BD00000C
:406D4000E401000830B50D4604000BD0A800FFF787FF6060002805D000202570C0436080002030BD012030BD70B50D46040005D0002D03D00220205E002801DA012070BD39
:406D8000FBF75CFD0221615E60688900405828606088401E6080FBF73BFD002070BD70B50D46040007D0002D05D002212078615E401E814201DB012070BDFBF73FFD608868
:406DC000401C00B26080616880000D50FBF720FD002070BD10B5040009D0227800216068FDF732FE0020C0436080002010BD012010BDF0B500231D46002802D00224045FCE
:406E00000AE00120F0BD46689F00F6598E4201D1012503E05B1CDBB29C42F4DA15700020F0BD000001B503480122436811466846984708BD9821000810B50021052010F00D
:406E4000A3FA10BD70B50546FBF7F8FC0D4C218A002914D0638A8B4209D100206082208201202070A3682A46E068984707E0E0680121C018F9F730FB608A401C6082FBF758
:406E8000C7FC70BD9821000810B50023084A00280BD0002909D001241470141D0BC413825382F9F70DFB012010BD1370F5E700009821000807B509480378012B01D0002024
:406EC0000EBD02230370C16002820021418201216846F9F701FB01200EBD00009821000804480021C160018241820121017008467047000098210008FEB5114C114F089EFA
:406F0000099D00280BD0002909D0002A07D0002E05D0002D03D0002B01D01B2B01D93C460CE00096019508F079FC042802D0052803D003E0034C133400E000242046FEBDE3
:406F4000FFFF160001001600FEB50E4C0E4F089E099D00280BD0002909D0002A07D0002D05D0002E03D0002B01D01B2B01D93C4606E00096019508F09AFC042800D10024C8
:406F80002046FEBDFFFF160001001600F0B589B015460F460646144C00F060F8002E20D0002F1ED0002D1CD0102239466846FDF742FD1022314604A8FDF73DFD10216846BB
:406FC00010F020FC102104A810F01CFC2B46102204A9684608F03AFC1021284610F012FC0024204609B0F0BD0100160010B50FF095FD0AF0E1FC0EF0CFFC10BD10B50FF019
:407000008FFE0BF015FD10BD10B508F041FE0FF0DDFB10BD10B50DF0C3F80FF08FFD0AF065FD0EF0C3FC10BD10B50DF0B9F80FF089FE0BF00BFD10BD10B50DF0B1F808F02F
:4070400053FE0FF0D3FB10BD10B5022801D100F089FAFEF74DFFFEF759FF10BD10B500F07DFBFEF745FFFEF751FF10BD10B5FEF73FFF012801D1FEF741FF10BD10B50188DB
:407080008A0703D08A07920F891A091D0379827B1031534359438BB241888C0703D08C07A40F091B091D447910316143C918438989B2DC0703D092015118103189B29A0730
:4070C00005D5C0794422504340180C3081B2084610BD00000148807870470000EC2100080100034803D00348008808800020704701001600F801000810B504000C4815D02A
:40710000FEF70EFC817B44238A01C179594351181C312180827B9B005A43891880312180407AC000083008182080002010BD00000100160000B501464A78097812021143F0
:40714000124A11488BB091421BD111490978002917D1FEF7E5FB0146102206A8FDF76BFCFEF7BCFB01680191808869468881FFF775FF6846FEF726FB002802D1684600F0EF
:4071800009F80BB000BD000002001600030C00009401000870B5184D00280BD0FEF7C0FB0446807A800701D4FFF72EFFA07AC00703D004E01048801E70BDFFF717FFA07AB1
:4071C000000701D4FFF71AFF204610F035FC002810D110F0B7FB00280CD100F0D1FD002808D110F0A3F8002804D10DF097FB002800D10025284670BD0300160010B5064C7E
:4072000010F0AEFC002804D110F0DCFC002800D10024204610BD0000FFFF160070B5044640890D46002681070BD0C00709D020881B38E12804D26088FB2801D81B2800D2E4
:407240000B4E2046FFF71AFF2880617A5322C900083140182880A17BD20051430922D20189184018034928800880304670BD000001001600F801000801498870704700009D
:40728000EC2100080021002807D04268002A04D0034A80891288904200D2024908467047F80100080100160070B50546FEF720FE074CFF280AD0FEF7ABFE012806D1002060
:4072C000012D04D103494978002900D1204670BD02001600AC21000870B5054613480E460078A84201D8002404E01148016AD02068430C18002C13D0228B50060AD5D20755
:40730000D20FA078022106F081FA208B40218843208305E0D207D20FA078012106F076FA3146284604F06EFC70BD00001C1F0008AC210008F8B50546002004460B4E009034
:407340000FE022466946284601F00CFD0098002801D010F047FBA878214603F0BEFF641CE4B2B08AA042ECD8F8BD000040220008FFB50446C034A068002103468C468E4676
:407380002033997887B0002915D05E78F200511D06920591415C0091911D0291415CD51D0495475D151D0395455D82580192109A002A07D03CE00A99FF20087008990020EA
:4073C00008605EE0002908D0DA78002A05D1002D03D0491E029AC9B281540098854227D3002925D1019810F0FDFAA268059900235354A26802995354A26804995354A26823
:4074000003995354A26806995350A06820304178491C8907890F4170A16820318878401E0006000E887027D02148864601208446A0686346014620318A78002B0AD04E787D
:40744000F1004B1DC35C0093CB1DC75C0B1DC55C40580190002A28D0009885421FD20199401B4A190899C0B20A60B8420CD2099A2918C9B210700BE00A99FF2008700899C0
:407480000B600B480BB0F0BDE819C1B2099807700A980670F000A268001D115405E00A98FF2101700899002008607046EAE70000FFFF0000064A02235188891C89B25180C1
:4074C000814201D8102900D95380508870470000FC0100080148407870470000FC010008F8B517460D460446FBF7A8F9C034A16820318878042827D0E8780202A878104338
:407500000A78521C9207920F0A70A16820318A78521C8A70A1682022525CD6008D51A168721D8854A2680021331DD154F21DA168B8428F540CD33946FBF78CFDC0B20029B9
:4075400007D0401CC0B204E0FBF762F90448F8BD0120A168B61D8855FBF75AF90020F8BDFFFF0000FEB575480478FEF7C1FC012831D1FBF77DF9724D032831D1A87B0128D9
:4075800029D800F037FF012803D100F007FF012808D0A87B002818D06849002020390A782B6A10E0A87B0028E2D10EE0824201D8002102E0D021414359188031C9780129BE
:4075C00009D0401CC0B28242F0D8FEF771FF032802D3FEF7C3FFAFE0FEF76AFF0128FAD95848007800285FD004F070F900285BD00CF002FA002857D0FEF70AFD002853D0A6
:4076000004F0AAF800284FD111F0CCF801284BD06878C00703D000F0F5FE012844D0287E002841D16878484F002803D1FEF756FA002860D06878000706D504F08DF8064652
:4076400000F0E4F8304377D16A7801A9684608F077F90646B4426FD83C48864206D3FEF73DFA002868D06878002865D104F02EF9002861D03648006A80B202906878400722
:4076800003D56846008805F04FFA03F025FE6846008803F05FFE03F045FF2E490988814203D10120FEF74EFC46E0FBF773F9054603F038FF69468988401A301AA0420ADB88
:4076C0000CF09AF9012806D1FEF7A2FC012802D1387003F0B9FE2846FBF760F93878012803D01B4902980862DBE70120FEF724FC00F0E8FD1BE004F0E9F800281CD0102468
:4077000003F010FF214603F035FD03F023FEFEF77FFC002810D00120387003F095FE0020FEF70AFC00F0CEFD38780128B9D1FEF7ABFB00203870FEBD0748FEBD3C1F00081C
:40774000AC2100089D010008FC010008FF7F000040123C4016020008FFFF000010B517480078002825D01648046AFEF7C1FB032821D004281FD005281AD103F07FFE00F03A
:40778000B5FD03F00DFF8007800F022810D10D48418800290CD08321095D002908D101210170207E0221C207D20FA07806F02EF810BD0024D9E700F099FD10BD1C1F00084F
:4077C000AC2100080C020008F8B50646002406F0FFF90546304606F033FA03460A480021868A0DE001228A401046174628401F40002803D0002F01D1224394B2491CC9B208
:407800008E42EFD82046F8BD40220008F8B500252C460A4F0A4E0CE0D020396A604308180079002803D02046FFF7CEFF0543641CE4B23078A042EFD82846F8BDAC210008B1
:407840001C1F000808B50020694648706846FEF7C7FA69460020085608BD70B50D4601F0C9FF04000BD02079002808D0FFF7F6FBE178A0782A4605F00DFB002070BD02204E
:4078800070BD00000148007F704700001C1F00088030C078002800D00120704700B500F001F800BD10B5094BD0225043196A85300A5C074C521CD2B20A54648A196AA24292
:4078C00001D300220A54196A085C10BDAC2100084022000870B50D4601F08CFF04000BD002F009FE002807D021462A460A310620FEF702FA002070BD022070BD70B50D4639
:4079000001F078FF040007D002F0F5FD002803D0207B2870002070BD022070BDF8B50F4606460146384606F049F9044614480078B04201D8002504E01248016AD0207043B1
:407940000D18002D12D0284601F092FF032C0ED0002C0BD000220121304602F09FF9284603F0E6FA0221284603F0FCFAF8BD3146384606F0EBF90146304606F085FDEEE742
:407980001C1F0008AC210008F7B52B4F0446F8682A4D0078297F884201D30720FEBD07F007FF002801D00C20FEBD2078611C05F091FCFF2822D1F868297F007888421DD201
:4079C00005F0DAFC0646FF2816D02178621C03F0A1FB1B4821780068426B601C904705462078611C02F0D0FEFF2802D0314602F051FE002D04D01CE007251AE01F2518E029
:407A00000298002815D1F86841680078C200101A401C08180622611CFDF70DF8F868217842680078C300181A1154F8680178491C01702846FEBD0000FC0100081C1F000882
:407A40001C02000810B507F0B3FE002801D00C2010BD05F00FFC05480068006B804702F02FFE002000F0A2F9002010BD1C02000870B50D46044610210FF0C4FE1021601860
:407A800006460FF0BFFE334610221946204607F0DDFE102130460FF0B5FE0220287020460CF062FE70BD0000F8B504464078217802028006870FE0781143A6780905000238
:407AC000090D0643084601F095FE00210546F2B2002816D0002C10D0022F0ED0032F0CD0002A0AD00279092A07D0002A05D0134A8223527D1B5C9A4207D8288900210CF0B5
:407B000022FD20460FF06EFF0D49002914D10D48224600682946436930469847084988420AD1284680308178F2B2491C8170FF232146284600F033FAF8BD0000FC1E000869
:407B4000FFFF00002C02000800207047F8B5434D0646E8680078002805D007F029FE002803D00C20F8BD0220F8BD3078711C05F0B1FB0446FF280ED005F048FA3848317856
:407B80000068826B701C90470746204602F0BEFD002F02D060E01F275EE0E968087800285AD0421EA24246D0C200101A4968821FC01F8A18085C114602F0E6FDFF2802D023
:407BC000214602F067FDE86842680078C100081A801F1118E000061B701C009010180622FCF729FFE86842680078C100081AC01F115C9155E868426800981218204603F087
:407C000089FAE8680078401EC0B205F0FFF9E86841680078C200101A801F081806220021FCF712FFE868002142680078C300181AC01F11540CE04868E1000C1B611C40188E
:407C400006220021FCF700FFE968002049680855E8680178491E01703846F8BDFC0100081C02000810B500F05FFA0CF057FE002010BD000010B5014605220A48FCF7DBFEAE
:407C80000849052208463438FCF7D5FE01F004F9044880224438C17B1143C17300F08CFA10BD0000F021000810B5044600786178E2780843A17811430843217908436179D8
:407CC000084305D007F05EFD002803D00C2010BD122010BD204605F0F5FB002010BD000010B50078002105F053F8024902200876002010BDAC21000810B5027881784078AC
:407D0000002305F05BF8024901200876002010BDAC21000810B50C4605F0AEFC064A117E012900D1002000211176022121700CF077FA002010BD0000AC210008024A9368AA
:407D40000360D06808607047FC01000870B505460024800708D50948807A400604D500F073FA002800D10224680705D500F08AFA002801D104200443204670BDFC1E00088F
:407D800010B5FAF705FE05F065FF074807F06EFE012000F033F8040001D105F041F909F07BFD204610BD0000081F000870B50024104D114E002811D0304608210C30FDF70E
:407DC00091FD0404240C13D1287FC100091AF068001DFDF787FD0404240C09D1F06800210170297F4068CA00521A0021FCF72CFE204670BD1C1F0008FC010008F1B54E488A
:407E00009F22817A82B0114000248172FDF788FD0746807AC00706D0484802990068C268384690470446B87A800708D5002C7CD1434802990068C26A384690470446002C9F
:407E400073D1787A102809D83B492031009108770298FFF7ABFF040002D066E0394C64E039480025457045734571C5750576457645758570C5708571C57304214430017357
:407E80001F21C1809B21417245732F4EFF2020363073757300F0A0FB07F0F4F802F00CFB30462030C5700298012814D100980178D02041433046FDF715FD0004000C08D1A9
:407EC0000098007841012148FDF70CFD0404240C01D01C48FEBD002507E02846029902F065FA040005D16D1CEDB200980078A842F3D8154900204431C872887244398873D6
:407F0000401E4883FF200877B87A0107012000290949CA7A01DA024301E052085200CA72032131757175F075B075094900200870084908702046FEBDFC1E00082C02000811
:407F40001C020008FFFF0000AC21000800020008AA010008AB01000870B505460E46084605F036FE0446304605F06AFE0121A9400A46224001400A4301D0012070BD0020B5
:407F800070BD10B50446084605F05AFE0121A140014201D0012010BD002010BD7047FEB51C4616460F46054602F0C2FFA878FFF775FC02460190334639460094284600F033
:407FC0000DF8002808D1A8780199FFF785F9FF2C02D138460FF006FDFEBD0000FFB50D4685B004468178164610460E9F05F09AFE00280ED0FF2F27D0C8200159F800031D24
:408000000A58C01DCB5C085C5278834216D9012716E02648D022016AA078504385300A5C002A01D1224A927C521E0A54FF2F02D128460FF0D7FC012009B0F0BD9006870F11
:4080400069460898088108E06878A9788006870FE8780002014368460181204602F056FA0390002806D032462946204600F0C3FD0398E1E7384600F0F4FE074604A80090CB
:408080003B4602AA21460196284600F02FFC094BB200A178D218FF208854684600893B46C2B2A078314605F067FBE1E7AC2100084022000815220008F8B5184800260090ED
:4080C00027E000253046FFF77FFB07001ED01448D022016A3046504385300C5C12E0601CFAF7B8FFCCB23846E040C007C00F07D02146304603F0E6F821463046FFF70EFC70
:408100006D1CEDB20748818AA942E8D8761C0098F6B20078B042D4D8F8BD00001C1F0008AC2100084022000810B5FEF70FF90020FFF764FE04F074FFFAF79AFB032803D1CD
:40814000FEF7BCF9FEF70AFA0FF00AFD09F0A4FB002010BDF8B5002400F04CF90125012800D1012406F012FF012801D1022004430F4E1049002004270A78336A0FE0D0211B
:40818000414359180979002907D001290BD002290BD0082181402143CCB2401CC0B28242EDD87470F8BD2C43F7E73C43F5E70000AC2100081C1F0008F8B5FF2069461E4EDA
:4081C0000870F07B0024C00935D01C4D15E0D020316A60430F188320C05D01280BD102236A46FF21384602F0ECF901280ED04420C05D01280AD0641CE4B22878A042E6D807
:40820000F07B4006400EF073002410E04520C05D00280FD10121384600F0D4FC0AE0D020316A6043081800F092FC641CE4B22878A042F4D80020F8BDAC2100081C1F0008D7
:4082400010B5FFF787FF10BDF8B500252C460B4E0EE049682C20604308180122694607F03BFE0006000E01D0054D05E0641CE4B2B1680878A042ECD82846F8BDFC0100080A
:40828000FFFF0000F8B500252C460C4E0FE04068E100091B401801226946FFF775FB69460870002801D0064D05E0641CE4B2F0680178A142EBD82846F8BD0000FC010008E9
:4082C000FFFF000010B5084CFDF712FE052809D02078012806D1FDF70BFE052802D020780028F1D110BD0000FC01000810B5FDF7FFFD012803D0FDF7FBFD0228F7D110BD19
:40830000F8B5044680792546603517460E46002806D0687FFDF76EFF0020A071FF206877A671002E09D0687FFF2806D12046A178024B3A467D30FDF7E5FEF8BD15990010E1
:4083400010B5827904468A4382716034607FFF2803D0FDF74FFFFF20607710BD30B50D4C022061690C4B8AB29978002901D0022906D11D785B78EB18282B01D9032002E05A
:40838000032900D101205105490DC0020143616130BD0000C0113C400A22000800B500F031F8002807D0012805D0032801D0042801D0002000BD012000BD000002460448AA
:4083C000806901040020C90C114200D00120704700103C40014600B50020C90701D000F009F800BD014600B50020C90701D000F001F800BD0248006AC005C00F7047000046
:4084000000103C400448806980B2410501D5042070474007800F704700103C4038B50446000610D5FFF7EEFF01280CD1684603F04DF86846007800F0E3FB012002F002FE41
:408440000220FFF7FDFE0348006801692046884738BD00001C02000810B5034A0178117004F0A4FF002010BD0A22000870B50446FFF7C0FF002801D00C2070BDA27B012103
:408480002848002A827801D00A4301E05208520082706279012A0AD0C17849084900C1702079214E012806D0042804D00AE0C2780A43C270F4E70622E11D301DFCF7BBFA07
:4084C000A079B072194D28680168204688472079012808D06188208806F0C4FB2080207904280CD013E02868C168E01D88470021E01D04F0C3FF0120C002208007E0286846
:40850000C168E01D88470021E01D04F0B7FF2079B070204604F058FFB07A05F00BF9002070BD0000AC2100080A2200081C02000808B50178FFF75EFF814201D10C2008BD66
:40854000002927D0072069460870FFF75BFF012801D0042808D11A49887A091D02F014F9FF2801D00B2008BDFFF718FF01280BD10121684600F092F8012801D0092008BD88
:408580006846007804F0BEF8FFF7E8FE04F050FF012011E0FFF702FF012806D1684602F095FF6846007800F087FB04F037FFFFF721FF0028FBD10220FFF742FE002008BD86
:4085C0000A22000810B5034A0178517005F00EF8002010BD0A22000838B5002168460FF077F9002801D01F2038BD01210098C902018041800025057145718571072141739D
:40860000857304F0E1FE009C202200212046FCF71BFA25702A460021601CFCF715FA204604F0C4FE204604F0E1FF00980FF0DAF90B2200210248FCF707FA002038BD0000FD
:408640000A22000810B504460748844209D8204601F0D0F8002804D00089A04201D1012010BD002010BD0000FF0E0000074A9179491C8906890E917138220A409201490712
:40868000090E11430843024908407047AC210008FF0E0000C006C00E70470000F3B5174B0E4618781649401C164AC4B281B000200978126A10E0A14200D80024A14201D835
:4086C000002502E0D025654355192F79002F07D0401C641CC0B2E4B28142ECD80020FEBD1C700021204601F061FE2E712046FFF7BDFF2881019804700120FEBD10020008AE
:408700001C1F0008AC21000810B507F00FF90222002100F003F804F0ABFB10BD10B5094B40074907000F090F185A595A40185043C0086421FAF78EFC002800D1012080B2CB
:4087400010BD0000C84C0010F7B54120405C88B015460C46002802D02878042802D200200BB0F0BD6946087200262046FFF790F8012800D00126204603A93C300191009065
:4087800023460327217F38333246606A07F08EF902A8089900900B46019120463A4603A9283007F01BF806006846007A287002D1204600F0C1FA204601F0E4FD3046CFE79B
:4087C000FFB587B00C4605461078694608724120005D1746002829D000262046FFF758F8012800D00126204603A93C30019100902346217F38333246606A07F057F902A8CB
:408800000090291D019120462B1D03A928300A9A06F0E4FF05006846007A388005D1204601F0B0FD204600F087FA28460BB0F0BDFFB50C464020415C25468035107889B051
:40884000164600290BD069460873C0B2002814D000272046FFF71CF8012810D010E0002100910190A078099B129A0C9903F052F80120E87100200DB0F0BD1F20FBE7012786
:4088800003200890204604A93C30019100902346617F38333A46206A07F008F9A0780C9902F080FF0F4A0999801803AA01900B4600920291204604A92830089A06F0DBFF54
:4088C00002466846007B30700120E8710C99064DA3788900491912985854204601F05CFD1046C8E700103C4015220008FFB506464020405C89B015460C46002810D00846E1
:4089000001F004FE01280BD0288869468883002813D000272046FEF7BBFF01280FD00FE02878002100910190A078331DFF22139902F0F0FF00200DB0F0BD0220FBE70127E9
:40894000204603A93C30019100902346617F38333A46206A07F0AAF8A078139902F022FF00900C4A009912988918029007AA009201912046331D03A928300C9A06F07BFF28
:4089800002466846808B2880204601F005FD1046D1E7000000103C4070B5054680350446E9784030002908D0012905D10179042902D14078002808D070BD01790C29F8D004
:4089C0000D29F9D128780028F6D0A078FEF7FCFE2979C840C007C00FEED0A07802F072FC2979A078FEF79AFF70BD000010B518490446484028D0002101231A468A409042C6
:408A000021D0491C2029F8D300212046C840C243520618D0400616D0491C1929F5D3A0B2210C020AC3B2884201D193420BD01F21204600F01BFA182805D8A00E062100F084
:408A400015FA022801D2002010BD012010BD0000D6BE898E70B50D460446FEF719FF01280AD0E87AA97A00020143A07802F0FAFE012808D0002070BD00222421204606F0B4
:408A80005EF8242070BD28215A200155204600F037FD282070BD000008490978814201D8002004E00649D022096A504308188030C079012800D00020704700001C1F000802
:408AC000AC210008014610B5002049070FD5094A0021146A084A137807E0D0224A43A2181279022A04D0491CC9B28B42F5D810BD012010BDAC2100081C1F0008014610B56E
:408B0000002049070FD5094A0021146A084A137807E0D0224A43A2181279022A04D0491CC9B28B42F5D810BD012010BDAC2100081C1F000810B5044601468034E06A00289E
:408B400004D089780EF06CFF0020E06210BD38B50546002000902846FEF79AFE01282BD1284601F0C8FC002826D028792C46C01E4034030002F016FA0705051B1B051B204E
:408B80001B00284601F0C8FC012810D0284605F0BDF900280BD0284605F0C2F9012806D0A97868460EF0AAFE002803D105E06079002801D10120607138BD2846009905F029
:408BC0000FFE38BD40304171704740308171704770B50546403528790C46052904D0002C05D1801E022802D8022006F025F82C7170BD017170479200101880304161704718
:408C000070B53C2502F0C4F8040004D020460021473002F021FD0023FF222946204600F065FD002C02D0A07802F028F870BD000010B50B490978814201D8002404E00949CA
:408C4000D022096A50430C1820217F200155002C05D020890BF0EAFC204600F06DF810BD1C1F0008AC21000870B505460F480078A84201D8002404E00D48016AD020684312
:408C80000C18002C11D0207907280ED1204600F0BAF8204606F002F80A21484302462046044B29467F30FDF72DFA70BD1C1F0008AC21000859A7001010B502F069F80028FD
:408CC00002D0807801F0DAFF10BD38B5044600206946087001236A46FF21204601F02AFC054601236A46FF21204601F06AFC2843012812D0214640318A79002A02D1087959
:408D000001280CD0487901280DD0022A0FD0E079400602D5204605F06DFF002038BD204601F0DCFEF9E72046FFF711FFF5E7204600F028F8F1E7000010B50446408A002862
:408D40000DD00748F521807A0840C00607D5204605F0A4FF82B2618AA07803F0DFFF10BDFC1E000810B50023054C0B60A48A944205D992001018803042690A60436110BD62
:408D800040220008FEB50646002000900190A8208559B17868460EF0B1FD002801D00720FEBD0098374660370290344678884034608238882082E08BA082304605F057FF47
:408DC000A88CE18B884207D1288A3988884203D1688A7988884203D0F07920210843F071688A7880288A3880A88CE083FEF762FBA083E08BFEF76EFBE0763046029905F0B5
:408E00002BFD0198FEBD38B5044600200090A07900280FD14420005D052801D00E2809D1A17868460EF06AFD002803D12046009905F056FE38BD10B501F06EFE002010BD6B
:408E400070B50C4605460146204605F047F8002805D0A17828460EF0D7FD232070BD0D2070BD002800D102207047704770B500231A46491E0CE00446D440E507ED0F541CF5
:408E80000646E640F407E40FA54200D05B1C521C8A42F0D3D8B270BD30B50021124C0A46A05C002308E0C50701D0491CC9B201290AD840085B1CDBB20028F4D1012903D8EE
:408EC000521CD2B2052AEBD302290BD207488118C87B0122082B03D29A400243D0B200E01043C87330BD0000F0210008AC2100087FB504468034E16A05460E4618310822BC
:408F00006846FBF798FD31462031082202A8FBF792FD102168460EF075FCE06A102108300EF070FCE06A2B46083028331022694606F08CFC7FBD10B504460821FFF700FA63
:408F400010212046FFF7FCF92079052822D0062820D008281DD1218900200BF0B3FA072020712046FEF794FC012819D00E212046FFF72EFE002180200155204601F088FEA9
:408F80002046FFF7D7FD2046FFF7D6FE2046FFF79CFE10BD2089012200210BF077FADEE70521E4E7FFB581B01F4604460821FFF7C7F910212046FFF7C3F92079082803D027
:408FC000092804D0042503E00425012601E009250026204601F086FA00212046FFF7F8FD25712046FFF7A6FD0398002E02D0012808D00BE001280AD12089002202990BF011
:4090000045FA04E0218902980BF05CFA0127002180200155012F07D0204601F039FE2046FFF753FE05B0F0BD5A2102980855204605F0B2FD054605480121428A2046FFF737
:409040005FF9002DEED109202071EBE7FC1E000870B50C460546FEF71BFC012809D108212846FFF76DF90023012221462846FFF799FF70BD10B5044601F034FA2046FFF7DA
:4090800059FD00212046FFF7A3FD10BD70B505461A24FEF7FDFB012809D108212846FFF74FF90023012221462846FFF77BFF70BD38B5044600200090A17868460EF01EFC7F
:4090C000002801D00D2038BD2046009D01F0BEFB2946204605F07EFC05480821428A2046FFF70EF906212046FFF772FD002038BDFC1E0008F8B50446002000900E46A17882
:4091000068460EF0FBFB002801D00D20F8BD204604213830009D0EF052F9AC200059082118300EF04CF9012E02D1204601F08EFB2946204605F0D2FB05480821428A2046DF
:40914000FFF7DEF802212046FFF742FD0020F8BDFC1E000810B50446FFF7CAFE03212046FFF736FD204601F0E3FE10BD10B50021FFF7C0FF10BD000038B50446002000909A
:40918000A17868460EF0BAFB002811D12046009A01F0A8F91146204605F027FC05480821428A2046FFF7ACF807212046FFF710FD38BD0000FC1E000838B5044600200090F3
:4091C000A17868460EF09AFB002810D12046009905F0D7FC06480821428A2046FFF790F804212046FFF7F4FC204601F0A1FE38BDFC1E000810B5FFF79EFE10BDF8B5044685
:40920000002000900E46A17868460EF077FB002801D00D20F8BDAC20005908212030009D0EF0CDF8204604213C300EF0C8F8002E02D1204601F00AFB2946204605F075FBCE
:409240000E480821428A2046FFF75AF8204601F0A4FD00280AD0204600F026F8002803D009212046FFF7B4FC0020F8BD08212046FFF7AEFC204601F05BFEF5E7FC1E0008A4
:4092800010B54421095C082906D0092908D00A2901D100F09BF810BD0B21FFF799FC10BD00F002F810BD000070B504460079052805D0062803D0082811D00C2070BD032204
:4092C0000621204605F03BFC0F480821428A2046FFF716F811212046FFF77AFC12E006215A200155204605F057FC05466220025B0A20424301212046FFF702F8002D01D114
:4093000009202071002070BDFC1E000838B5044600200090A17868460EF0F0FA002801D00D2038BD2046009D00F07EFA08202071204601F08BFA2946204605F056FB002117
:40934000412001550F212046FFF742FC204601F0EFFD002038BD10B5024601F0C3F810211046FFF735FC10BD10B50446FEF790FA012809D04420005D112805D100231A46FD
:4093800006212046FFF70EFE10BD10B5FFF7D3FD10BD000038B5044600200090A17868460EF0ACFA00280DD12046009905F0E9FB05480821428A2046FEF7A2FF0D212046F7
:4093C000FFF706FC38BD0000FC1E000838B5044600200090A17868460EF090FA002801D00D2038BD2046009905F0C0FB05480821428A2046FEF784FF0C212046FFF7E8FBD2
:40940000002038BDFC1E0008007870477CB536490978814201D8002404E03449D022096A50430C18002C5DD0204601F064F8002858D0207903280CD005280CD06220015B75
:40944000A07804F0F7F826464036B079012805D030E0042000E0062020712BE00021204604F08BFD25468035A86A002804D0A1780EF0D6FA0020A8620020B071E878012806
:409480000CD02046C030417B7D22114041732046FFF71BFC2079072805D007E02046C030417B7E22F1E72046FFF746FC0221204601F058FD0E48407BC00713D020790428AC
:4094C00010D12089694608806034207A88702089000AC870A07A08716089000A487168460BF05EFA7CBD00001C1F0008AC210008F021000810B55A22115400F067F810BD2E
:4095000010B50446FF21FEF71BFF09202071A07804F0D2F810BD000038B5FF216A46117015490978814201D8002404E01349D022096A50430C18002C1DD0204600F0ECFFFD
:40954000002818D10E480068C16920468847E07EC00610D4BC20005D01280CD101236A461821204601F02DF8002804D10548006801682046884738BD1C1F0008AC21000890
:409580002C0200083802000810B504468079002809D022215A200155FF212046FEF7D0FE204600F013F810BD10B5037902464032002B03D09176092B02D003E0002100E0B6
:4095C0002221917600F002F810BD0000FEB50446008900270090278120792546803500282FD001282DD002282BD0002005F024FB0AE002AA01A9204604F05CFC002808D133
:40960000A17801980EF000FA204604F07FFC0028EFD0FF212046FEF793FE2046FDF78AFE3049AF70887B002804D0401E0006000E887306D1F9F702F92A4840304770F9F787
:40964000E7F826466036B07FFCF7D4FDA86A002803D0A1780EF0E4F9AF62E86A002803D0A1780EF0DDF9EF6225464035A97E002934D0009800F0B6F8F07FFCF7BBFD20468F
:40968000FFF742F8A07802F0D1F8204602F0C2FEA0780AF00DF9E87B02F0C8FBA87BFF26FF2805D0104909680A6C00219047AE73EE73A07801F0E2FA0B20FEF7C1FD01F0AD
:4096C0003DF9F9F7D5F8032807D10648807B002803D1FF20F530FCF71FFFFEBD1F21A976C7E70000AC2100081C020008FFB583B01E461746054606F003F904006AD020468E
:409700000C303146009001F089FF2046062200211830FBF799F92046062200211230FBF793F92D48224600683946836A284698470190049820702846FEF7AAF80121484019
:409740002E4640366070002D11D028896080F07920710498002811D168796071F08BE08028466030018821814088608109E01B488069C005C00F2071002060800498022871
:4097800024D02846062248300099FBF754F9FF2F11D0114801210068026C3846904710482C220068416838465043021D8A180A30085C114601E02079009903F08BFD0546C3
:4097C000FF2801D003F04AF8B773F573204601990AF0FBFD07B0F0BD1C02000800103C40040200080A4610B5014600200AF036FF10BD000000B50146FEF74CFF084A127804
:40980000824201D8002004E0064AD023126A58431018002802D002898A4200D0002000BD1C1F0008AC21000838B504468034E16A002907D1817868460EF072F8002801D1AF
:409840000098E062E06A38BD10B5014600F05EFE012803D08878FEF725F810BD0348026A8878D02148438430105C10BDAC21000870B5054604468035A879012811D10948BB
:40988000A178026AD02048438430165C3046FEF763FB002805D10220A871A078314603F0D5F970BDAC2100080EB500220A216B460292198100905A811046029B00990EF04A
:4098C00086F90EBD70B5104DA87A00281AD00F4C217FFF2916D0608B01F046F8012811D10020A872401E6083FF20207701F0FAFD044601F031FF010002D0204600F0D8FBBA
:40990000FEF7DAFB70BD0000F0210008AC2100087047000070B5104AC0B21178491E11700E490978814201D8002404E00C49D022096A50430C18A07900280BD02546603520
:40994000687FFF2806D02046FFF71EFE0020A071FF20687770BD0000AA0100081C1F0008AC2100087047490510B5490F0B0001F019FB060704080C0C0F073E21FFF7BAFDDF
:4099800010BD0821FFF710FE10BDFFF71FFE10BDFFF7FAFD10BD0000F8B52B48002500904DE0A84201D8002604E02848016AD02068430E18F8F742FF30464030C48A078BE5
:4099C0000021C1820183F8F723FF304600F093FD012831D1A00702D52846FFF717FDE00602D52846FFF798FDA00602D52846FFF75BFF600609D5F8F721FF14490020403125
:409A00004870F8F705FF00F015FF200602D5284600F020F8600702D5284600F04BFCE00703D021463046FFF79EFFF80704D00849B0780968496988476D1C0098EDB2007881
:409A4000A842AED8F8BD00001C1F0008AC2100083802000805490978814201D8002070470349D022096A5043081870471C1F0008AC21000810B5044605480068016820465F
:409A800088470448006801692046884710BD00002C02000838020008F8B50546FF20694608702888FFF7A6FE040035D000F023FD002831D0207909282ED002236A460021B7
:409AC000204600F07EFD012828D02046FDF7E0FE0646E07920210843E071204604F06AFA002823D0294601F015FA02236A46FF21204600F01FFD01281AD04620005D00280D
:409B00001BD02325E079DF210840E0712946204604F0A7FB2846F8BD0220F8BD68460078012801D02A20F8BD2320F8BD0720F8BD02204034A0710020F8BD002E05D02046C3
:409B4000FFF720F90500DDD1E4E70C20F8BD000070B50E460C2501F0FDF8040013D00025228929460A480AF09FF80123FF2202212046FFF7BBFDA07801F002FC2046FFF7FF
:409B800025FD022000E000203070284670BD00000E200000F8B5044601F0DCF8002801D00C20F8BD6079A11D00F0EEFDFF2801D00B20F8BD02216846FEF770FD012859D192
:409BC0003248017868460078814201D8002504E02F49D022096A50430D18002D4AD000212846FEF7F5FF2E46002040367071B0712848002100684268284690470620FEF744
:409C00001FFB2F46208A60373880E289A189A87809F0D0FCF083608A78800420F0760320B0831B4806228778A11D2430FAF703FF2079012820D06079F0710121A01D03F0A0
:409C40001DFCFB20074012488770217E012918D0C278FB210A40C2700F4821460068826828469047A978204603F0D8F82846FFF7E2F8F8BD0920F8BD0020F0710420074336
:409C8000E1E7C17804221143C170E5E71C1F0008AC210008380200081C02000870B5164602461B480D460078D0211A4B5143904201D8002401E0186A4418002C26D02046B5
:409CC00000F024FC012809D1186A8431405C1146FEF742F9002801D104F092FE0E483146006882692046904700280CD0204680308178A94201D3491B00E00021817020894B
:409D000029460AF020FC204601F012F970BD00001C1F0008AC2100082C02000870B505460088FFF767FD040014D000F0E4FB002810D02079092822D0A97825464035A976D4
:409D4000204604F029FF0646A879012804D06220025B02E0022070BD6A8A0A20424301212046FEF7CDFA01F065FB8021204602F06FFD01F07BFB002E01D109202071002009
:409D800070BD0EB5002218216B460292198100905A810120029B00990DF019FF0EBD0000F8B5194E0025B07A002824D101F0D4FC26E001F0CBFC1549401801680068CCB2D3
:409DC00087B22146384600F0CFFD012814D010480121478304774577B1720E490978A14201D8002003E0006AD0214C430019002801D001F09DF8F8BD01F0AEFC6D1CEDB24D
:409E00000028D6D1F8BD0000F021000800103C40AC2100081C1F000810B50446C0060FD50C4900200B6A0C490A7807E0D021414359180979022909D0401CC0B28242F5D8B5
:409E400006480068C1692046884710BD00F050F8F6E70000AC2100081C1F00081C02000810B50088FFF7C6FC040007D04420005D082805D00B2803D00C2010BD022010BD19
:409E80002046FFF711FA002803D009212046FEF79FFE002010BD70B505460088FFF7AAFC040008D0264640363079082805D00B2803D00C2070BD022070BDAC20005910222C
:409EC0000830A91CFAF7B7FD2046FFF711F83079082804D02046FFF779FA002803D00A212046FEF775FE204601F022F8002070BD70B51E491E4D0978814201D8002403E012
:409F0000D0212A6A414354182179022904D0002901D003F0D1FB70BD012283210A5501F04FFC032020710820FEF78AF900212046FEF74EFE0121204601F014F8204647304D
:409F40000121064601F088FB0A480068416A304688470246012300212046FFF7C7FBA078FFF788FDA87B401CA87370BD1C1F0008AC2100081C02000810B50C460021217049
:409F80000088FFF737FC03000BD000F0B4FA002807D00948F521807A0840C00603D4112010BD022010BD022020705A8A188900210AF070FB002010BDFC1E000870B50088C9
:409FC000FFF718FC040008D000F095FA002804D0E079C10903D0002070BD022070BDC1068025002908DA2843E07108480221428A2046FEF785F9EEE7204600F063FC002871
:40A00000ECD1E1792943E17170BD0000FC1E0008F8B50F46002569460D702E460088FFF7E9FB040010D000F066FA00280CD0E079410638D4E17E4A0708D48A074021002A47
:40A040001BDA0843E0712EE00220F8BD05F058FC067021894180E1898180A17E4170218A0546C180022038702978104809F02EFF28460AF0B3FA0020F8BD0843E07102233A
:40A080006A460C21204600F055FA00280BD102236A46FF21204600F094FA002803D1204604F0A8FD05462846F8BD00001D0400003EB500220F236C46029223810091019064
:40A0C000628169460EC900200DF081FD3EBD0000F8B50F46054600F05BFE040042D0032020710026832006552046E6703146473001F0B2FA05F01AFC25464035EA8B61795C
:40A10000FEF70CFB1030FF2281B249321346204604F0ACFD0920FEF793F8A07801F06CFB0021204600F01EFF00212046FEF750FD6E710023AE713A4619462046FFF7D6FA16
:40A140001648002100684268204690471448817B491C8173A078FFF78DFCF8F789FB032804D00EE0284603F0A7FAF8BD60342088002803D0E98B414388B200E0E88BFCF703
:40A1800017FA00F0E7FD0400EFD005480021243003F074F9204600F0BFFCF8BD38020008AC210008F8B50446FF206946087000262088FFF71FFB05001AD0FDF769FB00286E
:40A1C00012D02948807AC00710D0284600F093F900280DD0287903280CD004280AD0072808D0092836D103E00C20F8BD1120F8BD0220F8BD4420405D01282BD02846FFF785
:40A2000013FB070028D00822211DFAF714FC3846A1782030017261881022090A417221460C311838FAF707FC02236A46FF21284600F0C7F9012811D002236A4605212846FF
:40A2400000F078F9012809D0284600F047FC06463046F8BD0D20F8BD0720F8BD01212846FEF7B6FCF4E70000FC1E000810B50E4AC0B21178491E11700C490978814201D8FF
:40A28000002404E00A49D022096A50430C18208B102108432083A07803F00EFA08212046FFF782F910BD0000AA0100081C1F0008AC21000810B517490978814201D800244C
:40A2C00004E01549D022096A50430C18002C1AD020464030417902290BD1002141718320005D012810D02046C030417B7D2211404173207E0021C207D20FA07803F086FACD
:40A300002046FEF7E2FC10BD2046C030417B7E22EDE700001C1F0008AC21000870B505460E460088FFF766FA04000BD000F0E3F8002807D01248F521807A0840C00603D4DF
:40A34000112070BD022070BD6020005B5E21095B401C48430004C10C6888884201D2122070BD60822079072802D12046FEF7E4FC02203070208900210AF0B4F9002070BD96
:40A38000FC1E0008416A491C416204D1017F491C4906490E01777047016A491C016204D1417F491C4906490E41777047F3B506463D4881B00078B04201D8002404E03B487F
:40A3C000016AD02070430C18002C05D0FBF7A8FA807AC00702D00EE00220FEBD2546C0352F68F8F72BFAD02200212046FAF72CFB2F60F8F70DFA2E4802990068826820464E
:40A40000904705004DD1A6700026E676267131462046FEF7DDFB204600F064F8204603F06FFD244F6782862006551F48F5212038807A084000D00120A075268302980028ED
:40A4400005D020462021C030FBF74CFA85B2C020005920220021FAF7F7FA4C20A664065320464030C671FF21C17381730122603042750275C2758275427602760322827603
:40A48000C27606774277002022186032401CC0B251770328F8D305484030C07820736034E780E8B2FEBD00001C1F0008AC2100082C020008FFFF000010B50020074B084A09
:40A4C000FF2119541418401CC0B221740428F8D31F2119541018017410BD0000F0210008AC2100080021416201770162417740300170417070470079002805D0012803D032
:40A50000022801D0012070470020704780308079002800D00120704740300079002807D0012805D0052803D00E2801D00120704700207047F0B5002405461470C07E01265F
:40A54000C006002803DA0124142900D116702846FFF7E2FF002803D00124052900D11670E87E470708D480070ED501240C290BD11670E87E400707D5E87E800704D4012B3D
:40A5800001D10C2905D001248320405D012802D008E00024F8E7A879800703D50124082900D11670012B02D1092900D100242046F0BD10B5807803F043FB002800D0012007
:40A5C00010BDFFB581B0019F04980026403714460D46022810D17879012803D1012D00D120700126B879022800D10126019803F097FC012800D1012600202070797981239B
:40A60000802002290AD1012D04D0002D04D0182D02D002E0237000E020700126B97901290AD10126002D04D0012D04D0182D02D002E0237000E020700199A0310A7F032AD0
:40A6400002D0042A08D003E0162D18D101262670097F022904D012E0162D10D100260EE00126182D08D0162D06D0172D04D0002D04D0012D02D002E0237000E0207004988E
:40A68000022804D12078C00700D001202070304605B0F0BD10B5084A1278824201D8002004E0064AD023126A584310184030C173084602F0D3F810BD1C1F0008AC2100088B
:40A6C000F8B500240F4D104E17E0A04201D8002103E0D020316A604309180846FFF70BFF002808D00F464037F87BFF2803D001F09DFBFF20F873641CE4B22878A042E4D8DC
:40A70000F8BD00001C1F0008AC210008F8B5064600240F4D18E0A04201D8002104E00D48016AD020604309180846FFF7E4FE002808D00F464037F87BB04203D101F076FB1A
:40A74000FF20F873641CE4B22878A042E3D8F8BD1C1F0008AC21000810B50449C0B20A78521E0A70FEF764FA10BD0000AA01000810B50449C0B20A78521E0A70FEF774FA19
:40A7800010BD0000AA010008F3B50024C70781B0134EFF0F1FE0A04201D8002504E01148016AD02060430D182846FFF7A4FE00280FD02946062248310298FAF72DF90028AA
:40A7C00007D14035E879C007C00F874201D12046FEBD641CE4B23078A042DCD8FF20FEBD1C1F0008AC21000830B50446FF281BD000210E4B0E4D14E0884201D8002203E061
:40A80000D0202A6A484312181046FFF774FE002805D04032907BA04201D1012030BD491CC9B218788842E7D8002030BD1C1F0008AC21000810B500F055FE044600F08CFFFA
:40A84000010002D02046FFF733FC10BD70B5054604468035A879002827D1FF20E075174BA078D0225043196A85300A5CD026521CD2B20A54A078196A7043114E8530768A44
:40A88000B24201D300220A54A078D02250430246196A85328E5C84300E54A1783046FDF75BFB002802D00120A87170BD0220A871A078314602F0CAF970BD0000AC21000876
:40A8C000402200087CB50446FF206A46002110700191014602232046FFF773FE01280FD002236A4608212046FFF724FE012807D0A17801A80DF002F8002809D007207CBD9A
:40A9000068460078002801D023207CBD2A207CBD2046019DFCF7BCFF00280BD02946204604F01EF804480221428A2046FDF7E8FC00207CBD11207CBDFC1E000870B50024BE
:40A94000074E084D07E0D020316A60430818FEF7BCF9641CE4B22878A042F4D8002070BDAC2100081C1F0008F0B50F46810785B0890F0291000A6946888055480078B842D3
:40A9800001D8002404E05348016AD02078430C18002C26D000F0DAFE06466846808800280BD00298012840D002283ED0032809D04120005D01286ED085E04748301800681A
:40A9C000608180E000200290A17802A80CF06EFF002807D04120005D012877D12046FFF7D1FC73E06846029D82882946304602F09BFF39483018006860812046FDF7CCFF8F
:40AA000001AA21462846FDF79FFE002807D0384600F0C0FCA17828460CF0D8FF28E0EF772946204603F09CFC4DE00020009020890390A17868460CF027FF002802D0002098
:40AA400005B0F0BD6846009D8288291D304602F06BFF2148301800686081384600F09AFC2046FDF799FF8020005D00280FD106E03D205A2108552046FEF742FD26E001AAAC
:40AA800021462846029BFDF79BFE002804D028460CF092FFECE713E00298FEF7E6F901460398287003980901000A0843687068468088A870000AE8702846FFF762F905E04C
:40AAC0002046FFF75FFC384600F064FC0120B7E71C1F0008AC21000800103C4070B501790546032904D0042904D0072908D109E0052400E006240121FEF7FCFA002805D054
:40AB00000D2070BD0824FEF7D3FAF7E7284600F00FFA2C71002070BDF0B587B0054604F0EFFE044604F0E5FE019004F0D8FE009004F0EAFE029004F0F9FE06900098207073
:40AB400000982F46000A607000984037000C0590A07000982E46000EE070F87E20710198607101986036000AA07101984149000C0490E071387F2072B88B0522000A607266
:40AB8000B87FA072F88B000AE072307820733088000A6073B078A0737088000AE073204610300391F9F747FF0020E870A878039902F0CEFD002068710698029940010843EE
:40ABC00000216175A075000AE07504E0F98B288849004018288000F0A5FC2988042200F05FFE0128F2D023481038417C027C090211433182C17C827C090211437182007DDF
:40AC0000B0820298307600983081059870810198B0810498F0811848298801601821204602F0ACF87088F98BC000F8F713FA124980B28860012183204155A87800F07EFBBC
:40AC4000B188A87802F0FEFBF98BA878042208F047FAF7F79FFE0446A87808F003FD06494031086200F07CFB2046F7F797FE07B0F0BD0000BC21000800123C4010B5002169
:40AC8000FFF794FB002801D0002010BD012010BDFEB50546803001908079002839D0AE780096D021294C4E433746206A8437C05D0099FDF766F9012828D0226A2046D15D13
:40ACC000491CCCB22249498AA14200D80024019B002199713346FF218533D154026A8636D1550021006A0B4681550A46009802F0CDFAE97DFF2904D0284603F06CF8FF2030
:40AD0000E87503F07DFE0026114F1AE0019803218171FEBD00200090224669462846FEF721F80099002904D0FF231A462846FDF736F9641C788AE4B2A04200D80024761CEA
:40AD4000F6B2788AB042E5D8FEBD0000AC2100084022000800B5022000F002F800BD000030B5044608480021036A0848027807E0D020484318180579A54204D0491CC9B280
:40AD80008A42F5D8002030BDAC2100081C1F000800B50120FFF7E4FF00BD10B5044604F0AFFD218901808034E16A4160E16A2831816009F0A1FB10BDF7B507460C4608793C
:40ADC000897882B0092807D0F9772046FFF79EFB4D4E012806D00FE038460CF015FE022005B0F0BDA178D0204843326A8430105CFDF7B2F8012824D0A078FDF74DFE01288E
:40AE00001FD03D780121384603F0D4FC2046FEF71BFD0190A17802F085FF002818D0204681213A4AC0300C2D3ED023DC26464036002D26D0012D27D0062D33D00B2D4BD1F2
:40AE400028E06846027C21463846FDF7F9FFC7E7A078D0225043316A85300A5C002A01D12B4A927C521E0A54A17838460CF0CCFD0720B5E7122D24D0142D25D0162D2BD1B8
:40AE800004E00122B27101E002227271427B0A43427321E02046FCF7FBFC01281CD10020307019E00120FBE7E07E400704D4528A04212046FDF724FAE07E02210843E07686
:40AEC0000AE0528A102104E0E07EC00604D5528A40212046FDF714FA009504AA21463846019BFDF7A5FC69460A7CA0780323019902F042FCA0780199FCF7EEF9A17838461C
:40AF00000CF082FD00206BE7AC210008FC1E0008402200088A8802804A884280CA8882800A89C2808A890281498941817047000010B50246803293790021002B03D192789C
:40AF4000002A00D00121064A927A002A00D000210279092A00D10121807802F08BFC10BDF021000870B50C460546FCF791FC00280BD1012C06D92879092806D02846FFF7E8
:40AF800018FB0446002C02D004E0012402E0287EC007FAD1287E2146C207D20FA87802F035FC70BD30B47446641E2578641CAB4200D21D46635D5B00E31830BC184700002C
:40AFC0000B4B01280BD002280BD004280BD008280CD10748803002630548A83005E0202002E0382000E05020C01801607047000000103C40014988607047000000103C40B5
:40B0000010B50446FF20F130012C04D0022C05D0042C08D105E0FF20D53004E0FF20D93001E0FF20DD30002202F07AFD03490869034A80B2A0431080086110BD00103C4096
:40B0400012020008034A1169034B89B2814319801161704700103C4012020008034A1169034B89B2014319801161704700103C4012020008F8B5244F14243A68054665434B
:40B080002C46936813341B5DF1269B0036019B191E4E9B1900931E68B6B2760876001E602C2306465E43002909D190685168035D301D08181649FF22C96902F00DFB3868AB
:40B0C000A91D80688022035D40181149896A02F003FB38680E498068096A035D4019202202F0FAFA38680A4980680C35035D4019496A402202F0F0FA386801214068805BCD
:40B10000084300990860F8BD0402000800103C4040220008F8B505460120A84086B214460F46012231467C2002F0FAFC3A463146782002F0F5FC6078267800020643E07879
:40B14000A27800020243607923790002034307480C2180694D430649401944182660001D44182260001D40180360F8BD4022000800103C40401880B27047000030B5124B31
:40B18000CC061B7849095B0701255B0F640E0902ED02012B10D0022B0ED0032B01D0042B09D18007800FD2072843120E0243144306482143816230BD04432143D0010843FC
:40B1C00003492843886030BD4022000800F13D4080143C4010B5234A12785207520F012A29D0022A27D0032A01D0042A22D1421C13461C78007822465C78240222439C7861
:40B20000DB78240422431B061A431202164C0243A260481C024613780978184653781B0218439378D2781B0418431206104300020843E06010BD42780378120213430B4A12
:40B240001361C37880781B021843506148780B78000203439361C878897800020143D16110BD00004022000800F13D4000143C400B4A12785207520F012A09D0022A07D0F1
:40B28000032A01D0042A02D1064A106051607047054A83B21360000C50609160704700004022000800F13D4000143C40044A002180180268491C89B21029FAD370470000D6
:40B2C00000103C4010B50C4602F092FC01494018046010BD00103C40704770B50C46054600F018F821462846FFF7ECFF70BD0000002310B5F121064A090118468C18236097
:40B30000091D401CC0B289B21028F7D310BD000000103C4070B50C46054602F06FFC0549054A097D694309190902214389B28018016070BD4022000800103C4010B504499B
:40B340000863FF20012220211D3002F0E9FB10BD80103C400149086070470000C0103C4000B50549012088600449442008600420FFF774FE00BD000040123C4000103C4066
:40B380000349086302494520803908607047000080103C40054AD1687C2389B2994380000843D06002494D200860704740123C4000103C4070470000054B19680722920293
:40B3C00089B2002801D0114300E0914319607047001F3C4010B5094800784007400F012808D0022806D0032801D0042801D10DF091FA10BD02495420086010BD4022000874
:40B4000000103C4010B5094800784007400F012808D0022806D0032801D0042801D10DF081FA10BD02495320086010BD4022000800103C4000B5034908884880FFF702FEE4
:40B4400000BD00001202000810B5F7F7D3F9012802D10320FAF7FAFC0120FBF70DFF02495020086010BD000000103C4000B502484088FFF7F3FD00BD1202000810B5FAF797
:40B480001DFD10BD03490868012280B2D203104308607047001F3C40884201D8081A03E00022D243101A401880B27047884201D9401A00E0081A044980B2884203D9012121
:40B4C0000904081A80B27047FF7F000000210170704710B50B4602460021F820FAF704FB10BD00000148006BC0B2704780103C4010B50A490978814201D8002404E00849A2
:40B50000D022096A50430C18F7F798F9C0342068C48BF7F77DF9204610BD00001C1F0008AC2100080148806880B27047C0103C400148406880B2704740503D4000280DD0A4
:40B540000C4A90690870000A4870D0698870000AC870106A0871000A48717047064A10680870000A487050688870000AC8709068F0E7000040103C40C0113C4000B5024A85
:40B5800000F004F800BD0000FF7F000000B51346FFF782FF984201D8022800D2002000BD0148006980B27047001A3C400148406A80B2704700103C400148406980B27047DF
:40B5C00040103C400148006880B2704700503D400148C06B80B2704700103C40F8B50646002402F0F5FA0546304602F029FB064609480021878A0BE0012088400346024626
:40B600002B403240134301D02043C4B2491CC9B28F42F1D82046F8BD40220008002910D00B4B196B8AB2596B9B6B89B20270120A42708170090A9BB2C1700371190A4171FF
:40B640007047044B996A8AB2D96A1B6B89B2EDE700123C4040103C40012905D0054989690904C90F017070470249403189688907C90FF7E700103C40FFB581B000242D4B07
:40B680002D4D0B9E002805D0022803D003283ED006281DD1A86B2F4684B2A004850E2007000F012802D0252D1AD916E00C2D14D106230021F820FAF717FA06230021F820D3
:40B6C000029AFAF711FA002E01D0B86B1DE0002304980480184605B0F0BDFFF7D3FEF9E706230021F820FAF7FFF9062DEFD30A98002806D0AD1F0246ABB20021F820FAF76E
:40B70000F3F9B86B002E80B2E1D03080DFE7A86B84B2A004800E0C28DFD106230021F820FAF7E2F906230021F820029AFAF7DCF9A86BCCE7FFFF0000C0103C400248006860
:40B740004005C00F70470000001F3C400148C06870470000402200080248806A8006800E7047000000543D40084910B58000084B4218D9687C2489B2A1430843D8600548EE
:40B78000101800688006800E10BD00003044010040123C4000103C400148406880B27047001A3C4010B5054B1A8A9C8A5443444398684A432018801810BD00004022000848
:40B7C00070B50B4908630B49D024444325460B6AFF2285355A5523460D6A8433EA54096A002286340A550123114601F04FFD70BD80103C40AC21000870B50B4AD0214143F4
:40B800000D46146AFF23853563550C46156A84342B55126A00238631535400220123114601F034FD70BD0000AC21000870B50B4AD02141430D46146AFF23853563550C4636
:40B84000156A84342B55126A00238631535402F0C9F90349C98D02F081F870BDAC210008FC1E000870B50D460B490978814201D8002404E00949D022096A50430C18F6F7E3
:40B88000DDFFC0342068C48BF6F7C2FF02222946204600F005F870BD1C1F0008AC21000810B50023884201D8081A03E00024E443201A4018044980B2884201D8824200D9DC
:40B8C0000123184610BD0000FF7F0000024840680006C00F70470000C0103C4070B55478157824022543D47888232602947834435679127936023243002900D098230449FB
:40B90000086303488038181805604460826070BD80103C40FFB581B015460E4607460A9CFFF740FF002C0AD022460B9B049902F027F90549B0004018C55505B0F0BD0B9A4F
:40B94000049902F003F9F4E715220008F8B59C469308394D002403E0A600AF598751641C9C42F9D39207920F4B1C002A06D0012A15D0022A27D0032A39D13EE01D7809787C
:40B980002A465D782D022A439D78DB782D042A431B061A4312020A43A100425027E0A600AD590C78CB7822464C781B06240222438C78240422431A431202EBB21A4382516D
:40B9C000C978301812E0A200AB584C780D7824062D042C431D042D0E2D022C43DBB21C438450CB788C7819022143101841606046012801D1FFF7EEFCF8BDA4002A590978ED
:40BA000015022D0E09062D04294315042D0E2D022943D2B2114301511A461B78194653781B0219439378D2781B041943120611430902090A2018D9E750F13D4070B50C4DCB
:40BA40002A785407640F012C08D0022C06D0032C01D0042C01D100F00FF870BD02460B46044CA888082121620021FAF7C3F870BD4022000880143C40F0B52B4A08232A4E31
:40BA8000503A5363546B9C435463820703D000238F08BF001DE08C08002203E09300C558F550521CA242F9D3A30014E0C218521C144625782A4665782D022A43A578E4783B
:40BAC0002D042A4324062243C45C12022243F2501B1D9F42EAD88A0724D089070022890F012904D0022904D0032917D107E0C25C14E0C018417800780A0202430EE0C0186A
:40BB000001460A7810464A78120210438A78C97812041043090608430202120A0248103818180261F0BD000050F13D4070B51A4909784907490F012921D002291FD00329F5
:40BB400001D004291AD10446FFF75CFC134D00216018401C02461378184653781B0218439378D2781B04184312061043625C000210434A191061091D1029E9D370BD2125CC
:40BB800004466D01FFF73EFC1023224600212846FAF730F870BD00004022000800F13D40154909784907490F012918D0022916D0032901D0042911D1411C0A4613780078EF
:40BBC000194653781B0219439378D2781B0419431206114309020143084801627047417802780902064B0A439A63C178807809020843D863704700004022000800F13D4083
:40BC000040143C4008B5094A127D4243521812020A4380210A4369460A8001F0EFFF69460988034A8018016008BD00004022000800103C40FEB504460026684606808680A1
:40BC400006810125A078FBF7BFFD0746A078FFF7C5FC0743A078FFF787FD0743A07802AB01AA694600F020FA3146264660363177002F55D12079092852D0684680880028A6
:40BC80004ED0204602F042F9002849D0684681882046C030002909D00168CA79022A05D0CA7AD30902D05206520ECA720068817A002905D0C17AC90902D1217E890600D5AC
:40BCC0000025214640318A79012A06D04979022903D0BC21095D02290CD1718BC08BFFF7DBFB69468988C91C884202D30D49884200D9002568468088002811D0012D0FD1F6
:40BD00000421204600F0B6FD01203077684681880422204600F0D0FD208B082188432083FEBD0000FF7F0000F8B5044680782521C001C902401839494018406986B2F6F7D1
:40BD40007DFDFFF7C3FD002864D0207E000761D420466030017F01295CD146210B5D00252146C0312A46012B07D1438B0868C08B834251D0401C83424ED0294803689BB2F9
:40BD800000938368FFF7CEFB5F06264B03D5009D2D1AED18ADB20F687988814201D2401A05E0814209D93F888F4206D2081AC01882B21D48824200D900221B48854229D871
:40BDC000D00700D0521C50083146F7F743F907464800301A4004010C0A2901D9012300E00223581C704340000A30A84212D81021204600F03FFDF81881B21022204600F0CC
:40BE00005BFD204600F094FC00F024FC208B082108432083F6F7FCFCF8BD000000103C4000503D4000000100FF7F0000FF2806D0034B196A012289B282409143196270478C
:40BE4000801F3C4030B513490A680146C0310B689A80037902464032022B13D00B6800241B88958B6D00EB181B190C689BB223809279012A05D16030408809680001181881
:40BE8000888330BD044B5B6A93830B6803249B88E7E7000080503D4040123C40F0B585B0002704460546C03403972068252201880291A978D202C90189182E4640360191CF
:40BEC000B17901297ED044494A68828088682168802208822068022781880291C17A1143C17203F023FDF28B6979FCF717FC0146284660300090C18203F018FDB18BC919F5
:40BF00008AB26979FCF70AFCB179344A012921685FD00B8AD31A1B18D833CB8103992F4B0918F07E5843081821688881B08B410002980818C01987B22068591E078020680C
:40BF40000290C089884210D9491CF7F783F80299381A088027682149F889F7F77BF8F9812068022901D20221C181B07901282BD100992068498802880901511881830098D7
:40BF80000321C08A09030005000D8843A035297D8907C90F09030143687D8007C00F42030A430F4901984018C26221688989C16320680B49028A0198403140184260216809
:40BFC000C98900E002E0C16005B0F0BD8089039087E7CB891B18A0E780503D407102000000103C40F8B52F4DAA6AEB6B92B29CB28378E606F60EB34214D12A4E034689070B
:40C000004036C03300290EDA002160300177186801884180F06819680880A00602D41968A009C881F8BD1968CC8B641CCC83696A1C68A183E96A1C685704A18011061C687E
:40C04000890FE17191041C68890EA1711968FF0FCC7AD20B3C43CC7219688A728321095C002910D11968002A07D10A884A80F1681A681180696B1A68D181296B1A68118279
:40C08000A96B1A68918119688A7A002A06D000224A830022042100F0C5FCF8BD4A8B521CF6E7000000503D4010B52524C001E4020019044C001944690C8081691180C069B6
:40C0C000188010BD00103C402522C001D2028018024A8018406908807047000000103C403EB5044600F074FD684606F0F1F9684600780022022836D2684681781B48037858
:40C100001B48994201D3002103E0D025036A6943591821604078430706D4800707D514482030007E800702D060318A8015E00A4660326846D388808883420DD983235B5C9C
:40C14000002B07D1C0310968C9890C2902D8012800D9401E908000E093800298002801D000F0FEFC3EBD22603EBD00001C1F0008AC21000802488068C006C00E704700000C
:40C1800000503D4008B5034680786946FFF79CFFFFF7C8F9C0331968801C0988401A01210904401880B24910884207D2694609884900F6F74FFF401CC0B208BD012008BDD0
:40C1C0002522C001D2028018024A8018806908807047000000103C40F8B5064604464034A079354637466035C03701282AD13868698BC08BFFF750F93049884205D2032858
:40C2000003D24021304600F023FBA079012819D13968688BC98B884214D18320805D0028304613D0FFF70EFE2021304600F010FB304600F043F9304600F0D4FAE08A8221E9
:40C240000843E0826079022815D020E0FFF726FE4021304600F0FCFAF6F70AFB0328E7D12888002803D0E18B414388B200E0E08BFAF79EF9DCE73968688BC98B884206D189
:40C28000304600F005F9E08A04210843E082BC20805D022811D13968688BC98B88420CD107480068416A304688471021304600F0CFFA208B012108432083F8BDFFFF000015
:40C2C00038020008F3B506460446C036306881B0818B0088FFF7E0F821792546204F4035032919D91921C902884215D9FFF71AF93168898BFFF742F9717900290CD10028DA
:40C3000020D081004018C2082046A178154B7E30F9F7F8FE012070718320005D00281DD1207903281AD90E4B0299703330685943AF238289DB00C91A8A420FD9A9790129C2
:40C3400009D103E0E88A3843E882E3E76034C08B618B884202D0E88A3843E882FEBD0000010200006DA20010F8B582782523D201DB02D51876220446125AC03420684A4361
:40C38000C1898918C181206881898918818126682721F0890901884211D94F1C3946F6F759FE3188081A308026683946F089F6F751FEF1812068022901D20221C1812068AE
:40C3C000024980896918C863F8BD000000103C402521C001C90242180D4800211018016041608160C160016141618161C161016241628162C162016341638163C1630448BE
:40C4000040301018016041608160C1607047000000103C40F8B50446FFF70CF88320A178005D06F04FF91649086882B28868254680B246060023C035002E1CDAC006A478DB
:40C44000C00EA04217D1FFF76DF8101A01221204801880B201280ED90124CC60C8688007FCD56846FFF73CFE0098002801D000F015F92C7100E02B71FEF7F8FFF8BD00008C
:40C4800000503D4010B500F0A3FB06F083F910BD81782522C901D20289186030064A038A89180B62428A4A628A6A808A92B2120A120210438862704700103C408178252279
:40C4C000C901D20289185E22135A074A89184B610246603213888B615288CA61C0300068808B48637047000000103C4081782522C901D20289180A4A8918CA6A032392B2A9
:40C500001B039A43A030837DC07D9B07DB0F1B038007C00F134340031843C8627047000000103C40F0B581782522C901D2028B1801466031244A0C899A1814604C895460E2
:40C540008C89946004464034E67ECD8936023543D560E48B54610C8894614C88D4610C8A14624C8A54620D7E46792D028C8A760335432543ACB294628324134E245C4036CD
:40C580000025C030002C0CD0D56200689B19808818600E4B0A2018628888106355639563F0BDCC8A03272405240D3F03BC43D4620468A489D4630468278A9C196760076885
:40C5C000FF89E760E1E7000000103C4000543D4030B581782522C901D2028C181C4962181368014660310B8153684B8193688B81D368DDB2CD811D0A03464033DD761569C8
:40C600009D835569DD8393699BB20B80D5694D80156A0D82556A4D82926A92B2D5B28D82D504ED0E520B0D764271002B01D000220A770749403161180A68C03003689A8044
:40C640004A6803681A82C9680068C18130BD000000103C4008B510490122086883B2886840060FD5FEF75EFF181A01231B04C01880B201280ED90120C860C8688007FCD503
:40C68000002A07D06846FFF72BFD0098002801D000F004F808BD000000503D4070B581782522C901D2028B18144A9168490604D50121D160D1688907FCD50146C0310C4602
:40C6C00009680988116064210D4D095A5B191963014680310B46C97800290CD000215160DB7881785B014024234319439160807806F0B8F870BD2168C989F0E700503D402B
:40C7000000103C40044A1168FF23F13389B29943000101431160704740503D4003490869012280B21203104308617047001E3C40FEB5044680786946254648708035E878BF
:40C740000870062027468870C03738680088088102A9684606F0A2F8002838D10520694688701E480126807A800603D5286B017E807A01E01B210846EA78002A00D1022647
:40C780002246A032137D012B22D089003C313B68527D9C890919012A1DD080003C30FF302D300F4F08183946F6F754FC801985B26846858060003946F6F74CFC401CA8423B
:40C7C00001D96946888001A9684606F067F8FEBDC9007031DBE7C0007030E0E7FC1E0008710200001CB581786A4651708321095C1170042191704030C08B908001A968464A
:40C8000006F04CF81CBD10B586B081786C466175014680310A46C97821750821A17500212181A1725E231B5AA3810223E381D278A274012222700191C02109580988218275
:40C8400080786075214605A806F028F806B010BD10B5807806F00EF810BD0000FF2806D0034B196A012282400A4390B218627047801F3C40C030026810290ED09179D1825C
:40C8800001680A884A800168CA8B0A830168CA894A820068818981827047518AD18101688A8A8A8101684A880A8001688A7D8A710068018BC1837047F7B5064680780D469D
:40C8C000252288B0C101D2028918039106AB05AA01A9FFF7E9FB3446C034374620686037798BC08BFEF7D8FD03462068798BC08B401980B2FEF7D0FD01460A98082828D168
:40C90000304640308279012A23D1444A914220D993421ED2002B1CD02268B97E927F891AC9B20091C08B029068466A1A8088049050430299F6F778FC00994018401C85B282
:40C9400002984200681A4243049840004843101803E0684680884000684321680A8810180880206800908179387E684308182521F6F770FB009881710A98082809D0206808
:40C98000C18B4919C1838036F078254E00280DD033E03079032803D12068418B491941832A460821304600F03DF8ECE72168F88ACA8968431218CA8121688A891018888168
:40C9C00025682721E8890901884211D94F1C3946F6F740FB2988081A288025683946E889F6F738FBE9812068022901D20221C1812068818903988019C1632068C17980790F
:40CA00008A07D20FC9079200090F1143000208430399891988630BB0F0BD0000FF7F000000103C40FEB50F460446002069460880888016460881A07801AB02AAFFF734FBA3
:40CA4000254620460123C03540302179042F02D003294AD053E0092902D0032908D030E0217EC9062DD4C18A01221943920226E029688A7A012A1AD18A8B002A10D1A27874
:40CA80002526D201F6029619264A926862273F5B3F01BA1892B28A832249C03971184A63C18A02221143C1822179032909D12968498B062905D3C18AFF22194301321143C6
:40CAC000C1822046FFF788FB684601882046FFF7F9FB8320005D002806D168460089002802D02046FFF7A6F8FEBD2968498B062905D3C18AFF22194301321143C182002783
:40CB000008E02868C18B491CC1832046FFF764FB7F1CBFB2B742F4D3684601882046FFF7D1FBFEBDC0103C40F1B50B4F0025386A84B20A48406986B202E0A01984B2012574
:40CB4000012221460098FEF7ABFE0128F5D0002D00D03C62F8BD000040123C40C0133C40F8B5002405F006FD0546174E174F27E0E80722D03078A04201D8002003E0D0207D
:40CB8000396A60430818FFF7FDFA01463078A04201D8002003E0D0203A6A604310180822FFF78AFE3078A04201D8002003E0D020396A60430818FFF7BBFD6D08641CE4B279
:40CBC000002DD5D1F8BD00001C1F0008AC210008FEB5684605F0FCFC68460078002830D00024184D184E29E0C00722D02878A04201D8002003E0D020316A60430818FFF7A6
:40CC0000C1FA01462878A04201D8002003E0D020326A604310180822FFF74EFE2878A04201D8002003E0D020316A60430818FFF77FFD01984008641CE4B20190019800286A
:40CC4000D2D1FEBD1C1F0008AC21000810B50C4600F0C8FF06494018016889B20A091201FF21224301310A43C9008A43026010BD00103C4070B526490446097800204907DB
:40CC8000490F4025034601290FD002290DD0032901D0042924D100201E4E0146012C24D0032C1ED0052C25D122E000211A4E0A46012C08D0032C02D0052C09D106E0B5601F
:40CCC00002210A2204E004210C2201E004210D223461306AC0B204460C42FAD03262336170BDB56202200A2104E004200C2101E004200D21F462726B14460442FBD07163E3
:40CD0000706B082188437063F362D0B270BD00004022000800F13D4080143C40F8B505460D48164600780F46A84201D8002404E00A48016AD02068430C187F20005DF9F7BC
:40CD400059FABA1B0A2042432046054B29467F30F9F7D8F9F8BD00001C1F0008AC21000871A70010044A106303488030816102494B2080390860704780103C40024610B50D
:40CD80000B460F2000218001F8F734FF10BD000013B50C46002269460F20F8F7ADFF69460978E0030843034980B208630249472008601CBD40113C4000103C407FB50E4692
:40CDC00004461D46002202A90E20F8F795FF1048F10100780F4A4007400F03280BD0042809D0A00208436946097A084380B21063A009906307E0E80301436846007A01431F
:40CE000088B2106394630449462008607FBD00004022000840113C4000103C40017E012901D9012101764279C9B253000B430179CA001A4310210A4303498A6002880A60F8
:40CE4000408848607047000040103C4006490978814201D8002004E00449D022096A504308186030438370471C1F0008AC2100080349884200D908460249486270470000DC
:40CE8000FF0F000040113C400148806B80B27047C0103C402521C001C902401807494118086A1070000A5070486A9070000AD070886AC0B21071000A5071704700103C40B0
:40CEC00070B50E4D14462A785207520F012A09D0022A07D0032A01D0042A02D1224600F00FF870BD02460B46E8880021F8F76AFE012CF6D1FEF76EFA70BD00004022000801
:40CF0000F8B594461B4F820705D01A4F0023103F8E08B60015E08C08002303E09D007E5946515B1CA342F9D3A3000CE0DA191469C454240AC5186C70240A220AAC70EA70EB
:40CF40001B1D9E42F2D88A070DD00A4A103A9A18146900228907890F03E09D184455240A521C9142F9D86046012801D1FEF732FAF8BD000050F13D4010B5114909784907B4
:40CF8000490F01290FD002290DD0032901D0042908D10C49496A0170090A4170090A8170090AC17010BD084A11680170090A417051688170090AC170FEF70CFA10BD0000FD
:40CFC0004022000800F13D4080143C400148806B80B27047C0103C4010B50A49F1240A681421414393681331595C24018B001B19102906D251682C225043085A02495918E7
:40D00000086010BD0402000800103C400121814010B589B200227C2000F082FD10BD0000FEB5FF210120FDF7EBFF3F210220FDF7E7FF1F210420FDF7E3FFFF210820FDF7A0
:40D04000DFFF3020FDF7FEFF7D48802101607D4C20784007400F032801D0042803D10BF05FFD0BF043FC7748774E00784007400F022806D0032804D0042802D0012807D0B7
:40D080000BE003213160032805D0042803D004E00020306001E00BF053FC002211460320F8F72AFE69486A49028D4A61428D8A61828DCA610546624F00242035803709E0B8
:40D0C0003C636248818E624801632046FEF7AEFB641CE4B22878A042F2D85D480621C03881635A4C5A48218F816320460C30029000F0B0F9062268460299F7F79CFC69466D
:40D100004879C021084369464871684600F0DAF900F0B0F8FFF702FB4A4800784007400F032829D0042827D0E08FB8634748444940304088C0314860E08D0121C90308439A
:40D140004349086243490120086141498031C8683F2280B212029043072212021043C8603F20FDF77BFF374C20784007400F022804D0012802D008E04820D6E7FEF742F952
:40D18000354907208861FEF725F9E020FEF78EF8E820FEF78BF8F020FEF788F80020FBF7B3FA2C490020486110228A618915F96227494031C86022485B210160207840070C
:40D1C000400F032801D0042801D10BF0B9FB20784007400F022806D0032804D0042802D001280AD00BE01D4830601D490869012280B252031043086101E01A4830601448BD
:40D20000C038416B0122114389B24163816B114389B2816314494015086014482978006805F014FA06F022FB00231846FFF7D0F85B1CDBB2042BF8D30D4900204870FEBDDA
:40D2400000103C4040220008001F3C40FC1E0008C0113C40001A3C4080143C4003200000001E3C40E023000040503D4000020008EC21000804480021C163816302497420C8
:40D28000403908607047000040103C4070B51E4614460D4600F0A6FC0C49411808680122D20280B2012E09D0904300090001FF22284301329043002C04D005E01043044AFE
:40D2C0001040F2E710221043086070BD00103C40FFF90000F3B5254A84B0926900924A780B78120213430393CA788B78120213434A790979FF20120211438C461C499E46B4
:40D30000CA6B92B20292896B742289B20191184940390A60174900220F7F24E00121144B9140009C403BE3181C6889B2A5B21C681B68A4B2039E9BB26E40754665406446B4
:40D340002E435C4026430CD1029B194209D00199D140CB070499DB0F8B4202D1104606B0F0BD521CD2B29742D8D8F8E74022000840103C401C1F000830B50A49FF20C96BCE
:40D38000094A8CB200210125137F05E02A468A40224204D0491CC9B28B42F7D830BD084630BD000040103C401C1F000810B50446E020FDF77BFF20782246401CC3B200218A
:40D3C000E020F8F7AFFB10BD42790021012A02D901214171090342790A430179042914D049001143827B032A01D8D2001143427B52010A438179090211430122520311432A
:40D40000054A91610088D061704711460122920211430222E5E7000000103C4000B50120FDF710FE01494120086000BD00103C4000B50120FDF712FE01494020086000BD80
:40D4400000103C40024A106301488030C160704780103C404178027809020A4306490A60C2788378120213434B604279007912021043886070470000C0113C4042781302A0
:40D4800002781A4301290CD00C498A62C278837812021343CB6242790079120210430863704707490A63C2788378120213434B6342790079120210438863704740103C40B2
:40D4C00000123C404178027809020A4306498A61C278837812021343CB61427900791202104308627047000040103C404178027809020A4306494A60C27883781202134363
:40D500008B604279007912021043C86070470000001F3C40F0B50021FF2501350E4E0F4C15E0F1238A001B01D21893191A6892B2D7070AD0520852001A60884201D12A4322
:40D5400000E0AA4301273A431A60491CC9B2E27A8A42E6D8F0BD000000103C40CC21000810B500222021302000F0DAFA05494320086001F00BFDC007FBD10220FDF762FD75
:40D5800010BD000000103C4030B591B0054640216846FDF79EFF0A4C0849A1630220FDF75DFD6A782021302000F0BAFA4220206001F0ECFCC007FBD011B030BDFFFF0000D6
:40D5C00000103C4001794279490011438279D2000A43FF2101310A4303490A6302888A624088C8627047000000103C4010B50446E820FDF75BFE20782246401CC3B200215A
:40D60000E820F8F78FFA10BD4178027809020A430749CA63C17882780902054B0A4340331A60417900790902084358607047000000123C40024A1063014880304160704737
:40D6400080103C40094810B581420DD8C8000521F5F700FD064989680818064980B2486003497220C039086010BD0000409C0000C0103C40001A3C4010B5074948200860D1
:40D68000064C206B4006FCD4002211461020F8F733FB606B80B210BD00103C4040113C400349732008600349042048637047000000103C4000113C4010B500F093FA0121F8
:40D6C000490200F04BF910BD10B500F08BFA0121890200F043F910BDF0B515460F4604461E46FF2A04D000222946184600F0D6F86078237800020343E078A17800020143DF
:40D7000060792279000202430C207043C419084827183B60241D23181960241D20180260FF2D04D001222946304600F0B7F8F0BD00103C40012808D8044A916901235B02C6
:40D7400099434002084380B29061704700103C40084A106348780B78000203439360C8788B7800020343D36048790979000201431161704780103C40F8B51C4615460E465D
:40D78000074600F041FAA900044A2143801801600349B0004018C455F8BD000000103C40292200080149C86070470000C0103C40044A916B8905890D8002084380B29063C7
:40D7C0007047000080103C4010B50E490B68142141439A681331515CF122890012018918094A89180A6892B2D40709D0520852000A605A682C235843105A01221043086073
:40D8000010BD00000402000800103C4038B5174B1B78834201D8002304E0154BD0241B6A60431B182024012906D0022904D0002A05D0002903D005E0188B204301E0188B9E
:40D84000A0431883187E80060ED58320C05C00280AD198786946FEF7B3FC68460088002802D01846FEF760FA38BD00001C1F0008AC21000810B50C4600F0B4F906494018C1
:40D8800001688AB240218A43A10111430122D2029143016010BD000000103C40F12380001B01C018054BC3181868002A80B201D0084300E0884318607047000000103C4009
:40D8C00070470000F0B5174B8C07C318002C03D000209508AD0014E09408002003E01D6886008D51401CA042F9D3A0000BE01C680C54240A0E187470240AB470240AF47082
:40D90000001D8542F3D894070AD01C6800239207920F03E0C5184C55240A5B1C9A42F9D8F0BD000000103C40134610B50A4A12785207520F012A09D0022A07D0032A01D03B
:40D94000042A02D11A46FFF7BDFF10BD0A460021F8F7CAF810BD000040220008034A8018026892B20A4302607047000000103C40F0B5264BC518880703D000239708BF0013
:40D980001DE09408002003E08300CE58EE50401CA042F9D3A30014E0C818401C044626783046667836023043A678E4783604304324062043CC5C00022043E8501B1D9F428E
:40D9C000EAD8900721D092070020920F012A04D0022A04D0032A17D107E0C85C14E0C81841780278080210430EE0C81801460A7810464A78120210438A78C978120410433E
:40DA0000090608430002000AE850F0BD00103C40F0B5424C00198C0704D000249D08AD00AC461DE09D08002403E0A6008F598751641CAC42F9D3AC0014E00D196D1C2E46E8
:40DA400037783D4677783F023D43B778F6783F043D43360635430E5D2D0235430551241DA445EAD89B079B0F551C002B22D0012B31D0022B40D0032B1BD112780B5D1206F4
:40DA8000134309198A784978120409020A43134303512B78EA7819466B7812061B021943AB781B04194311430902090A0019401C0160F0BD2B462D78127829465D782D0295
:40DAC00029439D78DB782D0429431B061943090211430151F0BD1678D578334656782D06360233439678095D360433432B431B020B430351D178D9E755780B5D2D062B43A7
:40DB00001578091949782D0409020D432B430351D178927809021143C8E7000000103C4070B5094BC5182868002384B2080003D104E040085B1C9BB2C607FAD08C439A40EF
:40DB4000224390B2286070BD00103C40134610B50A4A12785207520F012A09D0022A07D0032A01D0042A02D11A46FFF701FF10BD0A460021F8F73EF810BD00004022000811
:40DB800038B514460C4A12785207520F012A0BD0022A09D0032A01D0042A04D11B1F9BB22246FFF735FF38BD00930A4623460021F8F73AF838BD000040220008034A8000B0
:40DBC0008018405C8007800F704700002922000800B500F00DF802494018006880B200BD00103C40014900014018704708420100014900014018704704420100A121000198
:40DC00004902401870470000034A928A4243501802498000401870474022000800410100054B02469B8AFF208B4203D9880003494018805C704700004022000815220008C1
:40DC400000B5FFF7DBFF02494018006880B200BD00103C40F0B5304902460B680020002B14D10A6052070D26520F0024B601012A0DD0092503276D02FF020423022A1BD050
:40DC8000032A2FD0042A2DD012200C60F0BD112292018A80CA80032252028A600122D202CA6040220A8205224A828A82CC610C624C628E618C62F0BD8D80CD800122520392
:40DCC000CF608A6012110A824B828B82D2008E61CA61832252010A62432292014A628922520116E08D80CD800522D202CF608A60FF2201320A824B8229228B82D2028A6168
:40DD0000064ACA61054AC0320A62054A4A62044AC0328A62F0BD000040220008C0480100404A010010B503460C460846FFF788FF02462046FFF74CFF012199400A40014049
:40DD40000A4301D0002010BD012010BD0A4600B501461046FFF764FF00BD000070B51048002501680F480818846AFF2102310C4202D0F7F7EDFF0EE0406B400F022801D151
:40DD8000A00608D5FAF70AF907480069012180B201F072FA054620460AF002FB284670BD9801000840F03D4000103C40F8B50446002000900E461546A178684609F09EFDB5
:40DDC000002801D00720F8BD2B4632462046009900F0A8FEF8BD38B50546002000900C46A978684609F08AFD002804D1009928464C7000F0F2FE38BDF8B5044600206A4636
:40DE0000107005460846FBF7FFFA060004D0012806D0162E3AD10DE001236A46002102E001236A4619462046FCF7CBFB0546012804D02BE001236A461621F4E78320005D67
:40DE4000012811D1CD20005DC0070DD068460078C1090DD1C00701D0232200E02A2231462046FFF7A3FF11E068460078C0090DD068460078C10720464030002901D023219E
:40DE800000E02A2181762046FBF73AFB2846F8BD10B582790A4201D0FAF752FA10BD10B5044680780021FFF7CDFA01212046FDF759F810BD8030C368002B0AD00B60817AE4
:40DEC00011700169C160C17A81720021016108467047014870470000FFFF00008030C368002B04D00369002B04D004487047C160827201E00161C27200207047FFFF0000B9
:40DF000000218030C1600161704700008030C068002801D00020704700487047FFFF000070B505468035E8680024002806D0FBF76BFA002801D0012800D101242869002872
:40DF400006D0FBF761FA002801D0012800D10124204670BD70B50446C0790E461546C1090AD04006400EE07101F0CAFC067021894180856006F005FB70BD70B50446C079AB
:40DF80000D46810601D43A2D13D13A2D02D0DF210840E07101F0B4FC0570218941805E21095B818060342188C1806188018106F0DFF970BD38B54621095C0446803400296C
:40DFC00010D1A16A00290DD18178684609F0A8FC002807D100980021A062C181A06A4185A06A4180A06A38BD01480078704700008C22000810B50446FCF788FA01280AD19D
:40E000000648A178026AD02048438430105CF9F7A3FF012801D000F0F3FC10BDAC21000870B50C460546F9F733FC012838D02879032803D0042801D0072830D1E079A6790F
:40E0400000020643A8783146FDF70CFC01282DD0284660304683A17809020182627811430182217909024182E27811434182617981823246611C284600F09DFB022128464B
:40E08000FAF7A0FD2846C030417B822211434173287E0221C207D20FA878FFF7B7FB70BD01222421284600F04AFD70BD28215A2041552846FBF724FA70BD704770B50C4638
:40E0C0000546FAF7C7FC00284FD120212846FAF737F9F4F7B3FB284661784030C176E17809028183A278114381836179C38B0A022179114320228B4203D0EB791343EB718E
:40E10000C183E1792E460B02A1796036194333888B4203D0EB791343EB713180617A0B02217A1943738843828B4203D0EB791343EB717180C18B70888000F4F78BFF401EB5
:40E14000318880B2814200D9308001212846FAF73CFDC035687B822108436873E07AA17A000201437183F4F753FB70BD70470000F8B50D4606460027F9F78AFB012845D01B
:40E18000264CA07AC00707D04420805D002806D0102803D01F212CE01A212AE001273046FBF742FB002823D0344680340822691CE06AF6F740FCE06A697A20300172A97A0F
:40E1C0004172E06A2946183008220B31F6F733FC29463046042213313830F6F72CFC39463046FBF70BF8002810D1002F0FD012E007210322304600F0A2FC628A082130464E
:40E20000FAF77EF811213046FAF7E2FCF8BD06213046FAF7EEFC01202070F8BDFC1E0008704770B50446403000790D46022813D126468036F06A08222030691CF6F7FBFB7D
:40E2400029462046042209313C30F6F7F4FB2046FAF780FF0120307070BD10B5FBF710F810BD70B50E4605462021FAF769F82C468034A06A002804D0A97809F0D1FB002048
:40E28000A06231462846FFF778FE00212846FAF79CFC2846FAF719FD002070BD38B504460020009020790D46032803D0042801D007281CD12046F9F7EBFA012818D0A178E2
:40E2C000684609F01BFB002811D10C486A78807A00991040F5221040A075E07E08221043E076204600F05CFB2046FAF7EEFC38BD08222421204600F022FC38BDFC1E0008B4
:40E300007047000070B50D4604460221FAF718F82046F9F7BDFA012805D009222421204600F00DFC70BD0C486978807A6A1C0840F5210840A075E07E08210843E076E07948
:40E34000EF210840E07100212046FFF703FE2046FAF7BBFC70BD0000FC1E000870470000F3B581B004460298FBF74EF805462046FCF7C1F800287DD0192D04D3204602997D
:40E3800000F0ABF976E0264640363079002700900300FCF707FE0E1C1C1C08081C1C1C0808080808081C0298354A01780020135C8B4201D1012702E0401C0728F7D3832062
:40E3C000005D002801D1072901D0002F03D00098022816D02EE0A078FFF76EF9002301223D212046FAF7DEFD3D20B0762046FFF756FDA178029809F0E9FA2046FBF7E6F8CB
:40E40000FEBDFFF7F1FD002814D1042D12D00D2D10D0112D0ED0152D0CD0072D0AD0092D08D0202217480299F6F705FB012000F003FC1FE020460299FFF7DEFC012819D092
:40E44000A8000F4D029908352A5820469047A178029809F0BBFAFFF7C7FD0228D0D109480849007880002A5820469047002000F0E3FBFEBDA178029809F0A8FAFEBD000010
:40E48000D84C00106C22000870B50D4611490978814201D8002404E00F49D022096A50430C18002C15D0204600218030C1718079032802D12046FCF7EBFB2046FFF79AFD84
:40E4C000192D04D20549A800095820468847FCF735FA70BD1C1F0008AC210008444D001010B50446403000790E2805D12046FAF70DFF01208034207010BD10B50446F9F7D4
:40E50000C7F9012802D100204034207010BD10B5044640300179062905D00F2902D12046FAF719FF10BD2046FAF726FE01208034207010BD70B50446054640342079072847
:40E5400005D12846FBF7CEFF2846FAF70FFE20790F2801D10020607070BD000038B5044600220E4800920D46807AF5210840C0060FD52046FBF7D0FF01280AD0A1786846E6
:40E5800009F0BCF9002803D12046009900F0B4FA38BD2946204600F0A0F838BDFC1E000810B504461021F9F7CBFE2046FAF7C4FB10BD000070B5054610480C46807A400774
:40E5C00004D409782846FFF706FC70BD6078032803D1A1782846FAF73BFD6078122803D110212846F9F7ACFE60781628EDD10448A1780068C2682846904770BDFC1E00082A
:40E600003802000810B5FAF7AFFE10BD10B54978FAF71EFD10BD10B5FAF7A6FE10BD10B54421095C032901D1FAF7C6FD10BD012140304170704710B54421095C042904D04A
:40E640000C2901D1FAF7A6FE10BDFAF7D3FD10BD10B50446F9F71CF9014620464030012900D1417000790D2802D12046FAF78DFE10BD70B502790D460446052A03D0062A27
:40E6800001D0082A01D1FAF7F5FC68785A21085509212046FAF7ADFAFCF7CCFE80212046FEF7D6F8FCF7E2FEA078FFF70DF82046FCF73EFC70BD10B50446FF21F9F740FE39
:40E6C00016215A2001552046FAF780FFA078FEF7F3FF2046FCF72CFC10BD70B50C460546FBF714FF002802D02078E87570BD21782846FFF770FB70BD70B5054648780C46F6
:40E70000032802D12846FAF7C1FC6078122806D110212846F9F714FE2846FAF70DFB0748214600684268284690476078162804D10348006881682846884770BD2C0200089A
:40E7400038020008704770B50D4604460421F9F7F7FD6878A076E8780002E081A9780843E081687900022082297908432082E07E04210843E076800704D4204600F03AFA2E
:40E78000072815D0E079410612D5BF210840E07101F0B6F80021017021894180E1898180A17E4170218AC18005F018FFFCF7C6F870BD7047704770B50446C07815460A46D8
:40E7C00000280AD00020E070C1B2A078FDF786F8A0782946FEF7C6FA70BD0120F3E70000F8B5064601200C46087005221949601CF6F721F9B078FCF77BFE0546B0786946A0
:40E80000FDF7DEFC684600880A214843114942191039887B002802D0401E4300C018101835460C30603568834A7C0B7C12021A432A82CA7C8B7C12021A436A82097DA98286
:40E84000A071000AE071082231462046FCF7B4FAF8BD0000BC2100087CB505468030866A0C46A878FCF744FE014628465C30009001AB3246284600F031FAA878FCF738FE60
:40E8800069468988FCF708FE694628468988603041830021217029464031CA7E62700A7FA2708A8B120AE2708A7F2271C98B0C22090A61710178A1710188090AE1718178DE
:40E8C000217240886946000A60728888A072000AE07229462046FCF76FFA7CBD70B5054603200C4608702E4680360822601CF16AF6F7A1F8F06A08222030017A6172407A60
:40E90000A072F16A204618310B30F6F794F829462046042238311330F6F78DF8172229462046FCF749FA002070BD70B50546042008700C46AC20415908222031601CF6F7B5
:40E940007AF82946204604223C310930F6F773F80D2229462046FCF72FFA002070BD000070B505460C46C07910210843E8710820207002460021601CF6F766F80748F522A1
:40E98000817A11406170C07A0922C007C00FA07029462046FCF710FA002070BDFC1E000870B5054609200C46087008220021601CF6F74AF8A87D607005480922C07A29467F
:40E9C000C007C00FA0702046FCF7F6F9002070BDFC1E00080B4610B501460A20187001221846FCF7E9F9002010BD0B4610B501460B20187001221846FCF7DEF9002010BD20
:40EA0000FEB50020694608720546334F60E03348016AD02068430E183046FFF777FA002854D18720805D002850D101AA69463046FFF740FA002849D100980478002C09D0D4
:40EA4000012C16D00C2C23D0092C21D069460A79314629E0012302AA00213046FBF7B1FD012804D030460099FFF7F6FE2EE00C221FE0012302AA19463046FBF7A2FD0128E9
:40EA800004D030460099FFF7ABFE1FE0082210E0012302AA21463046FBF74CFD00286846027906D131460098FCF786F9022C05D00CE031460098FAF7C3F907E0B07801214E
:40EAC000FEF7D8FE09213046FAF793F86D1CEDB23878A8429BD8FEBD1C1F0008AC21000810B50B46122119708178D977014601221846FCF761F910BD10B50B461321197057
:40EB00008178D9770649896AC90603D1018B402211430183014601221846FCF74DF910BD00113C4010B50C461121217062700146A37003222046FCF73FF9002010BD38B5F0
:40EB40000446002000900D46A178684608F0D6FE002801D0072038BD00980D210170457002222146FCF728F9002038BD0B4610B501460520187001221846FCF71DF900204C
:40EB800010BD0B4610B501460620187001221846FCF712F9002010BD38B5044600200090A178684608F0AAFE002801D01F2038BD009D022028705A20005D6870A078E87719
:40EBC000208B1021084320832046FFF768F9022221462846FCF7F0F838BD10B50B46072119708178D977014602221846FCF7E4F8002010BDF8B50546002000900D4EA9780C
:40EC00003488684608F07AFE002801D00720F8BD00980C210170717941708470210AC170F2880271110A417106222946FCF7C4F80020F8BDFC1E0008094A1178002906D032
:40EC4000012909D0022908D1002807D001E0012804D00021002900D0107070470121F9E78C22000800B500F016F800BD704770B50546FFF79FF9044602884188A87804F0D1
:40EC800099FCA084E0886082A08820826088E0812088A08170BD4018400870470246603000885E21895A401C4843C10800D101214008528A00E0401A8242FCD9704710B519
:40ECC0006021095A80780A01511A10318CB2FCF70FFC2146FCF74EFA10BD0000FFB581B0054604464035288A69460A9F08801E46A078FDF765FA694609880A20491C414333
:40ED00001048807B002802D0401E42008018081881B20298FCF72EFA3080A07804F038FC06468320005D012804D1E98BA078042204F0D6F9A078314604F070FD388005B03A
:40ED4000F0BD0000AC210008F8B515460E46074600F00EFA0446012804D02A463146384600F0B6F92046F8BD014600B50020890701D500F00BF900BD014600B5002089072B
:40ED800001D500F003F900BDF0B593B00020FF210391059007901290012612A92F2005F01CFD002804D000F0ABFD0446002600E0129CFEF769F881040507890E400608911C
:40EDC000C00F891F2D0F06900491202931D2062D2FD800F0DBF8C0072BD03E2020700220A0700120E07003210420624F062D2DD0022D2ED0042D2ED025715E4841794908CD
:40EE00004900417106986071A01D0621FCF761FBFCF794FC070006D0574A611D1268A01D126A904703900498012DC0B2029020D044E0002E02D0204605F0D6FC00F060FD3D
:40EE4000402102A8FCF745FB13B0F0BD02202071D3E72171D1E720717879C007CDD0002E02D0204605F0C0FC002600F049FD0446C3E70398FF280BD040482C22006841685C
:40EE800003985043095A4120884301D1012007903B48407E012804D10799002901D1012F02D0002F06D007E00120059020730D270B2006E00128F7D00020029020730D274C
:40EEC0000220A0700898062824D004982746C1B20D373846FCF7FDFA0598012817D12948006B03A9C007C00FFCF728FBA07C8009012806D13946062203A8F5F78DFD00287F
:40EF000005D10020203FF87702900220A07002980D30C7B2FEF75AF8694688806A4601A90620F6F7E9FE69460878E0557F1E16486770407801280BD12A46A01D069900F0F8
:40EF400017F9012811D02A46A01D069900F0C0F8002E04D02046059905F02CFC74E7054801224179114341716EE7204605F03CFC6AE70000AC2100081C0200080402000813
:40EF8000F021000800103C40CD2200080248806B0004000E7047000000103C4010B50446000701D5FFF7F0FEE00601D5FFF7ECFE0248006881692046884710BD1C020008FB
:40EFC00010B502460178FFF7E1FF814201D10C2010BD0D485378002443705470002908D000F06EF81046FEF7CFFA0420F9F728F907E01046FEF7B4FA0520F9F721F9034872
:40F000000476002010BD0000CD220008CC210008F8B50446FFF7BAFF002801D00C20F8BD6079164DFD2702260128E8781DD03840E87013480068416820468847A07901284C
:40F04000A87814D03840A8702046FEF7BBFA0B48218862882030914203D1017E0122114301762179012904D006E03043E0E73043E9E7017E314301760020F8BDAC21000893
:40F080001C02000838B5002001460090684608F01FFC002801D01F2038BD009C002161712171A1711021218020466180FEF78AFA204608F097FC00F003F8002038BD0000A2
:40F0C000024800210170072181707047CD220008F7B50C2082B0254D0F46002400902878E040C0072DD02148E10040380E18062230460299F5F790FC00280AD1B079B842A5
:40F1000007D1F079002801D0062802D1049804280BD02878E040C00713D0641CE4B2082CDDD300980C2803D00BE00420F07119E0A878401CC0B2A870082801D10020A87045
:40F14000C4B20A48E10040380E18062230460299F5F771FCB7710498F07128780121A14008432870002005B0F0BD0000CD220008F7B5164E00243546403529780120A040CC
:40F18000014217D0E0008719B9790198814211D1062238460099F5F73FFC00280AD1F879022810D004280ED001280CD0002807D0062805D0641CE4B2082CDED30020FEBD6A
:40F1C00002980428FAD00120FEBD00008D2200080148407870470000CD22000870B5064614460D46500702D5A8B2FAF715FE200702D5B0B2FAF7D0FBA00702D5280CFFF7CF
:40F20000CDFEE00702D0300CF9F708F970BD70B5044660C8F8F7A2FA2089C01F0300FBF7C1FE0C071A121E212412122712171312F3F71EFB032801D1F7F730F9294630465B
:40F240006289FFF7CBFF70BD284604F077FD70BDFAF738FB70BD2846F8F726FC70BDF8F72BFF70BDFAF754FB70BDFAF77BFB70BDE8B2FAF795FD70BDF3B5002189B005918D
:40F2800007910C4603910491009101910291FE4989688DB228400690A8061CD5FCF742F9FA4908800120F6F74DFEF94900200870F3F7A0FA012802D10020F6F7C7FD2020B4
:40F2C000FBF798FEF3F7D4FA032804D10420F7F729F901200390EF486907009028D5EA484030006986B2069840071CD5F00613D5E94900200A6A009909780BE0814201D854
:40F30000002702E0D0234343D7183B79022B2DD0401CC0B28142F1D8B00701D501200490B00880000590314600220420FBF748FE280777D5D948406B80B20190D24880304C
:40F34000806A87B2069800076DD5019804218843384369D0D248C06BC006C00E0290009801780298814211D8002615E03846FDF7D9F83846FCF766FD3846FDF744FA402141
:40F380003846FDF765FAFDF765F9C5E7C248D022016A029850430E18002F05D030464030C18A3C433943C18201988207BA4801463C31403007910090002A3FDA30790028CD
:40F3C00003D1C420805D002835D102213046FCF709FE3046FDF7ACF908A90298FCF7F0FEB078012103F0ACF9002817D1FDF74AF8002813D14620805D012807D1C0217A2089
:40F400008959805BC98B401E884207D08320805D00280AD16846008C002806D000980121017008E0AFE09BE097E00798FCF758FE0099002008700120F6F794FDF80659D589
:40F440003079002803D1C420805D00284DD104213046FCF7C7FDF3F70BFA03280CD1C0208059807A002810D18320805D00280CD101213046FCF778FFC0208059807A002879
:40F4800003D18320805D00280DD000980078012809D0002810D180480021C06B807803F04FF9002808D03046FDF742F90798FCF717FE0099002008707748C06B002809D029
:40F4C00001216A465172017B1172FDF7E7F802A8F6F7CAFC30460A3009F02CFA3046C0300179002901D1012101710220F6F73AFD01200490F80705D07805400F022801D173
:40F50000F6F730FD30464030018B07913146C031CA88C08A824201D00443C880087B002805D1A036307F012801D010208443600609D500984078002802D04020844302E0F1
:40F54000009901204870394600220820FBF738FD544901980840514948633F2000028443019840070FD5F6F7ADFAF6F743FF4B490420486301200490FCF7A8F9012802D10F
:40F580000220F6F7EFFCA80719D53F48806B86B20698800709D50599300408430590FFF7F5FCC00701D00120039081210598490488430590314600220220FBF701FDE8079C
:40F5C0003CD03148006A86B20698C0072ED03004044329208001064206D03349304609684969884701286AD0052040068443B0071CD50220F6F7B6FC274F2037B87AC00776
:40F6000012D0787B00280FD0387BF97A88420BD2264800688168387B14225043801D0818FDF764FF0020787301200490812040048443314600220120FBF7C2FCE80605D534
:40F640000120F6F77FFC1020FBF7D4FC680602D54020FBF7CFFC059807992043084301D00120039007206946088105980194009006984881039800281CD069460EC90A98DE
:40F68000002854D0002013E000103C4016020008FC0100081C1F0008AC21000800113C4000503D40FBFF00001C0200080402000808F048FA049903980BB00843F0BDFBF783
:40F6C00067FB074600218030C170384640300090807BFF2808D138464830FBF79FFF384600214730FBF7B8FF00983946C0794831FBF74AF8FF2805D0292080058443FDF719
:40F7000097FE74E73846FCF763FF3846FCF7C6FB3846FCF707FF3846FDF775F840213846FDF796F8FCF796FFFDF778FE5FE7002008F04DFABEE7F0B587B0054605A81E46A9
:40F740001746019100900C9C04AB06AA02A903A800F0CEF92846FCF7E9F921463046FCF76DF96846017A0398FBF782FD05A904A8FBF730FD6846027E21463846FBF7FEFCD0
:40F7800007B0F0BD70B50948C4782046F8F722FE06462046FFF7E8FA05462046F9F792F9014630462843084370BD0000AC21000870B5094884782046F8F714FE0646204608
:40F7C000FFF7DAFA05462046F9F798F9014630462843084370BD0000AC210008F8B5069E1F463478042C17D3231FDDB23B460095FFF7A1FF3819001FFCF7D2F90520FDF758
:40F8000039FA0446012229460798FDF759FB3570E00701D00020F8BD1F20F8BDF8B51C46009301271346069E079D3A46FFF783FF2846FCF7B5F90520FDF71CFA054601229D
:40F8400021463046FDF73CFB2846F8BDF8B51D4616460F460024FCF769F931463846FCF7EDF80320FDF706FA012231462846FDF727FB2046F8BDF8B5069D089E2C780094D8
:40F88000FFF759FF0120FDF7F5F907463046FDF773FB0023224631460798FCF757F8241D2C70780701D41F20F8BD0020F8BDF8B51C46009301271346079E069D3A46FFF714
:40F8C0003AFF0120FDF7D6F90746002221462846FDF7F6FA3046FDF74FFB3846F8BD10B500F02CF90446F9F781F80128F8D1204610BD10B500F022F90002000A10BD000081
:40F9000000487047D422000808B500F017F96B4600210090585CC006C00E421F0B2A04D9491CC9B20429F5D3EFE708BD08B56A4600210B20F6F7E0F96846007808BD000016
:40F94000FEB5064601200290042017460D46444C0090FBF7E7FD28802146FBF70BFC3080F8070BD0FBF722FE019028880199FBF705FEA04202D2044601983080B8070BD5AF
:40F98000FBF726FE019028880199FBF7F7FDA04202D204460198308078070AD5FBF70CFE074628883946FBF7E9FDA04201D204463780F6F793F800280AD0FBF7EDFE07461F
:40F9C00028883946FBF768FDA04201D2044637802448807B00283BD0FBF7F4FD074628883946FBF7CBFD0546A04231D2FCF7C2FB1D490978814201D8002004E01949D0225D
:40FA0000096A504308180190F7F742FF002817D101983D21C0300068C089F3F71BFB401DC0B200900A280BD90A21F3F713FB0091854204D3391A281A8FB285B200E000255F
:40FA400037802C460198F7F723FF002800D102900098FDF7A7FE0298FDF7AAFE2046FEBDFFFF0000AC2100081C1F000810B50E4C0C4923460833A160002142189278002AC3
:40FA800000D05A54491CC9B20429F6D3FF21A0689A314843A06000F051F8F8F7A7FF0128F9D110BD04030201AC21000870B5059C049D2070060A6670060CA670000EE070A4
:40FAC0004806D101400E0843207104221946601DF4F7B1FF2046042229460930F4F7ABFF70BD0000014908607047000018020008F8B5079C0E46E178069D09020160A77873
:40FB000039430902016067783943090201602778394301602079611D4006400E30702079C009107004221846F4F785FF2146042209312846F4F77FFFF8BD000010B5FBF770
:40FB4000F1FC094A916848400849096848408108C3084409414063405940C30F59404008C9070843906010BDAC21000818020008F3B5074681B00E4800240E4E0E4D10E053
:40FB800031682C234A6821465943535CDB0706D01B315118029801F02BFB002805D0641CE4B2E97AA142EBD8FEBD3C70FEBD0000FFFF000004020008CC210008FFB585B0B3
:40FBC0000C4600200090A004850E0E99684601810026FFF7FDFA6106C90F27073F0F0191012805D13A460798FFF7AEF8012849D069462F2004F0F1FD002843D1009C3E2083
:40FC000020700599022001290CD0A070A81FC6B20120E0703B00FBF7C5F907080A0C120E121012000B20A070F2E7002008E0012006E0032004E0042002E0022000E0FF20F9
:40FC4000207101986071A01D06220799F4F7F3FE0598012818D0267320460D30AA1F0899F4F7E9FEED1DEDB203AA02A90620F6F743F86846007B60556D1E65702046059971
:40FC800004F098FD09B0F0BD01202073E4E700000249014808607047A84D00101C020008704700207047FF2070470120704710B5400606D5FF210020FAF70AFA0220F8F790
:40FCC000BFFA10BD7047704770470020704770477047002070470020704700207047002070470020704700000249014808607047EC4D00101C02000870B512248AB00D46D7
:40FD0000064600292FD000200290039004900590102202A92846F4F77FFE002823D00821684607F04CFB6946487940214006400E08436946487103226C46C91C02A8F4F795
:40FD40007AFE0322E11CF01CF4F775FE06AA294602A8F7F71BF90404240C04D1032206A93046F4F768FE20460AB070BDF0B50546FF2129700022144C144B0720114624682B
:40FD8000DB7A0FE02C2766684F43F65DF60707D014274F43A6681337F75D0126BE403243491CC9B28B42EDD8D143002207E0CC0702D02A700020F0BD4908521CD2B293425F
:40FDC000F9D90029F3D1F0BD04020008CC21000870B50546FF210D4A297014680C4A0A480021D37A0CE02C2266684A43B25AD60704D0520702D52970002070BD491CC9B23A
:40FE00008B42F0D870BD0000FFFF000004020008CC210008F8B50C460546FF206946087068798009012807D022782946684601F063FA68460078F8BD2946684601F092FA8B
:40FE400068460178FF29F4D00A4E2C22306851434068091D411806222846F4F7ECFD30682C2241686846007850430A30085C801C2070DEE7040200083EB50446FF2069461C
:40FE8000087213480068C007C00F19D001216846FBF7C4FB684640798009012813D02278694602A801F028FA6846017AFF2907D008482C220068514340680A31405C207032
:40FEC0006846007A3EBD694602A801F04BFAF7E7001F3C4004020008F0B589B01646044600256A461570FF201075CC48072700680278CB480790C07A82426FD2204606F0DE
:40FF0000D3FB07006AD10C27F7F7A8F8FBF716FC002804D0C248203840784007F2D1A27A211D684601F0E8F9BE490746884220D16846069000208446FF20694608700799CF
:40FF40000727CB7AB5490020096807910EE007992C2249684243895CC907C90F614503D106990027087012E0401CC0B28342EED80DE0002E0BD1A9486A46006881681078D4
:40FF8000142250431330085C6A46107501252846384303D105A8FFF7E9FE0746002FB1D16846017D9D4814230068826868460078584313301154012E11D098482C23006887
:40FFC000002241686846007858430A52934800684168684600785843801C0AE01AE18F482C220068062341686846007850430A5A1A400A5200200190029003900490874880
:020000041001E9
:400000002C230068A27A41686846007858430A300A54824800684168684600785843002A03D00A5A10231A430A527C482C22006841686846007850430B3008182146102232
:400040000B31F4F7F8FC75482C22006841686846007850431B300818214610221B31F4F7EAFC6E482C2200684168684600785043001D08180622211DF4F7DDFC6748142255
:4000800000688168684600785043081806220021F4F7DAFC6148142200688168684600785043801D081806220021F4F7CDFC5B481422006881686846007850430C3008182A
:4000C00006220021F4F7C0FC012E33D0534C2C22206841686846007850431B300818102201A9F4F799FC0223002820686946406809780FD02C225143425A1A4342522068BD
:400100006946426808782C214843801C115A012319430EE02C225143425A9A43425220686946426808782C214843801C115A490849001152394C2C22206841686846007843
:4001400050430B300818102201A9F4F765FC0028206822D06946097842682C204143505A04231843505221682C234A686946097859438023184350526946226808782C2153
:40018000414353680B315918142392685843801D1018FFF7B1FD074608E04168684600782C2250430A5A84239A430A5220682C214268684600784843011D0A305118105C98
:4001C000FDF788F80823FF28206869464068097804D02C225143425A1A4303E02C225143425A9A43425220682C22416868460078012350430A5A1A430A5268460021007898
:40020000FAF738FF38462843304303D120680178491C0170384609B0F0BD000004020008CC210008FFFF000038B50A461B4909784907490F022903D0032901D004292AD1BD
:400240001749897A490626D50146684601F054F80006000E1FD1134C2C222068082341686846007850430A5A1A430A5268460078FAF7BAFA00280AD020682C2241686846C2
:400280000078012350430A5A9B021A430A5268460078FDF799FA002038BD000040220008FC1E000804020008F1B584B000260396FAF76EFD0446FBF741FA002830D00498C9
:4002C00080057DD5FF2069460870002101A8FBF7A5F96946487A8009012824D0022836D001273A4601A9684601F006F805000AD0012047403A4601A9684600F0FDFFB64907
:400300000546884225D0B5482C2200684168684600785043085CC04380071AD4AE4D1AE0012005B0F0BD01A96846FFF721FC050011D101200390A9482C2200684168684646
:40034000007850430A30095C4720015503E00027C7E747200755F8F755F8002D57D1012823D0042821D00220F8F728F801281CD19A4D2C2128684268684600784843011D4D
:400380000A305118105CFCF7A5FFFF283FD028682C22416868460078082350430A5A1A430A5268460078FDF70FFA039800281CD08A4D14222868816868460078504300E0E8
:4003C00032E00818062201A9F4F735FB286814228168684600785043024613328B5C08187F492022096AFDF777F9684600784E2108557A492C22096850434968001D09180B
:40040000204606224830F4F716FB012675E0754880694007800F012803D100217248FDF72DF8FDF705F868E00498400665D5FF2668466E490670684F0868012280B292036B
:4004400010430860002101A8FBF7E8F8FBF776F925464035AE73012600284ED06846407A8009012828D0002201A9684600F044FF002806D0012201A9684600F03DFFB842F8
:400480000AD056492C2309684A68694609785943515CC943890701D5002812D05448807AC0072AD00020FDF707F94E4880694007800F01281AD01DE001A9684600F052FFF3
:4004C000EAE768460078A87344492C230968584303464A680A33D25CEA714968001D0918204606224830F4F7A6FA06E000213E48FCF7C4FFFCF79CFF0026049800053CD518
:40050000FF2568460570344E002101A8FBF786F8002201A9684600F0EFFE002806D0012201A9684600F0E8FEB04221D02B492C2309684A68694609785943515CC943890734
:4005400016D428488169006A89B2C0050CD44807800F012803D100212348FCF78FFF0020FDF7AAF8FCF764FF4034A5730020D8E6002804D04034A57301263046D1E6174D4F
:400580002C222868022341686846007850430A5A9A430A522868142281686846007850431330085C00221946FDF778F9684621460078403188732A682C25684305465368B7
:4005C0000A355B5DCB715168001D0918204606224830F4F730FACFE7FFFF0000040200084022000800103C4020020008001F3C40CC210008F0B500278BB004463E46FAF77E
:40060000C7FB08907A4D60057ED500200690059009A9039004900191009007AB03AA05A90320FBF729F86946898B4906CA0F002816D16846407C03A98009012802A815D007
:4006400000F05AFE6B4988420AD029682C234A686946097A5943515CC943890700D465486946497E8909012904D011E0FFF780FA0127F5E7002873D128682C2241686846A4
:40068000007A50430B30091805A800F0B1FD0126002865D10120F7F791FE01281BD169460A7A28682C214A434068131DC1180A32805CFCF70FFEFF2852D028682C22416818
:4006C0006846007A082350430A5A1A430A526846007AFDF779F83800474F1AD02868142281686846007A50430818062203A9F4F7A2F92868142281686846007A504302461C
:4007000013328B5C081800E02AE02022396AFCF7E3FF002E24D028682C2241686846007A402350430A5A1A430A522868142281686846007A50430C300818062205A9F4F75E
:400740007AF92868142281686846007A5043024613328B5C0C3008184022796AFCF7BCFFE00606D525490868012280B2D20310430860E0042AD500206946087209A90191E5
:40078000009007AB03AA05A90320FAF775FF00281CD16846808B03A94006C20F6846407C8009012802A804D000F0A6FD002803D00CE0FFF7DDF9F9E728682C22416868468E
:4007C000007A5043085CC04380070ED509208001044201D1200508D508984030817B0020F9F776FC0220F7F72BFD0BB0F0BD000004020008FFFF000040220008001F3C4018
:4008000070B50C24F6F72AFCFAF798FF002803D00E484078400717D1FAF76AFD0C4D002128680A4C01702034E27A2C214A4340680021F4F709F9E27A142042432868002161
:400840008068F4F701F90024204670BDAC21000804020008F8B5144800784007400F022803D0032801D004281DD11048807A400619D500240E4F08250E4E11E038682C2179
:40088000426820464843115A0B4BA94311523A681940526811522046FCF796FF641CE4B2F07AA042EAD8F8BD40220008FC1E000804020008CC210008FFFB0000F0B5044636
:4008C0008BB0AD48002607903546600605D4A00603D4E00501D4A00528D5FFF711F809A90191009008AB03AA05A90020FAF7C4FE0790600601D4A006EED500206946087240
:40090000FF2000900798002810D1088C41060007000F01906846407CCA0F8009012803A902A804D000F0E8FC002804D000E1FFF71FF90126F8E76846407E904F80090128FD
:4009400010D1019801280DD138682C2241686846007A50430B30091805A800F049FC01250028E3D186488078F8F7C8F801281CD169460A7A38682C214A434068131DC1187B
:400980000A32805CFCF7A6FC0090FF28CED038682C2241686846007A082350430A5A1A430A526846007AFCF70FFF019801283DD1002D3BD03868002E05D081686846007AB6
:4009C0001422504305E041686846007A2C225043001D0818062203A9F4F71EF80006000E01D1002E24D168463A68007A2C23434351680B33C9181423926858430C301018D5
:400A0000FFF77AF909903868142281686846007A504302461332801D8B5C081859498022896AFCF759FE099800287DD1002E3CD03868142281686846007A50430818062275
:400A400003A9F3F7F8FF3868142281686846007A5043024613328B5C08184A492022096AFCF73AFE0098FF281FD0386842686846017A2C204143505A430702D5019B012BE4
:400A800001D1002D03D001235B021843505238682C2241686846007A202350430A5A1A430A526846007AFCF78FFE002D40D038682C2241686846007A402350430A5A1A43D9
:400AC0000A523868142281686846007A50430C300818062205A9F3F7AEFF3868142281686846007A5043024613320C308B5C081824494022496AFCF7EFFD21482030807AF9
:400B0000400715D50098FF2812D038682C2142686846007A4843115A4B0703D501235B0219431152684600E002E0007AFCF74CFE200606D514490868012280B2D203104352
:400B40000860E00501D4A00510D5002069460872079800280AD1088C4006C20F487C03A98009012802A803D000F0C6FB0BB0F0BDFEF7FEFFFAE70000FFFF0000040200089C
:400B8000AC21000840220008001F3C4010B5054A01781175411C034806220E30F3F74BFF002010BDF0210008F8B515461E46024600206B461870684600F09EFB0406240E80
:400BC00002D002242046F8BD0948002E006881686846007802D01422504302E014225043801D091806222846F3F725FFEAE70000040200080148C07A70470000CC21000836
:400C0000F8B50646002768463C4D0770286802240078002818D0304605F04AFD040013D10C24F6F71BFAFAF789FD002803D034484078400708D13278711C684600F05CFBEA
:400C40000406240E02D002242046F8BD28682C2241686846007850430F5268460078FCF7BBF9296808780028EED06A461278431E93422AD04B682C2148432C3819182C20EA
:400C8000424398182C22F3F7D6FE2968142288680978142351436A461278143941185A4380181A46F3F7C7FE28682C224168007850432C3808180021F3F7C6FE2868142221
:400CC00081680078504314380DE048682C214A4380180A460021F3F7B7FE286814228168684600785043081814220021F3F7ACFE28680178491E0170A6E7000004020008A6
:400D0000AC21000838B50A46174909784907490F022903D0032901D0042922D11349897A49061ED50146684600F0E6FA0006000E17D10F4B69461868097842682C20414317
:400D4000505A0824A043505219682C234A68694609785943074B1840505269460878FCF733FD002038BD000040220008FC1E000804020008FFFB0000F0B58BB00446FF203A
:400D80006946087200200A90A00605D4600603D4200601D4A0057DD5FEF7B2FD08A909900191009007AB03AA05A90020FAF764FC01908E4EA00601D460066CD501980028C4
:400DC00069D10025694600950D72888B4006C20F487C03A98009012802A804D000F08CFA070009D013E0FEF7C3FE070001D001250DE001200A900AE030682C22416868463B
:400E0000007A5043085CC043800700D4784F6846407E800901281BD16846808B0007000F012815D130682C2241686846007A50430B30091805A800F0DBF9002804D00225FA
:400E4000384304D0012703E001210091F8E70027002F7AD167488078FDF78EFF01281ED130682C2142686846007A4843011D0A305118105CFCF72EFAFF2866D030682C22D8
:400E800041686846007A082350430A5A1A430A52684601E0A5E06EE0007AFCF795FC30682C2142686846007A4843115A4B0707D501235B02194311526846007AFCF784FC70
:400EC00000984D4F002824D030686946097A40682C225143425A40231A434252306869468268087A142148430C301018062205A9F3F7A1FD306869468268087A14214843B6
:400F000001461331535C0C3010184022796AFCF7E3FB0A98002818D03068142281686846007A50430818062203A9F3F784FD3068142281686846007A5043024613328B5C94
:400F400008182022396AFCF7C7FB002D13D06846818B0807000F012805D12848407E012801D1022D10D06846008C009003AA0020099BFEF723FEA00533D500206946087251
:400F80000198002807D015E06846008C009005AB03AA0120EDE7888B4006C20F487C03A98009012802A81ED000F0A6F96846007AFF2816D030682C2142686846007A48439E
:400FC000115ACB439B070CD50A4B20339B7A9B0707D501235B02194311526846007AFCF7F3FB0BB0F0BDFEF7C3FDDFE704020008FFFF0000AC21000840220008F02100082A
:4010000070B5054605F066FB04000DD107484078400709D1F6F722F8FAF790FB01462878884201D0FAF7C8F9204670BDAC21000870B5064605F054FB040010D1094D287E2B
:40104000F5F7D8F800280AD132887D20EA82C00042432846044B00211830F5F753F8204670BD0000F02100085112011038B50546002069460C240870FAF760FB002803D036
:401080001E484078400708D12A78691C684600F033F90406240E02D00224204638BDE8790223174A002810684168684600780ED02C2568430D5A9D430D5210681422816805
:4010C0006846007850431330085C002211E02C256843851C4D5DED07DFD00D5A1D430D521068142281686846007850431330085C01220221FCF7D2FBCFE70000AC210008E5
:4011000004020008F8B50024264E054600291AD00C213046F4F7E6FB0004000C40D1E9792C2041433068001DF4F7DCFB0004000C36D1E9791420414330680830F4F7D2FB0C
:401140000004000C2CD118484022817A002711438172E879154D2C21E87230680770EA7A40684A433946F3F76FFCEA7A14204243306800218068F3F767FCFF2007E014220A
:401180003168624313328968641C8854E4B2E97AA142F4D8E1200649AF728000C8820020F8BD000004020008FC1E0008CC210008F021000870B5FF2815D00B4A044612681F
:4011C00053682C2254431A5BD5070CD055070AD5002903D0012189020A4301E003490A401A53FCF7F1FA70BD04020008FFFB000070B5164C88B00E46050023D0002E21D0D0
:40120000002000900190029003906879400619D5102269463046F3F7FFFB0006000E11D00322E91C6846F3F706FC04AA31466846F5F7ACFE032204A92846F3F7EDFB00289C
:4012400000D10024204608B070BD0000FFFF0000F8B51E491F4B0878401E08701C480021C28A7D20C000424319481830F4F74AFF0024194D23E0194B20461A682C265168E8
:4012800070430E5CF60718D00B30091820461423584392680746861D9019FEF72DFD0006000E0AD10D48133700680D498068896AC35D80198022FCF70FFA641CE4B2E87AF0
:4012C000A042D8D801206873F8BD0000AA010008F021000851120110CC210008040200084022000810B5014606220248F3F7A3FB10BD000020020008F7B582B01649009133
:40130000FF20029900240870144E154F1FE030682C21254640684D43291D401806220399F3F77AFB002810D13068294640680A31425C04998A4208D1405DC00705D00298A3
:4013400004700020009005B0F0BD641CE4B2F87AA042DCD80098F6E7FFFF000004020008CC210008F3B581B0FF200199114F08700024114D114E17E028680622816814203C
:40138000604308180299F3F747FB00280AD1286841682C206043085CC00703D001980027047004E0641CE4B2F07AA042E4D83846FEBD0000FFFF000004020008CC2100080A
:4013C000FEB50446002069460190087007460646014606225448F3F737FB5348FCF714F96079524D022801D003287DD1A279E11D6846FFF781FF0606360E23D14C482C236D
:401400000168684600784A684343D25C120619D5142289685043801D0818FCF767F84448142200688168684600785043024613328B5C801D0818892180224901FCF74CF91D
:40144000012001902079012801D0042815D168460078FF2811D036492C22096842434B681B329A1889681423584308181146FEF743FC0606360E0BD000260198002842D0E0
:40148000A87A01210843A87268460078287345E0274F2C2238684168684600785043085CC043800702D5E01DFCF7AEF838681422816868460078504309180622E01DF3F7D4
:4014C000BAFA386814228168684600785043024613328B5C081817492022096AFCF7FCF838684168684600E014E000782C2250430A5A01235B021A430A5268460078FCF755
:4015000063F90127B9E76079022801D0032801D1801E6071A87A40084000A872002F01D00120A0713046FEBD20020008CC2100080402000840220008F3B587B00C46FF2039
:401540006946087000250595019508728548039060792F46022801D0032800D10127207E022801D0032800D10125FAF7E7F8002810D020797C4E012819D06279002F01D0C5
:40158000921ED2B2A11D6846FFF7B6FE0390002816D0BEE0002F02D06079801E6071002D02D06079801E6071002009B0F0BD002DEFD002A8FEF70CFC039000287ED0A8E068
:4015C0006A482C230168684600784A6843431B33D31889681422504308181946FEF78CFB0799039040310491002836D0002D66D05E482C2200684168684600785043085C49
:4016000040075CD506220021A01DF3F71DFA04986179C1710121A01DFBF730FF534D1422286881686846007850431330085CFBF771FF28682C22416868460078032350430C
:401640000A5A1B021A430A5268460078FCF7BCF8B07A04210843B07279E04448142200688168684600785043024613328B5C08183F492022096AFCF72FF806220021A01D91
:40168000F3F7E2F904986179C1710121A01DFBF7F5FE0120019035482C220068FF23416868460078013350430A5A1A430A5268460078FCF789F82D48006801E01AE028E0E5
:4016C000816868460078142250431330085CFBF721FF002D1DD025482C2100684268684600784843115A4B0713D501235B0219431152A9E71D482C220068012341686846B7
:40170000007A50430A5A5B021A430A526846007A9CE7B07AFB210840B072002D17D00598002814D1207E801E20766846007AFF280DD00E492C2209685043496801230A5A29
:401740005B029A430A526846007AFCF73DF8002F05D00198002802D16079801E6071039823E70000FFFF0000CC2100080402000840220008FEB5054640790027424E0228FB
:4017800001D0032845D16846FEF722FB07063F0E12D13E4C6846226800782C21414353680B315918142392685843801D1018FEF7A3FA07063F0E05D06879022827D0032828
:4017C00025D026E020681422816868460078504302461332801D8B5C08182D498022896AFBF77AFF0120687120682C22416868460078012350430A5A5B021A430A52684669
:401800000078FBF7E1FFB07A022108431CE0801E687101204002002401900FE01B482C22006862434168019B885A98438852C00702D02046FBF7C8FF641CE4B2F07AA04298
:40184000ECD8B07AFD210840B0720F49A8792039104A03280BD0022812D001280CD0002050768878FD22104088703846FEBD01205076A879801EA871887802221043F3E719
:4018800001205076F1E70000CC2100080402000840220008F021000810B509490748096888420AD10748084BC28A7D20C0004243044800211830F4F725FC10BDEC4D0010C0
:4018C0001C020008F021000851120110F7B515460C46F9F733FF0746FF2C3DD0002F3BD014212646687C4E432C2180094C4301281AD11C48214600680A314268525C00990D
:40190000921C4031CA714168201D0918284606220C30F3F790F81348062200688068811928461830F3F787F80098F5F7B1FF002815D004200C49897A01420DD009480068E0
:401940004168095D490707D58068B61D8119284606221230F3F76FF8F807C00FFEBD0120E8E7000004020008CC21000810B510490A781049824201D8002003E0D0230A6A32
:4019800058431018002812D00A6B138802468032146B23800B6B146B5B88A3810B6B126B19881289914202D05A8800F009FB10BD1C1F0008AC2100080249014848607047B0
:4019C000504E001028020008F7B50D463449334F897A84B03E4689065DD52C468034216B0A8B2946C0310091824204D388682030807800284FD0002A02D12A48006B828857
:401A000028460699F5F76CFD0646B84208D12889002102F098FD069805F0E4FF00263AE00027FF206946019708720098806820308178012903D1A178002900D0C170A078ED
:401A4000401CA070A878FCF7FBF80407240FA878FCF7BEF80007000F04430F2C00D00127002416E00120009002AB03AA01A92846F5F77EFC00280AD10199002907D068466F
:401A8000037AFF2B03D0027B2846F6F788FA641CE4B2BC42E6D3304607B0F0BDFFFF0000FC1E0008AC21000870B50446C034217B054600290CD0284600F0CAFA072807D03F
:401AC000207B152802D1284600F018F80020207370BD704700487047FFFF0000704701207047704700207047002070470249014848607047304E00102802000870B5064621
:401B0000FDF7FEFE04463089354620808035286B4089E080286BC08A2081286B00896080286B808AA0803046F7F7CFF8204604F033FF70BDFEB5044600790D46C01E052837
:401B40000DD848482E78807A20278006002807DB31462046FCF73FF9E07E3843E076FEBD40212046FCF794F9A878694600028880697808436946888029790A026946CA80DD
:401B8000E9780A436946CA80A9790A0269460A8069790A4369460A80297A0A0269464A80E97925460A4369464A808035296BC88069460888296B88806946C888296B48822B
:401BC00069464888296B0882204600F099FA2046F5F75EFE00281ED1FDF7A8FE5E210A5B6179F6F79BFD22460146A032507D0128286B408926D080003C3083B2107D01281D
:401C0000286B008B21D080003C3082B2103189B22046FDF72BF86420015BA078FBF712FC142E15D00F49A07D897AEF2239400843E17E384311403943E176A0752046FFF7A1
:401C40005DFFFEBDC0007030D7E7C0007030DCE71521CC200155A07D3843A0752046FFF723FFFEBDFC1E0008014A52681269104728020008014A526812691047280200087A
:401C8000F3B585B0FF206A460024107301941472184A2046927A920628D5059EC036B26820329578002917D1002D14D0009003AB02AA01A90598F5F75BFB07466846037B2D
:401CC000FF2B06D00199002903D0027A0598F6F766F9002F00D00124B0682030C178002904D0002D02D00124491EC170204607B0F0BD0000FC1E000870B504464878142814
:401D000001D015283BD1E07EEF21084020210843E076A07DDF210840A07540212046FCF7B7F82046F5F7B4FD002820D1FDF7FEFD5E210A5B6179F6F7F1FC22460546A032E6
:401D4000517D204680300129016B498918D089003C318BB2006B117D008B012913D080003C3082B21035A9B22046FCF77FFF6420015BA078FBF766FB2046FFF7BFFE70BD43
:401D8000C9007031E5E7C0007030EAE710B5044604F042FE00280CD106490A6B928822800A6BD28862800A6B1289A280096B4989E18010BDAC21000810B5044604F032FE95
:401DC000002806D103490A6B12882280096B4988618010BDAC21000870B5054604F028FE002817D12888F7F705FD040013D0F8F782FB00280FD0207909280ED02046F8F78E
:401E00008BFB01280BD0F5F729F9AA886988204600F0D6F870BD022070BD0C2070BD2A2070BD000010B5044604F008FE002806D1034922880B6B1A80096B62884A8010BD74
:401E4000AC210008F3B5064631480025807A83B080065AD53746C0373868344680340090206B0290B8680190F0F7E8FCD02200213046F2F7E9FD029820630198B8600098F0
:401E80003860F0F7C5FC049801280FD130462421C830F3F727FD05042D0C36D130461A21B030F3F71FFD05042D0C2ED11A220021206BF2F7C9FD3046049900F05DF815490E
:401EC000226B086B80881080086B226B00895080226B1B209080226BD080226B1081226B50810A6B236BD2889A81096B226B4989D181FF21226B49311182226B5182226B7C
:401F00009182226BD182216B0883284605B0F0BDFC1E0008AC21000810B504460020002906D00C211248F3F7DDFC0004000C1DD10F491B2230390B6B1A80FF220B6B49323A
:401F40005A800B6B22889A8022880B6BD2007032DA800B6B62881A816288096BD20070324A81044920238A7A1A438A7210BD0000DC210008FC1E000870B50546C035002958
:401F80000FD1A86820308678002408E0A868E1004058002801D005F025FD641CE4B2B442F4D324220021A868F2F74EFDA868FF2120300170A86800212030417070BD000070
:401FC00070B5064604468036306B03898B4206D1838A934203D11D4B1B78002B07D0E37E9D0606D5A57DAD0603D41A2070BD002070BDDB0628D483891546AB4200D91D4646
:402000000180306B82812046F5F742FC00280ED1FDF78CFC5E210A5B6179F6F77FFB316B1030CB8981B22A462046FCF71FFE6420015BA078FBF706FAE07E10210843E076E6
:402040001420C0342073D2E7232070BD2802000838B50546002000900C46A978684605F04DFC002807D0142C03D1E87EEF210840E876072038BD0098092204702C4680345B
:40208000216B89784170216B4988090A8170216B897BC170216BC989090A0171216B09784171216B0988090A8171216B097BC171216B8989090A01722946F8F77DFE38BD48
:4020C00070B504460088F7F795FB014680310B46096B2289CD89AA4203D1E5884E88B54206D0CA811A6BE1885180044A01211170A2886188FFF764FF70BD00002802000817
:4021000030B50024002835D0014680310A6BD3881588AB4200D32B4615899D4201D0138101240A6B538A9589AB4200D32B46958A9D4201D0938201240A6B958853889D42D6
:4021400000D22B4655899D4201D053810124096B0A8ACB899A4200D31A46CB8A934201D0CA820124B421095C012200F007F8024900200870204630BD280200088030006BEF
:402180000129838A09D099080F39038989B28B4200D21946002A03D005E0D9080E39F4E7028B8A4200D901837047000070B504461B3CE12C1CD2104C246BA588854217D385
:4021C0000E4DA94214D8FF204930814210D3E6888E420DD3FB2A0BD81B2A09D32189914206D3AB4204D8834202D36089984201D2122070BD002070BDAC2100084808000008
:40220000F0B5314A0446314B002110465D5C491CC9B2A542FAD1A3009E462D4B491EDB7DCDB29C462A4C00216B003434E45A284B4E0034339E5B254B5B5C9F00244BDF59A1
:40224000BF897F00F619B6B2B44202D90020614625E0B24200D932460E46491CC9B2AE42E5D11CE01A4B4D0034335B5B1E1B052E09D2164D164E6D5CAF00F559AD896D0022
:402280005B199BB206E0124F75467F59FF89FF1CBE4217D39A4200D91A46491CC9B28C45E0D8094988420CD1101B04280AD9084A71465158C01E897C80B2002901D1401E25
:4022C00080B2F0BD0020F0BDFFFF00003002000804230008F7B50546002082B0164604460090F9F71FF90346002015E081006A581278002A0ED0062A0CD0464A67001055A9
:402300006958098ACA1A012109045118424A641CD153E4B2401CC0B2697D8142E6D8012021E0014611E03C4B94467246DA53019B6246DA83374A575C5318BC46203BDF7F37
:4023400057546746491EDF77C9B2002909D0324B4F00DA5BFB18203B0193DB8B9E467245E1D3401CC0B2A042DBD300200399641EA446294C086015E026494200095CA35AA8
:402380008F00EF591219FF895288DB19DB1C93420AD9039A136801228A4013430399401CC0B20B606045E7DB0399096800290BD0184A125C0120904001430398016001204C
:4023C0000090009805B0F0BD124801788A00A858807C3070B170002801D00128F1D1AA5821889289638852008A1892B2934204D9511A05E0491EB180E3E7591A042905D98A
:40240000C91E89B2B1800028F4D0DAE70020B080D7E70000300200083823000870B50A46034641780024007800F010FA264DFF2847D09E7825493300F8F7B4FD09060A0FB4
:4024400013171B1F242943008000085800781CE0800008584068106034E08000085800890EE080000858807A0FE080000858808906E080000858C08902E080000858008AA4
:4024800010801FE080000858807C10701AE080000B581B7813700B585B6853600B581B8913810B589B7A93720B589B8993810B58DB89D3810B581B8A13820858807C90749A
:4024C00000E02C46204670BD0100160004230008F8B50446002020606060254EA060F07D002809D001280CD0224669463046FFF7F1FE01281AD031E005202070FF20A070FA
:40250000F8BD307E2070317DA170002801D00128F6D1317D8900715889894900C91E89B2A1800028ECD1491EA180F8BD0127104867701C30009905F0BFFB05468000305802
:40254000807C2070B17D2846A94207D9FFF758FEA080A5700098AF40B843A06020783076A0783075A178A088890071580881F8BD04230008F8B5154F05460026387D3446B9
:4025800000901EE0E80716D0009880003858018AA0003858008AF8F77FFF0121C903884201D3002807D1094821461C3005F0F8FB0120A0400643641C787D6D08E4B2A0423A
:4025C00001D3002DDED13046F8BD000004230008F8B505460020287068602872F8F7A2FF0746F8F7A5FFFF213931884201D2022600E00326002420E0A00010580178002929
:4026000019D0062917D0008A0121C01B0904401880B24910884201D8B0420CD801202870917DA14203D96968A040014369602146054805F0B5FB641CE4B2034A1C3A507D88
:40264000A042D9D8F8BD00002023000870B51C4DFF222A7505222A7600266975EE75A975334606E014225A4312189C005B1C2A51DBB28B42F6D30C4603E0A200641CAE50CB
:40268000E4B2052CF9D314224A4310180A4601460B481C3005F0A9FA00280FD100240AE0A000285821460670012000F00BF8002804D1641CE4B2A97DA142F1D870BD000095
:4026C00004230008F3B583B0002668461A4C0671607D0D4600282BD069464D70039808702946039800F0B2F80746FF281ED0024601A9684600F060F9B8002258711E5160EC
:402700002258090C118122589672225891812258D18121582A460E8220580521817420461C30039905F08CFA05B0F0BD0348FBE70248401CF8E7000004230008010016006F
:40274000F8B50F4606460024F8F7ECFE0546F8F7EFFEFF213931884201D2BF1C00E0FF1C0B48B2008258F9B2107800280ED006280CD0108A0122401B1204801882B20120AD
:40278000C003824201D88A4200D801242046F8BD04230008F8B52B4D0024E87D022801D20020F8BDF8F7BEFE264F264B00213437012636045D7D11E08B00D2581378002B72
:4027C0000AD0062B08D0204B1955128A6300121A9219641CFA52E4B2491CC9B2194A8D42EAD8012117E008460AE07B53164BF2831A18203A1D5CD67F1E54401ED577C0B234
:40280000002806D04500EE19203E7A5BF38B9A42EBD3491CC9B2A142E5D30B49388809787B888A0007498A58D2898218D21C9A4206D80A7D92008958C989C91C8842AFD815
:402840000120F8BD0423000830020008022804D20348807D401E884200DAFF21084670470423000810B50146014805F009FA10BD202300080A4610B50146024805F074FA0D
:4028800010BD0000202300080A4610B50146024805F05AFA10BD000020230008F3B500980C46417800250078FFF7D0FF06463F48FF2E78D000993E4F89783E4A0B00F8F75B
:4028C00071FB09060F161D242D34393E72002178062968D232462146009800F06DF863E0216891425FD8B000385841605CE02188914258D8B0003858018155E02178022985
:4029000051D2B000385881724EE021881922D201914248D8B0003858818145E02188914241D8B0003858C1813EE0B10079582088088239E02178052935D2B0002FE02178DA
:40294000062930D2616891422DD8218991422AD8A17A022927D2A3891921C9018B4222D8E18991421FD8A17C05291CD232462146009800F021F8B0003A58616851603A5895
:40298000218911813A58A17A91723A58A18991813A58E189D1813A58218A1182A17C3858817401E0FFE705462846FCBD0100160004230008FF18000010B51A4B92009A5859
:4029C000097814781170002C0BD0002917D1D87D401EC0B2D875012811D1194600204B7D1DE0012901D0022909D1D97D491CC9B2D975012903D1417819750078187610BDD4
:402A000082008A581278002A07D0062A05D082008A58927C0A76087510BD401CC0B28342EED810BD04230008A0300177704700000249014808607047984E00103802000827
:402A40007047704770477047704770470249014808607047704E00103802000870B5224DA030447E6E7D002334404476067E2D7D2E400676857E2C400C70047EC57E2C40B3
:402A800014700D780224032D00D30C701578032D00D31470447E0025012C02D0022C04D00CE0047E012C03D008E0047E022C05D10C781678B44201D00D701570047D0E78AE
:402AC000344200D00D70447D1678344200D015700978002901D0012381751178002901D00123C175184670BDCC2100081CB504006846817008D020896A4610802046A0309C
:402B0000417D1171007DD0702146C031487B820701D57D2202E0C20702D07E221040487303496846096888472046F6F7CEF81CBD8402000810B541780078491EC9B2FAF7D4
:402B400027F9024904200876002010BDAC21000810B5C1780278491ECBB281784078FAF72DF9024903200876002010BDAC210008F0B587B00026694600960E740E7505461D
:402B800005AA04A9FFF76AFF2C46A0340746012814D1A07D022602282AD000200290E07D022827D0002001902846FCF788F80090A878009B019A0299FAF748F91F48807A7A
:402BC000800604D5A17D00222846FFF7D7FA03966846007C009E00906846007D019000200290A97802A804F089FE002818D103E00120D3E70120D6E702981823019A0099A6
:402C0000037041708270C670310A017105222946F8F7D2F880212846F5F792FB03982077002F08D1607F002805D10320607700212846FFF75BFF07B0F0BD0000FC1E00084E
:402C4000014A12689269104738020008F8B50F460546F4F71DFE214EF17AC907C90F12D02C467978A0342176B97801276176677700280DD02846FFF77BFFC035687B82210A
:402C800008436873F8BD39462846FBF726FDF8BDB07A800604D5002201212846FFF76EFA00200090A978684604F028FE0028E4D10098172202700A4A2946537D4370127D5B
:402CC00082700322F8F778F8728A80212846F5F717FB042020776777CFE70000FC1E0008CC21000870B506460E480C46C07AC007C00F30460DD0F4F7CBFD00280CD0354681
:402D00006078A0352876A07868763046FFF730FF70BDFBF7E2FC70BD172224213046FBF70EFF70BDFC1E0008014A1268D269104738020008014A1268126A104738020008D8
:402D400070B517490978814201D8002504E01549D022096A50430D18002D1FD02C46A034207F02281AD1E07D60750E48A17D21752030027DE276407DA07609482038807A3E
:402D8000800603D501222846FFF7F8F9002020770320607700212846FFF7A8FE70BD00001C1F0008AC210008FEB50C460746F4F76FFD01281DD080213846F5F7C1FA2E4821
:402DC000A578017D407D667805400E402079E1780002014330463C462843A0340191002804D0B878F8F73EFD012808D0002E0FD00FE0182224213846FBF7A1FEFEBD282124
:402E00005A20C155002020773846F6F779FBFEBD667D002D00D1257D207D28420ED0607D30420BD000200090607F00281BD10320607700213846FFF759FE14E0022D17D08C
:402E40000021022E16D0002202200090B878019BF9F7FCFF0948807A800604D5002229463846FFF78BF9E675A57500982077FEBD0121E6E70122E7E7CC210008FC1E000807
:402E800070B50C46F6F7B6FC0546002060702070002D0BD02846F7F72EFB002806D0A035687D6070287D2070002070BD022070BD10B501784478CA078378084903D14A7D99
:402EC000224009D08A750078800703D4087D184002D0C875002010BD112010BDCC210008F8B50746FF2168460170FE783D793888F6F780FC04000FD0F7F7FDFA00280BD09D
:402F0000B9782148CA0709D0B422175D89070AD4067D2E4005D008E01E20F8BD477D3740F4D11120F8BDB520065D2546A035687D304209D0287D384206D00320687700214E
:402F40002046FFF7D3FD14E002236A4618212046F7F737FB01280ED002236A46FF212046F7F7E8FA012806D0AF76EE76204600F07FF80020F8BD68460078002801D02320DF
:402F8000F8BD2A20F8BD0000CC21000870B50E4605468021FAF77CFF2C460020A03420770C48017DE176407DA0760B48807A800604D5217D01222846FFF7E0F82846F4F79C
:402FC00067FC002805D10320607731462846FFF78DFD70BDCC210008FC1E000870B505468021FAF755FF2C460021A03421770C49087DE076487DA0760A48807A800604D5C2
:40300000217D01222846FFF7B9F8607F002803D100212846FFF76AFD0320607770BD0000CC210008FC1E000810B50F490978814201D8002004E00D49D022096A5043081809
:4030400000280FD00949A03020318A7D037D9A4203D1CB7D447DA34204D08276C97DC1760121017710BD00001C1F0008AC210008F8B505462C460020A0346077207F0128EC
:4030800001D1022060772846F4F702FC134F00281AD0032600200090A978684604F02EFC002810D1009816220270A27E4270E27E827029460322F7F77FFE7A8A8021284633
:4030C000F5F71EF92677F8BDB87A04268006E1D5A17E00222846FFF751F8DBE7FC1E0008F7B54804040C82B038480190017802981646814205D919200002844201D8082EA6
:4031000001D9334C52E0029F0620474331483D182879012801D0022802D1029800F0C8FB2C48C4536E71C45B408B84421ED22146EFF790FF002919D100940198002400783E
:40314000019011E006202146414322480E183079012801D0022804D170880099EFF77AFF7180641C0198E4B2A042EBD8029800F033F81749044688421DD0164E6C80F15BA3
:40318000708B814206D2EFF765FF002902D1029800F000FC718BF05BEFF75CFF002908D0022028710B48017F491C0177204605B0F0BD0120F5E72879002803D06888801CCC
:4031C00080B200E00A2068800320EAE71C1F0008FFFF000042230008F0B50646AFB00020039001200690E0480090E048089030460622DF495043002501904018029050E0AE
:4032000028460621DA4A4843811804910979012901D0022943D1B54241D0039F14214F430BACE5550199105A515A00F0A3F93F190446786001282AD0049802994079497974
:4032400005914118A14204D90020B860F860069015E00499201A49880919081A04912146EFF7F8FEB96004990598081A2146EFF7F1FEF9600098844201D2A0B20090F86843
:40328000A04201D9012000E00020387403E00020B860F86006900398401CC0B203906D1CEDB208980078A842AAD8069800280ED0039800280ED000200490AD490198085AEA
:4032C00001900020044605900546039045E00020C04343E1A64806760199415A418300203CE1284606214843A1490790401806900079012801D002282DD1B5422BD0142004
:40330000214641430BA80F18B8680099EFF7A2FEB960F8680099EFF79DFEF9600698069940884979A70042181FA9CA510099EFF791FE27A8C1518E490798095A019800F0A1
:4033400019F901901FA8C0590099EFF783FE1FA8641CC151E4B26D1CEDB208980078A842BFD8601E054681B20A901FA800F0FAFAA9B227A800F0F6FA002729E008980025DA
:4033800000780790B80006901DE0062029464143774808180179012901D0022911D1B5420FD04188407908180099EFF753FE0A4606981FA90858824203D106982BA90D5074
:4033C00004E06D1CEDB20798A842DED87F1CFFB2A742D3D3002559E0AE002BA806968059062148436249401840880099EFF732FE1FA880590F4686B209902146681CEFF790
:4034000029FE880008902BA907900858062148435749401840880099EFF71CFE07981FAA105A012C82B223D9B94201D3B1420ED9BA4201D3B2420AD9914214D3B24201D26F
:40344000B94201D8012000E00020002810D08F420ED196420CD10A98854209D0069923AA0998505010E0B942EED8B242ECD3E9E7089827A909580198401E08180199EFF75F
:40348000E9FD069823AA11506D1CEDB2A542A3D300205BE000991FAA8900555823AA535800202E461F469D424DD0002122E0142251430BAA89188A680020B24205D3BA4258
:4034C00003D8AA4200D915460120C968B14206D3B94204D8994200D20B46012007E0002805D18A4214D99642F7D88F42F5D36146491CC9B28C46A142D9D3002823D0AB42EF
:4035000010D30399581B884207D8002905D01AE0964218D98F42E0D315E003905819400804900EE0019803991818401B88420AD9039001985919081840080199EFF78AFD6E
:403540000491012005900098401CC0B20090A042A0D30598002800D1B9E6049802994880029840882FB0F0BDFFFF00001C1F00084223000810B50C46002807D0002C05D0CE
:40358000EFF768FD20460C00FAD110BD002010BD014606225143064A04488A181179012901D0022900D1508870470000FFFF000042230008FEB5284B1B780293834209D918
:4035C0001923DB01994205D89A4203D8062901D3062A01D22148FEBD914201D10846FEBD49040E0C51041E4A0F0C117F002905D0012906D11146097E814202D1F019800899
:40360000FEBD3D4624E001200024019016E0204606214843124942181279012A0CD1085A29460090EFF716FD002905D028460099EFF710FD002909D1641CE4B20298A04235
:40364000E5D80198002801D06808FEBD6D1EADB2B542D8D2D2E700001C1F0008FFFF000042230008FEB5062107466A4E4F43BC192179012906D0022904D0F7F753FF6188D6
:40368000401860E0337E0121062283426ED1624B00241D780BE0062363439B191B79012B01D0022B01D1844203D1641CE4B2A542F1D8A54203D1F7F735FF0A3043E06846C7
:4036C000447101718271694601A8FEF7A7FE06204443A019418868460088411A68460180F7F720FF0546684601882846F7F7DEFE04466846018803222846F8F7D1F8002814
:4037000023D06846018801222846F8F7C9F8002812D0778B20463946EFF79CFC7819401A01E0708B001984B2032221462846F8F7B7F80028F5D16BE0768B20463146EFF704
:4037400089FC4819801984B262E0718B2046EFF781FC481901E0708B001984B2032221462846F8F79DF80028F5D151E06846437101718271694601A8FEF750FE684661886B
:403780000088091868460180F7F7CCFE0546684601882846F7F78AFE02902079022817D0768B6846018803222846F8F779F800281FD06846018801222846F8F771F800284D
:4037C0000298314610D0EFF745FCA819401A02E0F65BE6E7A01984B2032221462846F8F75FF80028F6D113E0EFF734FCA8190818A9E731460298EFF72DFC481900E0A019E4
:4038000084B2032221462846F8F74AF80028F6D12046FEBD422300081C1F000810B50B460621104C484302191179012906D0022904D0205A4008F3F73DFE10BD0A498B42CB
:4038400006D15188022903D3C8031904401807E0215A50880818C01A801EEFF7FBFBC803000C10BD42230008FFFF0000F0B500200E4A8446014606460A4B0B4CFF201578C8
:4038800009E006270A467A43A352121953801671491C5071C9B28D42F3D82076638326776046F0BDFFFF0000422300081C1F0008F8B50146002000902648007884468842F8
:4038C0001AD9084606225043234F8646C0190279002A11D000220271204B7246BB52FF2643804671387F1C46401E3877387E354688422CD1002019E01948009027E0062274
:4039000001465143CA191279012A02D0022A06D00AE0795AA14207D20C46064604E0795A994201D20B460546401CC0B28445E6D8FF2E01D0304602E0FF2D03D0284600F01F
:4039400029F804E0FF2038760020C04378830098F8BD00001C1F000842230008FFFF000001001600F0B58C4600230FE00022C91A491E08E09600371884597D68AC4201DDF5
:4039800085517C60521C9142F4DC5B1C61466345ECDBF0BDFEB5064615480621374606764F43C15B4183014600247918114800910078019016E006200D496043451828791A
:4039C000012801D002280AD1B44208D06888C95B421800984088101AEFF726FC6980641C0198E4B2A042E6D8009800214180FEBD422300081C1F00080348C078002801D061
:403A00000020704701207047D025000810B5012200F046F810BD000010B5054802780121002A017002D10120F2F7BCFA002010BD3C02000870B5144D2978032001292870DC
:403A400002D10120F2F7AEFAECF753FDEEF7F6FE00246C60FF22813221460C48F0F7F4FFF02200210A48F0F7EFFF0948F030C47004704470C47304734473ECF736FDEEF7D5
:403A8000C7FE002070BD00003C02000860230008E024000810B5002200F002F810BD0000F8B515460C460646ECF723FDEEF7C6FE264A1078012808D01078022805D0ECF7C4
:403AC00014FDEEF7A5FE1120F8BD0C20464320483018C1788378994205D3ECF706FDEEF797FE1220F8BD46780C277E434168676871182668A4684F600E608C60C178431CC6
:403B0000491CC1704178491CC9B219708078814201D1002018705068401C50601078012805D0ECF7E2FCEEF773FE0020F8BD02201070ECF7DAFCEEF76BFE002D03D0002099
:403B4000F2F730FAF1E70120FAE700003C020008D025000810B51248002101704160FF2281321048F0F770FFF02200210E48F0F76BFF0D4818220021F030F0F765FF0A48FA
:403B80002021F03081701421817306494160064901610649816006494161F2F7E9F910BD3C02000860230008E02400080FF2001051730110F8B50025164C01262F46207805
:403BC000002815D0012813D0022802D003281CD11AE000F021F8ECF78CFCEEF72FFE6068002800D12670ECF780FCEEF711FE0CE0ECF77FFCEEF722FE2078002802D02078F5
:403C00000128F0D10125EEE72770002DD7D00020F8BD00003C020008FEB5214D214E0027FF24ECF766FCEEF709FE00200C2141438919C978002901D0044602E0401C0228AE
:403C4000F4D3FF2C2AD00C204443A41921780C2260685143081801460EC9029301920091076047608760E078401EE0702078401CC0B22070A178884200D12770686800289A
:403C800002D06868401E6860ECF72FFCEEF7C0FDA1680029C4D068468847C1E7FEBD00003C020008D025000810B5830A082B04D03F2B05D004F086F810BD00F025F910BDF1
:403CC00001F0B4FB10BD10B50C460146207800F02BFE0028204603D003F0EBFA002010BD00F082FD1F2010BD38B50446002000906946052000F071FD00280AD101200099D1
:403D0000052C07D010220A708C704870FF20FFF7DAFF38BD1A220A708870F6E710B5820A082A04D03F2A05D004F0FEF810BD00F015FA10BD01F07EFB10BD0000F8B5044667
:403D400040782578000205430020694608702846FFF7E4FF01282BD16946A0780978884226D022498D420CD0891D8D4209D0C91C8D4206D0C91C8D4203D01C4925318D42EA
:403D800004D11221284600F0A1F80CE00022022805D32079E178000201430A05120D12212846FFF781FF204603F0D4FD1220F8BDA80A0F4E08280ED03F282A46314610D01B
:403DC000E01C04F0FBF8204603F0C4FD3146284600F010F8F8BD2A463146E01C00F0CEF9F1E7E01C01F07CFBEDE700000D200000E8250008F8B50D460446002069460870B7
:403E00002E48871D844212D0BC4210D0F81C84420DD0C01C84420AD028481830844206D0401C844203D025482530844201D101200870A00A08280ED03F280A46294620462F
:403E40000FD004F00DF906466846007800280BD001281FD116E00A462946204600F0C2F9F1E701F05DFCEEE70022002D05D068782978000201430A05120D31462046FFF732
:403E800013FF07E0BC4201D13A2E05D03146204600F01CF83046F8BD68782978000201430805000DF5F7A6FC05460021204600F00DF83A212846FAF760F8EBE70D200000A9
:403EC0000148007B70470000F0210008F8B5054600200E4600906946082000F07EFC002801D00720F8BD009C0F202070A670FFF7E7FFE0702571280A60710420607021468B
:403F0000FF20FFF7E0FEF8BDF7B584B00546002002900420694608718649874B681A0C22EE1806278D423BD010DC8449681A8D4230D006DC002E28D0012E28D0052E13D102
:403F400028E006282AD009280ED120E0172829D006DC012824D0022819D0162804D11FE019281FD01A281DD07549284609688847694609794018694608717249284609688F
:403F8000884769460979401805E0781C03E06846027107E005206946087103E00B20FAE7684607716846007902A9001D00F015FC002802D0072007B0F0BD029C29462046FB
:403FC000059A00F001F90420694608715949491C681A8D420AD005DC5B48281806D005280BD103E0072801D0152806D10699A17106996846090AE17107710598002821D18E
:404000004C49491F681A8D425AD009DC4F4F002E20D0012E2FD0052E44D00D2E06D148E003285CD0072866D01B286FD0484B01AA1B68214628469847464B01AA1B682146DF
:40404000284698476846007960702146FF20FFF73AFEB0E769460979387D6118887069460979000A6118C87069460879801CC0B20871797D5BE06946087908222018801C58
:404080000021F0F7E1FCB87AF52108406946097961188870F87A6946C0070979C00F6118C87023E0F3F7CEFB05E069460879401C1FE0F3F7E7FB6946097961188870F4E790
:4040C000684600792118891C0698F3F7C6FB002801D06071B6E769460879401D09E06946087908212018801C03F069F96946087908300871A6E76946087914492018801C44
:4041000008221831F0F797FCF0E7FFE7124A694612680698904760716946087809796118887069460879401CC0B20871497820188170BAE71A200000FEDFFFFF0F200000A2
:404140007C0200086C020008EBDFFFFFFC1E0008780200086802000888020008064AC0B21378834206D3401E1269C0B2105C087001207047002070474402000830B4074B86
:40418000D2B21C78944206D39B689200D218403AD26B30BC104730BC704700004402000807484E21017007494160FF3139318160FF313931C160FF313931016170470000C5
:4041C00044020008444F001070B504460E2016460D462070FFF774FEA070E570280A2071667170BDF8B50D4D16460F46C1B22A780120914210D88C00E868314620184038B2
:40420000C26B38469047002806D16868314620184038C26B38469047F8BD000044020008F8B5054600260D4F69460620009600F0D4FA002801D00720F8BD009C3246394676
:404240002046FFF7C1FFA571280AE071062060702146FF20FFF737FDF8BD00001F20000070B50446054640220021F0F7EDFB402223492846F0F7DFFB2249F522887A20340E
:404280001040C0060028207802DA3022104301E0CF2210402070887AC2070720002A2A7F01D0024301E0D208D2002A778A7A93060122002B0ADA6378C0252B436370A37801
:4042C00008251343A370E3782B43E3708B7A5B060AD5A378F8252B43A370E3780343E370E07904231843E071C87AC00706D0E078F0210843E07020791043207170BD000061
:4043000065540010FC1E000810B50022F3F73CFB10BD10B5F3F796FB10BD002070470120704710B5F3F710FC10BD0020704710B5F3F70CFC10BD0000044A0178D18040784E
:4043400000020143D180002070470000F021000810B5F3F7A9FC10BD10B5F3F7C1FC10BD10B5F3F7C9FC10BD10B5F3F7D3FC10BD38B504460020009069460E2000F02DFAF5
:40438000002801D0072038BD00993E200870032088702078C870A07808716088000A487120798871A088000AC871A0790872E088000A4872207A88722089000AC8720A20EB
:4043C00048700320FFF77FFC38BDF8B50546002000906946232000F000FA002801D00720F8BD009C3E2020700A2100F09DFA01460120002946D001260A20A07007462878F2
:40440000E070A978217169880622090A61716878A0712879E0712046294608300C31F0F70AFB0C20002E0ED0204629460E3006221231F0F700FB2046294614300622183140
:40444000F0F7F9FA1820AA7921188A70EA88801C120ACA702A7A21188A702A89801C120ACA70AA7A21188A706A89801C120ACA70221869799170401C607021463846FFF794
:4044800022FCF8BD0026A0700127B8E7F8B5044600200E46009015466946082000F09DF9002801D00020F8BD0099082008708E70CC70200A08714D7104204870FF20FFF7E6
:4044C00002FCF8BD38B50C460021054600916946072000F082F9002801D0002038BD0099302008708D70CC70200A087103204870FF20FFF7E8FB38BD38B505460020009091
:404500006946112000F069F9002801D0002038BD009C3E2020700520A0702878E07028880822000A2071601D6968F0F784FAA9680D200A7862734978A1736070214605209E
:40454000FFF7C1FB38BD38B5054600200C4600906946092000F041F9002801D0002038BD00991320087001208870CD70280A08714C71200A887105204870FF20FFF7A3FB95
:4045800038BD38B50546002000906946102000F024F9002801D0072038BD009C3E2020700420A0702878E070A87820716888000A6071287800280BD0A01D08220021F0F761
:4045C00043FA0C20607021460420FFF77CFB38BDA01D0822A968F0F72EFAF2E738B504460020009069460C2000F0F7F8002801D0002038BD00990C20087020788870A07821
:40460000C8706088000A08716078487120798871A088000AC871A0790872E088000A487208204870FF20FFF74EFB38BD38B50446002000906946062000F0CFF8002801D0EB
:40464000072038BD0099572008708C70200AC87002204870FF20FFF736FB38BDF8B5064600200C46009015466946082000F0B5F8002801D00020F8BD0099052008708E7057
:40468000CC70200A08714D7104204870FF20FFF71AFBF8BDFEB507460020009010480E46019015466946082000F097F8002801D00720FEBD009C324620460199FFF784FD9E
:4046C000A771380AE0710620002E03D1290A25726172082060702146FF20FFF7F4FAFEBD7B0C0000F8B5054600200E4600900C4F6946062000F071F8002801D00720F8BD4C
:40470000009C324639462046FFF75EFDA571280AE071062060702146FF20FFF7D4FAF8BD7C0C000010B5F5F7B7F910BD10B5F5F70FFA10BD10B5F5F72DFA10BD10B5F5F70E
:404740008FFB10BD10B5F5F7A6FB10BD10B5F5F735FC10BD10B5F3F78DFA10BD10B501220A70F5F71FFD10BDF8B505460020074600900D4E6946142000F02FF8002801D097
:404780000720F8BD009C3A4631462046FFF71CFD1022A01DA918F0F74EF9142060702146FF20FFF790FAF8BD1720000010B5F3F75FF910BD10B50029014601D00B2000E05C
:4047C0000220FFF780FA002010BD10B5FAF7F8FB10BD10B5FAF71CFC10BD0A4610B5C1B2104603F037F810BD10B503F0CFF810BDF8B50546C078AE78154C00020643A07CF2
:4048000027468000C03FC019403004222946F0F712F9A07C238A8100C81940302A1D102B15D07D50A17C00234900C91980310E80A17C0B55A17C491CC9B2A174102900D3A8
:40484000A374218A491C2182114602F023FDF8BDEC2600083EB5134C0025E07C21460555E07CC0398000085803F0A6F8E07C401CC0B2E074102800D3E574208A401E208250
:404880000948807A00280CD00095019511206A4602951081558129460A460020029B03F096F93EBDEC260008F021000870B5184C0025207A002825D1F1F7ECF815488574EB
:4048C000C574058225726572A572A5821DE0A07A00280DD0401EA0720D4A0006410DC03A8818515C4068022907D0042907D101E01920F0E703F04AF801E0FFF7ABFFE07A1E
:40490000401EE072E07A0128E1D80348057070BDC0270008EC2600085802000810B5FFF7C5FF002010BD00001C4B13285A7A31D00EDC0E282ED006DC052820D0082827D00C
:404940000C2829D11DE00F2824D0102824D11FE03E280AD004DC1A2817D030281CD112E0572814D0FF2817D114E0500614D5491E01208840D98880B201420BD10CE0012081
:4049800006E0802004E0202002E0022000E00420024201D00120704700207047F021000838B505460020009069460920FFF715FF002801D0072038BD009CFF20207003201B
:4049C000A0702878E07028880422000A2071601DA91CF0F730F8072060702146FF20FFF772F9002038BD03B583B0002069460090888001AA04A91220F1F77EF969460320F5
:404A0000FFF7EBFE00280ED10099FF2008700620887068468088C870000A087103204870FF20FFF750F905B000BD03B583B0002069460090888001AA04A91120F1F75CF90E
:404A400069460320FFF7C9FE00280ED10099FF2008700720887068468088C870000A087103204870FF20FFF72EF905B000BD000038B5044600200C4900900878401E0870C5
:404A800069460520FFF7A9FE00280CD10099FF20087002208870200ECC70087103204870FF20FFF710F938BD5802000810B50B4C617E00290BD00A49884209D1F2F79EFB8B
:404AC000607E022801D1F0F7F5FE0020607610BD02F000FC607E00F03DFF10BDAC210008C0FD0000FEB5044600200290607F0F46401CC6B202A9301DFFF76FFE002801D0DD
:404B00000720FEBD029D21463931E81D019100902246637F1E3229392046F2F7EDF90C49884204D12846FFF75FFE1220FEBD002208492846FFF748FB607FA871361D6E70E6
:404B4000022038702946FF20FFF7BDF80020FEBD01001600A9FD0000FEB5044600200290607F0F46401DC6B202A9301DFFF735FE002801D00720FEBD029D2246A91D481DB4
:404B8000019100902146637F1E3210312046F2F7DBF90C49884204D12846FFF725FE1220FEBD002208492846FFF70EFB607FA872361D6E70022038702946FF20FFF783F89B
:404BC0000020FEBD01001600A8FD0000F8B5044600200E46009069462420FFF7FEFD002801D00720F8BD009D002225492846FFF7EBFA21462046AA1D20311030F2F7C6F927
:404C0000002804D02846FFF7EFFD1220F8BD2178A97521882846090AE97521681C30090C29762168090E69762179A976A188090AE9766168090C29776168090E6977217ACD
:404C4000A9772189090AE977A168090C0171A168090E4171217B001D8170A189090AC170E168090C0171E168090E417124206870022030702946FF20FFF725F80020F8BD47
:404C8000ADFD00000120704738B500200D46009069461020FFF7A1FD002801D0072038BD009C00220B492046FFF78EFAA11D0020F6F744FC21460C310120F6F73FFC1020DC
:404CC0006070022028702146FF20FEF7FCFF002038BD0000A1FD00007CB500200D46009069460620FFF779FD002801D007207CBD009C00220B492046FFF766FA01A8F1F7D4
:404D00005FF868460079A07168464079E07106206070022028702146FF20FEF7D4FF00207CBD0000A2FD000010B5012008700024034803F0CDFA002800D00C24204610BD54
:404D4000E749011010B5012008700024034803F0A5FA002800D00C24204610BD2B4A0110F3B5044683B000200190207D002601461131CAB2332802D9122005B0F0BD01A9A0
:404D8000101DFFF72AFD002801D00720F5E7019D002232492846FFF717FA2068FAF7A2FE277DAF710520009009E080194019801C394602F004FB0836083FF6B2FFB200980E
:404DC000082FF2D880194019801C394602F0F7FA217D009822790818C1B268188270A288091D120AC2706268C9B2120C02716268120E4271227A681882702289091D120AE0
:404E0000C270A268C9B2120C0271A268120E4271227B68188270A289091D120AC270E268C9B2120C0271E268120E4271227C68188270228A091D120AC2702269120C0271E0
:404E40002269120E427169700498022101702946FF20FEF738FF00208FE70000ACFD0000FEB50F460546FF2069460871002000902888F4F7BFFC060027D0F5F73CFB0028EA
:404E800023D069460720FFF7A8FC002801D00720FEBD009C00220E492046FFF795F92878A07128880223000AE07101AAFF213046F5F787FB2072072060700220387021466B
:404EC000FF20FEF700FF0020FEBD0220FEBD0000AAFD000010B500240C708179002904D0012905D01224204610BDF8F7B3FAFAE7F8F7E8FAF7E70000F8B505460F4600887B
:404F0000F4F778FC04006FD0F5F7F5FA00286BD00020009069460620FFF75FFC002801D00720F8BD009EF6F785FA2046F2F7B0FC00283FD1FAF7FAFC5E210A5B6179F3F71A
:404F4000EDFB2246A0320146537D2848012B837A05D09B060DD5B0231B595B890AE09B0603D5B0231B595B8900E01B23DB00703302E01B239B003C33127D807A9BB2012A87
:404F800005D080060DD5B0200059008B0AE0800603D5B0200059008B00E01B20C000703002E01B2080003C3082B2103189B22046F9F75CFE68886034E080F6F757FA0022DC
:404FC0000B493046FFF700F92978B17129880620090AF1717070022038703146FF20FEF772FE0020F8BDFFE70220FBE7FC1E0008B0FD000010B500240C70F0F70FFF034910
:40500000884200D11224204610BD000001001600F8B504460E460088F4F7ECFB05002AD0F5F769FA002826D0A178A878FDF72CFC002801D01220F8BD00200090694606208A
:40504000FFF7CBFB002801D00720F8BD009D00220A492846FFF7B8F82078A87120882946000AE8710620687002203070FF20FEF72AFE0020F8BD0220F8BD0000B2FD0000F7
:40508000F8B504460F460088F4F7B4FB050043D0F5F731FA00283FD00020009069460620FFF79BFB002801D00720F8BD2879009E09280CD02389E288A1886088FDF776F861
:4050C000002806D03046FFF78FFB1220F8BD0C220FE0E87E810604D5A97D890601D41A2207E0C00604D42046FCF7EAFF024600E023220A493046FFF767F82178B171218876
:405100000620090AF1717070022038703146FF20FEF7D9FD0020F8BD0220F8BDB1FD000010B500240C70074A0178074B5173880701D5012200E0002204211846F8F7F0FC42
:40514000204610BDF0210008D4010000F8B504460F460088F4F74EFB060026D0F5F7CBF9002822D00020009069460620FFF735FB002801D00720F8BDA178B078009DF8F7F3
:405180009FFB00220A492846FFF71EF82078A87120882946000AE8710620687002203870FF20FEF790FD0020F8BD0220F8BD0000ABFD0000F3B5044683B00020009005465E
:4051C00021786A4651710120205603261071002809D0042807D0821D05D0921D03D0121D01D0143007D101290FD001A8F0F73CFE2949884200D112256946301DFFF7EDFA5D
:40520000002830D0072005B0F0BD6088FF2811D0F4F7F0FA070000D10225F5F76CF9002806D0002DE8D1EDF709FB6078387317E00225E1E7EDF702FB0020184B184A08E0C5
:40524000D027196A4743C91901D067780F73401CC0B211788142F3D8104861784030C170EDF7D6FAC8E7009E2A460E493046FEF7ABFF2078B071A078F07160880221000A3B
:40528000307207207070049801703146FF20FEF71AFD2846B7E7000001001600AC2100081C1F0008A5FD000010B5044602200870F7F7B6FE207800F04DFB10BD7CB5054655
:4052C0000020184C009020780E46122807D22979154B01A82A68F0F7A3FE002801D00C207CBD20786946401C20700620FFF775FA002801D007207CBD009C00220B492046E9
:40530000FEF762FF2879A07168460079E07106206070022030702146FF20FEF7D4FC00207CBD000058020008714A0110C1FD0000F8B505460020154C009020780E46002888
:405340000FD06878F0F706FF002802D12078401E207069460520FFF740FA002803D00720F8BD0C20F8BD009C002209492046FEF72BFF2878A07105206070022030702146E1
:40538000FF20FEF7A0FC0020F8BD000058020008C2FD000038B500200D46009069461020FFF71BFA002801D0072038BD009C00221C492046FEF708FF1B48016B0978A17171
:4053C000016B0988090AE171016B89782172016B4988090A6172016B0979A172016B8988090AE172016B89792173016BC988090A6173016B097AA173016B0989090AE17336
:40540000016B897A2174006B21464089000A60741020607002202870FF20FEF754FC002038BD0000A7FD0000AC21000810B502F0C9FC10BD10B5264B0022C41A98423CD0DE
:405440001FDC244BC41A98423CD011DC224C031BA0422AD007DC214BC01822D0012822D0C92832D12EE0012B2CD0022B2DD129E02300F5F797FD092A271618272A2A181E3B
:405480002A002300F5F78EFD18211B1E1E0D1D151E13212121212121212121212113170F132104220EE002220CE007220AE0012208E0032206E0052204E0152202E030228D
:4054C00000E00A220A70012010BD002010BD0000ACFD0000A3FD0000A0FD00009A03FFFF10B53D4BD41A9A425AD01CDC3B4BD41A9A4240D00FDC3A4C131BA2422FD005DCCE
:40550000384BD31825D0012B20D125E0012B29D0022B1BD12CE0641F2300F5F743FD062F3217383B3E17092C52D007DC2300F5F739FD080D40430D0D461C490D152C23D067
:40554000162C30D0172C31D0182C3ED000F0B2FF10BD00F022FD10BD00F040FC10BD00F053FC10BD00F026FD10BD00F02AFB10BD00F0B0FC10BD00F0FEFA10BD00F04CFBED
:4055800010BD00F010FB10BD00F051FB10BD00F039FA10BD00F016FA10BD00F0E5FA10BD00F031FB10BD00F045FB10BD00F053FB10BD00F08FFA10BD00F03CFA10BD00F0DA
:4055C000E5FA10BD00F0F4FA10BD00F019FB10BD00F046FB10BD0000ABFD0000A0FD000049FD00009A03FFFF3EB50020009001900290012008700D4602A90C20FFF7EDF8FB
:40560000002801D007203EBD029C002210492046FEF7DAFD01A96846F2F790FB0098A071010AE171010C2172000E60720198A072010AE172010C2173000E60730C2060702B
:40564000022028702146FF20FEF73DFB00203EBDB3FD0000F7B582B006460027012000971070154669460620FFF7B7F8002802D0072005B0F0BD009CF00701D01220F8E79C
:405680003A4620460399FEF79FFD084830180068A071000AE07106206070022028702146FF20FEF710FB0020E3E7000000103C4010B50A4600880249FFF7CCFF10BD000049
:4056C00067FC0000FEB5064600270120009708700D4669460820FFF780F8002801D00720FEBD009C3A460D492046FEF76DFD01AA31460520F0F700FB0198A071010AE17117
:40570000010C2172000E607208206070022028702146FF20FEF7D7FA0020FEBD49FD000070B5674B0E460024C11A664D984270D020DC654BC11A984257D013DC634BC11AD3
:40574000984238D007DC6249411825D0012928D0E3296ED12AE0012932D056293BD0572967D13DE00B00F5F71DFC08A6454A4F555F656AA60C240B00F5F714FC1A9D6B70DB
:40578000752B2B7A267F93989D9D9D9D9D9D9D9D9D9D9D5184898E9D1146304600F09AF816E011463046FFF783FF70BD11463046FFF788FF70BD1146304600F0BFF870BDBD
:4057C0003046F7F747FE04E0114630466A682EE00446204670BD11463046FFF77BFBF7E711463046FFF750FAF2E711463046FFF773FAEDE711463046FFF7A4FAE8E711460A
:405800003046FFF791FAE3E711463046FFF7D2FCDEE719E011463046FFF7ECFBD8E711463046FFF741FDD3E71146AA6830469047CEE740E011463046FFF78EF9C8E7114659
:405840003046FFF74FF9C3E711463046FFF708FBBEE711463046FFF779FCB9E711463046FFF77EFAB4E711463046FFF7AFF9AFE711463046FFF740FBAAE711463046FFF75E
:40588000C7FBA5E711463046FFF718FDA0E711463046FFF74DFD9BE711463046FFF740FC96E711463046FFF79FFE91E71146304600F01EF88CE7314600F01EFE88E7000020
:4058C000AAFD000058020008A2FD00004AFD00009A03FFFF0188CA0701D012207047034A40888918086000207047000000103C40F8B5064600200090012008700D46694645
:405900000C20FEF76AFF002801D00720F8BD009C002209492046FEF757FC3078F2F716FAA07105206070022028702146FF20FEF7CAF90020F8BD0000B4FD00000EB50178E9
:4059400000914068019002AA69460420F0F7D4F900200EBD38B505460020009069460520FEF73BFF002801D0072038BD009C002207492046FEF728FC064821464576A5712C
:4059800005206070FF20FEF79EF9002038BD0000C0FD0000AC210008034802494160816070470000854C01105802000803480249416003498160704781500110580200082E
:4059C0009553011070B50D460446014610222846EFF731F82146284610310D221030EFF72AF8214628461D3104223930EFF723F82120225C214628466A7722311E30EFF7BA
:405A00001AF870BD70B50D460446014610222846EFF711F82146284610310D221030EFF70AF8627F214628466A771E311E30EFF702F870BD70B50C46054601461022A018EE
:405A4000EEF7F9FF29462046103110222030EEF7F2FF2022A818C1780902216083781943090221604078014308022060A95C0843242120606818C2781202626083781A43AE
:405A8000120262604078024310026060695C0843282160606818C2781202A26083781A431202A260407802431002A060695C08432C21A0606818C2781202E26083781A4316
:405AC0001202E260407802431002E060695C0843E06070BD10B5C27812020A6083781A4312020A6043781A4312020A6003781A430A6002790A75037A1B024B60C479234377
:405B00001B024B60827913431A024A6043791A434A60037B1B028B60C47A23431B028B60827A13431A028A60437A1A438A60037C1B02CB60C47B23431B02CB60827B13432E
:405B40001A02CA60437B1A43CA60037D1B020B61C47C23431B020B61827C13431A020A61407C02430A6110BD427812020A80007802430A80704770B50C46054601460622C7
:405B80002046EEF758FFA879A07170BD427812020A8003781A430A80C27812024A80807802434A80704702780A70407848707047427812020A8003781A430A80807888708F
:405BC0007047427812020A8003781A430A80C27812024A8083781A434A80427912028A8003791A438A80C2791202CA8083791A43CA80427A12020A81007A02430A817047A6
:405C0000007808707047427812020A8003781A430A8080788870704702780A7042784A70C27812024A80807802434A807047007808707047C27812020A6083781A43120253
:405C40000A6043781A4312020A6003781A430A6000790871704702780A7040784870704700780870704710B50B460178401C197001460622581CEEF7DEFE10BD034610B584
:405C8000084608221946EEF7D6FE10BD427812020A8003781A430A80C27812024A8083781A434A80427912028A8003791A438A80C2791202CA8083791A43CA80427A1202CB
:405CC0000A81037A1A430A81C27A12024A81837A1A434A81427B12028A81007B02438A81704770B5054640780C46000208802978062208432080E87800026080A9780843B0
:405D000060802879207168796071A91DA01DEEF792FE287B2076A87B0002A081697B0843A081287C0002E081E97B0843E081A87C00022082697C08432082287D000260829E
:405D4000E97C08436082A87D0002A082697D0843A082287E0002E082E97D0843E08270BD7047427812020A8003781A430A8080788870704770B50D460446014610222846EA
:405D8000EEF759FE214610221031A818EEF753FE70BD034610B5084640221946EEF74BFE10BD427812020A80007802430A80704710B50B4641780A021A800178801C0A4365
:405DC0001A8001461022981CEEF735FE10BD427812020A80007802430A807047427812020A80007802430A807047427812020A80007802430A8070477047427812020A80E6
:405E0000007802430A807047007808707047427812020A80007802430A807047427812020A8003781A430A80807888707047007808707047427812020A80007802430A80C0
:405E4000704710B50B460178401C197001460622581CEEF7F0FD10BD10B502780B460A701F2A03D8411C581CEEF7E5FD10BD00780870704770B5054640780C460002088037
:405E80002978062208432080E87800026080A978084360802879207168796071A879A071E91DE01DEEF7C7FD687B6073A87BA07370BD0022835C0B70521C491CD2B2082AC0
:405EC000F8D37047034610B5084605221946EEF7B2FD10BD034610B5084606221946EEF7AAFD10BD034610B5084606221946EEF7A2FD10BD02780A704078487070470278D8
:405F00000A71827812020A8043781A430A80027912024A80C3781A434A8042794A7180798871704710B502780B460A701F2A03D8411C581CEEF77FFD10BD70B5054640787D
:405F40000C46000208802978082208432080A91C201DEEF770FDE87A102200026080A97A08436080294620460C310C30EEF763FD70BD02780A7042784A70807888707047A8
:405F8000427812020A8003781A430A80C27812024A80807802434A807047427812020A8003781A430A80C27812024A80807802434A80704702780A70027912024A60C37859
:405FC0001A4312024A6083781A4312024A60407802434A60704710B504460088F2F732FB00280AD0A07815280FD008DC05280CD013280AD0142806D107E0022010BD1A2802
:4060000003D03B2801D0122010BD002010BD012070470078012801D912207047002070470020704710B50446012008702088F2F709FB002822D06188A08881421CD8114A09
:40604000891F914218D2511D884215D821890D4B0A460A3A1B1F9A420ED2E288FF23F4339A4209D8521C4243C9005000814203D9A0896189884203D2122010BD022010BD4F
:40608000002010BD7B0C00000020704710B501220A700179037E0A46194303292FD8002A02D1417903292AD8018842888A4226D8154B091F994222D2042A20D38289C1898A
:4060C0008A421CD8114B921F9A4218D25A1D914215D8428A0D4C13460A3B241FA3420ED2038AFF24F434A34209D85B1C4B43D20059008A4203D9C18A808A814201D2122078
:4061000010BD002010BD0000FD3F00007B0C0000002070470020704710B50088F2F792FA002801D0002010BD022010BD10B50088F2F788FA002801D0002010BD022010BD10
:4061400010B50088F2F77EFA002801D0002010BD022010BD10B501220A700088F2F772FA002801D0002010BD022010BD002070470078272801D912207047002070470078D8
:40618000012801D9122070470020704710B501790388428804291BD801290AD0934217D80124A403A24213D8202B11D3827B032A0ED8012901D0042902D18179032907D8C6
:4061C0004179032904D8407B410701D0C00800D0122010BD00781F2801D9122070470020704741780A09817812011143C2780A430179114342790A438179C07911430843BE
:4062000000D01220704701794A090AD1027843781A438378C07803431A430A4301D0002070471220704700207047017840780143012901D912207047002070470179012903
:406240000FD8018842888A420BD8084B091F994207D2042A05D34179032902D88079032801D912207047002070470000FD3F000010B501220A700088F2F7E4F9002801D09D
:40628000002010BD022010BD002070470178272902D88078072801D9122070470020704710B50088F2F7CEF9002801D0002010BD022010BD0120704710B50088F2F7C2F92C
:4062C000002801D0002010BD022010BD10B504460088F2F7B7F9002804D0A078012803D9122010BD022010BD002010BD0020704710B504460088F2F7A5F9002804D06088CC
:40630000002803D0002010BD022010BD122010BDF8B50E460021054600910120307069460820FEF75AFA002801D00720F8BD2868009C056800220A492046FDF745FFA57111
:40634000280AE071280C2072280E607208206070022030702146FF20FDF7B5FC0020F8BD26FD000010B50020F1F77CFC002010BDC27812020A6083781A4312020A60437874
:406380001A4312020A6003781A430A6002790A71407948717047C27812020A6083781A4312020A6043781A4312020A6003781A430A60007908717047C27812020A608378DF
:4063C0001A4312020A6043781A4312020A60007802430A60704710B5C27812020A6083781A4312020A6043781A4312020A6003781A430A6002790A71182A01D918220A715C
:40640000002205E083188C185B79521C2372D2B20B799342F6D810BDC27812020A6083781A4312020A6043781A4312020A6003781A430A60C27912024A6083791A431202FB
:406440004A6043791A4312024A60007902434A60704700003EB500200290012008700D4602A90820FEF7B9F9002801D007203EBD6846029CEFF764FA00220D492046FDF7F4
:40648000A3FE68460078A07168464078E07168468088207268468078607208206070022028702146FF20FDF70EFC00203EBD00002FFD00000F4B00B5D2181300F4F772FDAA
:4064C0000B070A0D090916101309070A0900FFF762FF00BDFFF77FFF00BDFFF749FF00BDFFF76AFF00BDFFF797FF00BD0078087000BD0000E002FFFF10B50C4601460F4B1B
