:020000040000FA
:1000000000100020BD2900006926000069260000BC
:1000100000000000000000000000000000000000E0
:100020000000000000000000000000006926000041
:1000300000000000000000006926000069260000A2
:100040006926000069260000692600006926000074
:100050006926000069260000692600006926000064
:100060006926000069260000692600006926000054
:100070006926000069260000692600006926000044
:100080006926000069260000692600006926000034
:100090006926000069260000692600006926000024
:1000A0006926000069260000692600006926000014
:1000B0006926000069260000692600006926000004
:1000C00069260000692600006926000069260000F4
:1000D00069260000692600006926000069260000E4
:1000E00069260000692600006926000069260000D4
:1000F00069260000692600006926000069260000C4
:1001000069260000692600006926000069260000B3
:1001100069260000692600006926000069260000A3
:100120006926000069260000692600006926000093
:100130006926000069260000692600006926000083
:100140006926000069260000692600006926000073
:100150006926000069260000692600006926000063
:100160006926000069260000692600006926000053
:100170006926000069260000692600006926000043
:100180006926000069260000692600006926000033
:100190006926000069260000692600006926000023
:1001A0006926000069260000692600006926000013
:1001B0006926000069260000692600006926000003
:1001C00069260000692600006926000069260000F3
:1001D000692600006926000000F002F800F0ADF882
:1001E0000CA030C8083824182D18671EA246AB464C
:1001F00054465D46AC4201D100F09FF87E460F3E6A
:10020000B6460FCC0126334200D0FB1A3343A24638
:10021000AB461847885A0000A85A00000023002463
:1002200000250026103A01D378C1FBD8520700D32D
:1002300030C100D50B60704710B56E2902D100F0B7
:100240007FFC10BD702902D100F06BFA10BD662949
:1002500002D105F0D7F810BD652902D105F0D2F81A
:1002600010BD672902D105F0CDF810BD612902D17A
:1002700005F0D0F810BD03681B0A01D38023194391
:10028000692902D100F0D8F910BD642902D100F02B
:10029000D3F910BD752902D100F0CEF910BD6F2938
:1002A00002D100F055FD10BD782902D100F026FAE8
:1002B00010BDE92902D100F0F1FC10BDE42902D102
:1002C00000F0ECFC10BDF52902D100F0E7FC10BDF8
:1002D000EF2902D100F048FD10BDF82902D100F04D
:1002E0001BFA10BD0368DB0901D38023194363297E
:1002F00002D100F069FC10BD732902D100F06CFC42
:1003000010BDE32902D101F0C2F910BDF32902D1D9
:1003100001F0C5F910BD002010BD1FB501F0EEF9C8
:1003200004000020002104F0E9FF401C6060002070
:10033000002104F0F9FFE0601FBD0648854603B4C4
:1003400003F0B4F903BC01F0BBFD01F0CFFD03F0F5
:10035000EDFA00000010002070B505460C46164668
:1003600002E00FCC0FC5103E102EFAD2082E02D399
:1003700003CC03C5083E042E07D301CC01C5361FAC
:1003800003E021782970641C6D1C761EF9D270BDC3
:100390007046F0477047000000487047BC170020C7
:1003A00070B50446051F00F05DFB0068002C1AD0F4
:1003B000446801E020466468002C01D0AC42F9D3C7
:1003C00001680A18AA4204D12A6805468918016002
:1003D00000E0456028684119A14205D16168696063
:1003E00021684018286070BD6C6070BD10B5202A6F
:1003F00004DB0146203A9140002010BD91402023AB
:100400009C1A0346E3401943904010BD10B5202AC2
:1004100004DB0846203AD040002110BD0B462024C2
:10042000D340D040A21A91400843194610BD43431F
:10043000514330B55C18010C130C0D4692B25D436C
:1004400080B251432C19054655430A0C09044D1935
:1004500062415843010C00044019514130BDFEB5C2
:10046000054610460C46184373D0AE468C46002015
:10047000AD1A01469C4167D36646002701243D46DC
:10048000B61A9D4102D313463A4621246546764664
:100490002F04360C3E432D0CB61A9D4104D3150C87
:1004A0001B042B4312041034654676462F06360A89
:1004B0003E432D0AB61A9D4104D3150E1B022B4351
:1004C00012020834654676462F0736093E432D0949
:1004D000B61A9D4104D3150F1B012B431201241D95
:1004E00065467646AF07B6083E43AD08B61A9D414D
:1004F00004D3950F9B002B439200A41C65467646BF
:10050000EF0776083E436D08B61A9D411AD392183C
:100510005B41641C16E00018764665464941B71AEF
:100520009D410191009009D36046B11A98418E46D1
:100530008446009801990025401C6941DD07520856
:100540002A435B08641EE6D57246634603B0F0BDDD
:10055000FFE700200146C046C0462A462346F5E78D
:100560007CB51D4616460C00009001D00019401EB7
:10057000084B7B442A4669460190304600F0F9FA60
:10058000002C054603D06946002000F005FB2846F4
:100590007CBD00002D06000070B50446856900682A
:1005A000C10601D5302600E02026C00707D070BD67
:1005B00062683046A1689047206A401C20626D1E28
:1005C000F6D570BD70B5044685690078C00707D1BF
:1005D00070BD6268A16820209047206A401C20629C
:1005E0006D1EF6D570BD70B50C460546012A05D0C6
:1005F0002878800600D5EA69002302E0012305E09F
:100600005B1C934202D2E05C0028F9D1A869E6188D
:10061000C01AA861286AC01828622846FFF7BCFFE4
:1006200004E06A682078A968641C9047B442F8D353
:100630002846FFF7C7FF70BDF7B50025752910687C
:10064000009914A611D000F011FA002802DA4042F5
:1006500011A608E0009909688A0701D50FA602E0F3
:10066000490704D50EA6012501E000F008FA009F15
:100670000024243704E000F02EFC30313955641C8E
:100680000028F8D12B4632462146009800F000FAA7
:10069000FEBD0000000000002D0000002B00000047
:1006A00020000000F8B50F460188090502D5224C4C
:1006B0007C4402E0204C7C440E3405460021243565
:1006C00008E016071209360FA65D6E541E07324366
:1006D0001B09491C16461E43F3D122460478002309
:1006E000240705D5702F06D0002901D0022311322E
:1006F00000F0CEF9F8BD01231032F9E770B50446D9
:100700000D462146106800F0BAF90023024629463A
:100710002046FFF7C7FF70BDD21DD308DB000CCB0E
:10072000C0E730B403682024126823430360082321
:10073000C36130BC0023B5E7704D0000F3B504463B
:10074000002081B020622046E1688847002872D0EE
:10075000252802D06268A168ABE0594F00267F448B
:100760002046E16888472028054608DB312D06D25F
:10077000781920380078002801D00643F0E7B00748
:1007800001D5042086430020E0610746A0612A2DA0
:100790000AD0284604F0AAFD002827D0B800001986
:1007A000303D0090856119E00298BA00121902C824
:1007B000916102902046E1688847012F054617D1D4
:1007C000E06900281FDA202086431CE000980A21F7
:1007D0008069484300994019303888612046E168B3
:1007E0008847054604F082FD0028EFD1012F0AD08A
:1007F0002E2D08D12046E168884705462020064373
:100800007F1C022FC3DBA069002803DA4042A061ED
:1008100001200643F00701D0102086436C2D0BD039
:10082000682D09D04C2D3CD06A2D38D0742D38D08D
:100830007A2D36D016E040E0E1682F462046884702
:10084000B842054609D16C2F29D001208002E16809
:10085000064320468847054604E06C2F1DD0FF2044
:1008600001300643002D28D028464138192803D8E6
:100870000120C00206432035204626602946029A00
:100880001646FFF7D9FC002810D001280BD0F61D22
:10089000F008C0000830029055E74020E1E78020D2
:1008A000D5E70020D3E7361D02964CE7626828465C
:1008B000A1689047206A401C44E7206AFEBD000002
:1008C000EA4C0000F8B5042A2CD3830712D00B7829
:1008D000491C0370401C521E83070BD00B78491C27
:1008E0000370401C521E830704D00B78491C037010
:1008F000401C521E8B079B0F05D0C91ADF00202316
:10090000DE1B08C90AE0FFF727FDF8BD1D4608C930
:10091000FD401C46B4402C4310C0121F042AF5D2DF
:10092000F308C91A521EF0D40B78491C0370401CFE
:10093000521EEAD40B78491C0370401C012AE4D4EF
:1009400009780170F8BD01E004C0091F0429FBD239
:100950008B0701D50280801CC90700D00270704748
:1009600000290BD0C30702D00270401C491E022987
:1009700004D3830702D50280801C891EE3E700228E
:10098000EEE70022DFE70000024670B50A43920757
:100990002AD11E4DEE0104C808C9541B94433440AB
:1009A00017D0D0B2D9B2401A2106014310D190B26B
:1009B00099B2401A210401430AD110021902000A17
:1009C000090A401A2102014302D1100E190E401AE1
:1009D00070BD9A42DFD010BA19BA884201D90120FD
:1009E00070BD0020C04370BD02780B78401C491CCC
:1009F000002A09D09A4207D102780B78401C491C82
:100A0000002A01D09A42EFD0D01A70BD0101010135
:100A100070477047704710B501469E240002CA1502
:100A2000A307002A02D01843002A04DBA21A002AD6
:100A30000CDDD04010BD1206120E01D1400040085E
:100A4000A21A03D4D04040420028F3DDFF22480020
:100A50001206904201D9002010BDC817C04358406B
:100A600010BD704700487047C017002009684A054C
:100A700001D540B27047C905FCD500B2704709687E
:100A80004A0501D5C0B27047C905FCD580B2704790
:100A9000FFB504460D4681B02430009021688806D9
:100AA00004D51022E0699143216000E00120A842B2
:100AB00001DD471B00E000270498A1697A1910188E
:100AC000081AA0612078C00602D42046FFF764FD12
:100AD000002608E003986268A168805D9047206A5C
:100AE000401C761C206204988642F3DB2078C00606
:100AF0000AD52046FFF750FD06E06268A168302065
:100B00009047206A401C206238467F1E0028F4DC93
:100B100007E000986268A168405D9047206A401C29
:100B2000206228466D1E0028F3DC2046FFF74AFDB0
:100B30002078000602D5022005B0F0BD0120FBE7B9
:100B400011680268006A530501D5087009E0D305F1
:100B500001D5088005E0130602D5C21705C100E0E3
:100B6000086001207047000001694A1C0261087892
:100B7000704700B58FB0029100210591054901939E
:100B800079440391114604906846FFF7D7FD0FB0F2
:100B900000BD0000E5FFFFFF0A681070521C0A60EC
:100BA00070470CC908399A4202D2531C0B6010706E
:100BB000704710B54369002B02D0C046C04601E023
:100BC000FFF711FD012010BD1278014624310A7093
:100BD00000224A700122ECE711680022D243E8E7C4
:100BE000F7B50446154686B02B487844002703C85D
:100BF0003E460090019111E007986A467100415A03
:100C000002A800F050FD411C07D02178890603D5C9
:100C1000E269391891420ED83F18761C2078800678
:100C200002D5E069B84206DDAE42E5DB0798710007
:100C3000405A0028E0D1A069C01BA0612046FFF700
:100C4000ABFC154878445A3803C800900020019145
:100C500016E041006A460798415A02A800F023FDB9
:100C60000590401C0AD0002505E0626802A8A16832
:100C7000405D90476D1C05988542F6D30498401C52
:100C8000B0420490E5DB206AC01920622046FFF7DD
:100C900099FC09B0F0BD000072480000F7B5D21D04
:100CA0000025D20815A6D200F52905CA11D0002AC0
:100CB00005DA00214042914111A60A4608E0009958
:100CC00009688B0701D50FA602E0490701D50EA6DA
:100CD00001251146009F0024243704E000F018F994
:100CE00030323A55641C02460A43F7D12B4632464D
:100CF00021460098FFF7CCFEFEBD0000000000007A
:100D00002D0000002B0000002000000070B50446FC
:100D10000021243408E05507D2086D0F30356554A2
:100D20005D072A43DB08491C15461D43F3D10468BF
:100D3000002310A2250708D520252C400C4304D001
:100D4000C46901230CA2641EC461FFF7A1FE70BD3B
:100D500010B5044621461068FFF791FE00230246B5
:100D60002046FFF7D3FF10BDD21DD108C9000CC922
:100D7000CCE7000000000000300000000022030962
:100D80008B422CD3030A8B4211D300239C464EE0A6
:100D900003460B433CD4002243088B4231D3030962
:100DA0008B421CD3030A8B4201D394463FE0C30914
:100DB0008B4201D3CB01C01A524183098B4201D32C
:100DC0008B01C01A524143098B4201D34B01C01A17
:100DD000524103098B4201D30B01C01A5241C3088F
:100DE0008B4201D3CB00C01A524183088B4201D3FE
:100DF0008B00C01A524143088B4201D34B00C01AEA
:100E00005241411A00D201465241104670475DE0FE
:100E1000CA0F00D04942031000D3404253409C46C1
:100E2000002203098B422DD3030A8B4212D389017E
:100E3000FC2212BA030A8B420CD3890192118B4215
:100E400008D3890192118B4204D389013AD09211BF
:100E500000E08909C3098B4201D3CB01C01A52417A
:100E600083098B4201D38B01C01A524143098B4243
:100E700001D34B01C01A524103098B4201D30B012C
:100E8000C01A5241C3088B4201D3CB00C01A524151
:100E900083088B4201D38B00C01A5241D9D2430838
:100EA0008B4201D34B00C01A5241411A00D2014675
:100EB0005241104663465B1001D34042002B00D5DF
:100EC0004942704763465B1000D3404201B50020A1
:100ED000C046C04602BD01468008081A0209101823
:100EE000020A1018020C1018C008820012185200D2
:100EF000891A01E0401C0A390A29FBD27047000018
:100F000010B500F0FBFB001D10BD00BFF143000059
:100F10000B4670B5024689078008084319469D08AC
:100F2000141AA94125090807054308092C19484145
:100F3000250A01060D43010A2C194141200C0D041C
:100F400028430D0C00194D41002140194D41C008A6
:100F500069070843E908840F8D002543840024189D
:100F60004D4124196D41121BAB4107E00925ED43AA
:100F70002C11521963410024401C61411C460A2572
:100F80000026551BB441F1D270BD0000FFB50C46E0
:100F90001E468FB003CA089009914F007D0D00D105
:100FA0006D1E002108460020C0460321099A8905CC
:100FB0000840002A03DA8200801840080840800DAB
:100FC00001280A9002DD0020C0430A9008980743D8
:100FD0000DD0F048F0492818484307141898002805
:100FE0001DD07542291E1DDD0A9842421BE018984B
:100FF000012802D00020302104E00020F24305E067
:101000002154401CB042FBDB30460022189B0021DB
:1010100021540F998B600A60486013B0F0BDBD1B6E
:101020006D1CDFE70A9A002900DA69420BA800F07C
:10103000ADFB0BAB07CB03AB07C30899099800F0D6
:1010400011FC6B4607C30146D4480918002D0091D6
:101050000BDDD24903980A9A49424018002303A99C
:101060000390684600F06EFE08E003990A9A002398
:10107000081803A90390684600F00EFE6B4607C3EC
:101080000004000C03D00020C043410800E01046DB
:10109000189A002A03D00022009215461EE0751E01
:1010A00005D4FFF735FF303262556D1EF9D50122A8
:1010B0000843079602D000227F1C04E020783028E5
:1010C00001D100227F1E002A069787D01EE0112D35
:1010D00007DAFFF71DFF303262556D1C02460A43E6
:1010E000F5D1084303D00098002819D00EE0002164
:1010F000681E05E0235C625C63542254401E491C58
:101100008142F7DBA81B401E07950690079A1899A5
:101110000020A0540F98079B069A81600CC07CE7C2
:1011200011260020189059E7D21DF0B50D4604464F
:10113000D10893B0C90003C90C900D9104F0C0F818
:1011400002460D98C00F01D02D2007E020688107CE
:1011500001D52B2002E04007C00F4001032A0F9069
:1011600001D0072A05DB03462946204600F0CAFACB
:101170000EE12078800601D5E76900E006272846C1
:10118000652D04D0662814D0672D69D12DE000208C
:10119000112F009001DB112300E07B1C0CAA03A996
:1011A00010A8FFF7F3FE1199002610987D1C0E91F0
:1011B00042E001203B460CAAC0070B9001200090A2
:1011C00003A910A8FFF7E2FE119D129810990026BE
:1011D00000280E9501D1781C0D18781B02D44642C8
:1011E0007D1C761EE81B00903AE0012F00DA0127F3
:1011F0000020112F009001DD112300E03B460CAAD6
:1012000003A910A8FFF7C2FE11993D4610980026C9
:101210000E91217809070BD40E99A94200DA0D46E8
:1012200003A9012D04DD4A19203AD27F302A06D0C5
:10123000B84201DA011D04DA012100910FE06D1EB0
:10124000EFE7002802DC86192D1A03E0411CA942B1
:1012500000DD0D46801B401C00900120C0070B9054
:101260002078000705D40098A84202DB0020C04384
:10127000009069460020C8720B98012102AF033725
:10128000C907884225D0022010902B2011900B987E
:1012900000280BDA40420B902D20119006E00B98AD
:1012A000FFF719FE30317F1E0B9039701099481EE0
:1012B00000291090F3DC0B980028F0D111987F1EC4
:1012C00038702088000501D5452000E065207F1E8C
:1012D000387001A8C01BC01D0B900F98002800D0CB
:1012E000012041190098C01709180B980818A16926
:1012F000081A401EA0612078C00602D42046FFF7DD
:101300004BF90F98002805D06268A1689047206AC1
:10131000401C20622078C00625D52046FFF73CF906
:1013200021E0002E07DB0E98B04204DD03A86268BE
:10133000805DA16802E06268A16830209047206A61
:10134000761C401C20620098401E002800900AD1A4
:1013500000F0D4F9C06862680168405CA1689047F9
:10136000206A401C206228466D1E0028D9DC07E058
:1013700062683878A1687F1C9047206A401C206210
:101380000B99481E00290B90F2DC2046FFF71AF952
:10139000032042E601FCFFFF104D0000E1DFFFFFEC
:1013A000D21DF0B504460D46D0088DB0C000466889
:1013B00007683146384603F083FF0246F00F01D03C
:1013C0002D2307E02068810701D52B2302E0400789
:1013D000C00F43016846002B037001D0012000E0DC
:1013E0000020032A0A9001D0072A04DB2946204660
:1013F00000F088F92DE12078800601D40D2500E069
:10140000E5697000400D0D2D01904BDA300D002183
:101410000B9008460020C046032189050840002E95
:1014200005DA82008018C20F10184010084080159D
:10143000012801DD0020C043A9000023182906D39C
:101440009C460A460123183A1B07D34003E00122B9
:101450001205CA4094460C31202902D33A4620395D
:1014600000E032468A40002802DD002A06D119E059
:10147000002817D10121C9078A4213D319466346B0
:101480007F185E41002806D10120C007824202D1A8
:10149000084687439E430B98310D814202D0019844
:1014A000401C01902088000502D57149794402E072
:1014B0006F49794419396B460A9830221A540A98B0
:1014C0000A7C401C1A54401C0A900198002801DC38
:1014D000302000E031201872019A0120002A02D049
:1014E000644BD21804E072003A4302D0614A521CA5
:1014F0000192002D02DC2278120703D56A462E20C5
:10150000507202200022864694460CE032033601D7
:10151000120F6D1E8B5C02AA13546246521C401CB3
:101520009446052A01DA002DF0DC002202AE08E024
:101530003B0F3F01CB5C521C6D1E3354401C082AEC
:1015400001DA002DF4DC23689A0601D511E0401E73
:10155000704504DD3218203AD27F302AF7D00028B7
:1015600007DD3218203AD27F2E2A02D11A0700D482
:10157000401E002D03DD3E223254401C6D1E497C6E
:1015800031540199401C002906DA2D21471C3154A1
:1015900001984042019003E02B21471C31540198EF
:1015A0007D21C900884206DBFFF7F2FB3030F055A1
:1015B0007F1C019101E0642808DB01986421FFF79A
:1015C000E7FB3030F0557F1C019101E00A2806DB73
:1015D00001980A21FFF7DCFB3030F0557F1C0198A1
:1015E0000A21FFF7D5FB3031F1550A98A1697F1C1C
:1015F0007A191018081AA0612078C00602D4204673
:10160000FEF7CAFF216A6E460A980818206204E0B5
:1016100062683078A168761C90470A98401E0A904C
:10162000401CF5D12078C00602D52046FEF7B4FF55
:1016300002AE09E03078761C3E280DD06268A168C1
:101640009047206A401C20627F1EF3D22046FEF79E
:10165000B9FF0DB00320F0BD206A4019206203E0FD
:101660006268A168302090476D1EEDD3F8E7000056
:10167000CB3F000001FCFFFF10B54369002B02D0F7
:10168000C046C04601E0FFF7ABFA012010BD12884A
:101690000146243182840022C2840122ECE71168D1
:1016A0000022D243E8E7F8B516460C460546FFF798
:1016B00027FC0368FF200230C05C012807D0FF2C04
:1016C0000FD8185D00280CD001202C70F8BDFF3316
:1016D0003246214608331868C71828460023B84701
:1016E000F8BD0020C043F8BD10B5002000F080FB1D
:1016F000C046C046012002F05BF810BD00487047AC
:10170000C4170020F8B51F46044601230068DB0219
:10171000032601461840072A05DB002801D017A53B
:1017200006E017A504E0002801D016A500E016A5E4
:10173000102081432160A069C01E002FA06101D04C
:10174000401EA0612046FEF727FF002F09D0384633
:101750006268A1689047206A401C2062C01C206219
:1017600006E0206AFAE762682878A1686D1C904755
:10177000761EF8D22046FEF725FFF8BD4E414E00FA
:101780006E616E00494E4600696E6600F7B51646FA
:101790008AB0334878446C4603467C33C06F5A683D
:1017A0009B680DC42E487844763003AC0DC80DC438
:1017B0003720C001081837211B30FFF7E9FA05462A
:1017C0000C46803D1B3C02D56442012000E0002015
:1017D0000027099010E0E0070CD00C202049784346
:1017E000794432464C3941186846012300F054FAD6
:1017F0006B4607C364107F1C002CECD1184F7F444C
:101800002E3F16E0E80712D02001C0190EC806913D
:10181000089307920068F04201D198190890324667
:10182000012306A903A800F037FA03AB07C36D1024
:10183000641C002DE6D10998002806D0324669467E
:10184000012303A800F07EFA05E001233246694631
:1018500003A800F021FA0A9B07C30DB0F0BD0000F9
:10186000F83C0000034640000A4610B5400D0BD07E
:101870000121C9070F24A40200191C036408214395
:10188000540D2143D20207E000210120F2E7D40FDA
:10189000490021435200401E0029F8DADB0FDB0724
:1018A000184310BDFFB50D46144685B04868516811
:1018B00003F0ECFC00910190A868A16803F0E6FC3D
:1018C00002910390A868616803F0E0FC029A121884
:1018D0008242029201D2012000E00020019A0B18FE
:1018E000D2180028019202D08A4202D903E08A422B
:1018F00001D2012000E000200099081800906868DB
:10190000A16803F0C3FC029A12188242029201D22B
:10191000012000E00020019A0B18D2180028019243
:1019200002D08A4202D903E08A4201D2012000E0BB
:10193000002000990818009028682168400049009C
:10194000400849084018FA49471814E00199400036
:10195000C90F08430090019802994000C90F08433D
:101960000190029803994000C90F08430290039820
:1019700040007F1E039000980028E7DA08980028AE
:1019800001D0EC4E00E00026B74201DA012000E071
:101990000020002804902AD0F71BF806C00E15D0AE
:1019A000029B2021091A039A8B401A430392029A40
:1019B000019BC2408B401A430292019A009BC24095
:1019C0008B4000991A430192C14000917B110DD0C8
:1019D0006F460320C11A03D500218200B95003E0ED
:1019E0008A008100BA587A50401EF3D537460398D2
:1019F0000299002800D00120014308980291002894
:101A000008460CD0002800D001200199019A490510
:101A100008430121D20AC902D202019200E0012149
:101A20000E9B0122D207012B02D0002B03D013E022
:101A3000002807D120E0904204D890420CD1019BAD
:101A40000B4209D0019B5918019105D10099491CFD
:101A5000009101D17F1C009200280DD01021084672
:101A60000020C0460498002806D00F98002803D014
:101A7000082108460020C04628682168019B009A7A
:101A80004840C10F0598C90739430EC009B0F0BDE1
:101A9000FFB587B0099A089808995368926840681A
:101AA000896896460022039317469446089A12685E
:101AB0005300099A5B081268520052089A1A9E4B0A
:101AC000D4180A9A002A01D0352200E0402206925A
:101AD0000022012315460492DB07059324E0002D24
:101AE00005D175460346039E4D1BB34109D3754688
:101AF0006646039B491B049D9841059B7519AC469E
:101B00005F4163463B4308D0059B049EDD07760892
:101B10002E435B080496059301E0521E641EC50F18
:101B2000ED0749184041521C069B9A42D7DB002D15
:101B300004D17546039A6B1A824101D203200CE04E
:101B4000039A0B466B404240134303D0014303D03A
:101B5000012002E0022000E0002061460191002106
:101B6000009702910A99002905D06146400201437D
:101B7000704B019102E08007002302909C4201DA41
:101B8000012000E0002007003AD01A1BD006C00E4A
:101B900015D0029D2021019C091AC5408C40254387
:101BA000029C8C4000D001242543019C0295009D9D
:101BB000C4408D4000992C430194C14000915411C0
:101BC0001DD06D460221002202290CD10320001BEA
:101BD00007E0002804DB8600AE59002E00D0012269
:101BE000401C0328F5DB081B02D588002A5004E0BE
:101BF0008000285810438A00A850491EE3D51C468F
:101C00000A98002802980CD0002800D001200199E1
:101C1000019A490508430121D20AC902D202019260
:101C200000E00121109B0122D207012B02D0002BE2
:101C300003D013E0002807D11FE0904204D890425F
:101C40000CD1019B0B4209D0019B5918019105D180
:101C50000099491C009101D1641C009200280CD00D
:101C6000102108460020C046002F06D011980028F9
:101C700003D0082108460020C04608980999019A17
:101C8000009B006809684840C10F0798C9072143B5
:101C900082600AC00BB0F0BD00B585B00193009220
:101CA0000A460146002302A8FFF7FCFD02A807C868
:101CB00005B000BDFFB50A461F4685B007990193E0
:101CC00001230091014602A8FFF7ECFD0299039859
:101CD000049ECA0F4900D20700920F2249089202BF
:101CE0008C1A0021002800DB0C46450013486D08C3
:101CF000844214D3079A002A04DA441E0026104DA9
:101D0000F64302E004460D460E4610210846002028
:101D1000C046002F03D0042108460020C0462005FD
:101D2000E90A0843009908436905F20A1143ADE640
:101D300002C0FFFF013C0000FF3F0000FF07000062
:101D4000FFFFFF7F00B585B0019300920A46014670
:101D5000002302A8FFF79CFE02A807C8A8E7FFB56A
:101D60000A461F4685B00799019301230091014659
:101D700002A8FFF78DFE02990398049ECA0F49003E
:101D8000D20700920F22490892028C1A00210028E3
:101D900000DB0C46450011486D08844214D3079AB5
:101DA000002A04DA441E00260D4DF64302E00446E4
:101DB0000D460E46102108460020C046002F03D0D5
:101DC000042108460020C0462005E90A084300997E
:101DD00008436905F20A114358E60000FF070000B6
:101DE000FFFFFF7F10B5002801D001F0E1FC10BD1E
:101DF00010B500F01DF8FFF7F5FF10BD70B50546F2
:101E00000C460A2000E06D1C01F0EDFC002D06D010
:101E100028780028F7D102E0641C01F0E4FC002CD3
:101E200002D020780028F7D10A2001F0DCFC70BD38
:101E300010B5002102A0FFF7E1FF012010BD000056
:101E4000534947414252543A2041626E6F726D616C
:101E50006C207465726D696E6174696F6E0000004C
:101E600070B58D180478401CA207920F01D102783A
:101E7000401C231106D10378401C03E00678401C67
:101E80000E70491C521EF9D1002B15D002780C2679
:101E900034408A1A401C0C2C03D0A401121B9B1C3A
:101EA00008E004782402121B401CF8E714780C7038
:101EB000491C521C5B1EF9D5A942D3D3002070BD2A
:101EC000054909B9064800E0044811B90649FEF77A
:101ED00024BA0449FEF721BA00560000002A002067
:101EE000002A0020008000200000002080B502F0C1
:101EF00009FB80BC01BC864602F0D8B91F21014015
:101F000001228A40000F0C2101401B480B589343CB
:101F10000B50704780B57146C90714D1411C0CD0D5
:101F20002949083140F24C220323DB43CB5883423A
:101F300006D00C3A0C31002AF6D1244801F0BEFC40
:101F400009680029F9D0FFF7D9FF80BC01BC86469B
:101F50007046714672467346F4468EF300887447A5
:101F60001F21014001228A40000F0C21014002483C
:101F70000B5813430B5070470402004080B5714664
:101F8000C90714D1411C0CD00F49083140F24C2232
:101F90000323DB43CB58834206D00C3A0C31002A92
:101FA000F6D10A4801F08AFC09680029F9D0FFF748
:101FB000D7FF80BC01BC86467046714672467346A8
:101FC000F4468EF300887447A85600007D5B00003D
:101FD000F0B584B001273A04B04D2B6C13432B6449
:101FE0002B68484E68B1042213432B602B6D1022DE
:101FF000134212D133465B1C0FD02C6D1442FAD021
:102000000BE0012213432B602B6D134205D13346A5
:102010005B1C02D02C6D1442FAD03B4A8A183B4C10
:102020003B4B9A4255D801903E4BCB183A4C00207E
:10203000A34200D307463C4B03269A42344600D3C2
:102040003C46009402259A4200D33D46A940C34332
:1020500007460290B01E0428039620D8ED48B0FB36
:10206000F6F04200022630465043304C0419304D01
:10207000AC420CD8451A0C1A884200D825469D421D
:1020800005D20020002D2B460296039F04D0761C1B
:102090001E488642E7D302E003460296039F039E52
:1020A000761C212ED6D1780222494018009B990334
:1020B000019A1143029CA21E0A430243ED4D2A6479
:1020C000581C7843D349B1FBF0F0604340000D4EFB
:1020D0000EE00321C9436958FE34214204D00D4962
:1020E000084328640C4803E00C49084328640C4862
:1020F0002A6D042102E0761C02D02A6D0A42FAD031
:1021000004B0F0BDFF60DBFF00CA91FE02020000D8
:10211000000E27070EC20000006CDC020E44000017
:102120000090D003009423FD00366E01002847FA8A
:1021300000EA320600FEFFFFCE490A6802430A6049
:102140007047C046F0B52D48036802221340846BE7
:1021500005210D0400212C4215D1A103284912D4D8
:10216000A50B03262E40274DAD5D660A1F2737407D
:102170007E1C6E436400244D2540244C6C43611842
:10218000B1FBF6F18900224C2160856807242C40C0
:10219000022C1AD0012C0ED148F200011D4C73B94B
:1021A0000368134303602368046894430460802237
:1021B000134208D109E0A10017A2515805E0226896
:1021C00080231A4201D047F6005180690F22024055
:1021D000501CB1FBF0F07849086017494118174AC4
:1021E000B1FBF2F1164A1160F0BC02BC8E4671469A
:1021F00072467346F4468EF3008874470802004026
:10220000001BB70030560000FE030000C0C62D00C2
:102210004C17002000110440001BB7000080000094
:10222000000000001027000000000000006CDC022D
:1022300000000000001BB70020A1070040420F0073
:10224000E011002080B500F02FFC5B48006880BCE6
:1022500002BC8E46714672467346F4468EF3008881
:102260007447C046C7480068012101404942694897
:102270000840714672467346F4468EF300887447F0
:10228000C0480068810348F2000008407146724669
:102290007346F4468EF300887447C046000200403F
:1022A000810ACAB2002162B141091F230B409A4042
:1022B000000C0C210140CA484058064941581140C1
:1022C000D9400846714672467346F4468EF300883C
:1022D0007447C0462002004010B501461F48081848
:1022E00003280ED8810001A251188F4600F006B8CD
:1022F00000F01CB800F01EB800F020B818480168C3
:102300001FE04A0E07231A400020E2B1080D1F24E7
:102310000440A240880E0C210140B24840581049A8
:102320004018D94340581040E0400CE00C48006889
:10233000410806E00A480068010A02E0084800680F
:10234000410A0120084010BC02BC8E46714672460C
:102350007346F4468EF300887447C046F0FFFF7F53
:102360001802004080B500F09FFB13480068134935
:10237000096807220A40D04080BC02BC8E467146E4
:1023800072467346F4468EF30088744780B500F0B9
:102390008BFB0948006809490968090907220A40B6
:1023A000D04080BC02BC8E46714672467346F446ED
:1023B0008EF300887447C046541700203402004052
:1023C00010B513480168052002040020114215D100
:1023D0008803104812D48A0B032313400E4AD25CA0
:1023E0004B0A1F241C40631C534349000B4A0A40FC
:1023F0000B4951430818B0FBF3F0800010BC02BC3D
:102400008E46714672467346F4468EF300887447D2
:1024100040020040001BB70030560000FE030000E1
:10242000C0C62D001248016804229143016055483E
:10243000016880229143016030BF704780B5FFF78B
:10244000F1FF80BC01BC86467046714672467346F9
:10245000F4468EF3008874470548016804220A4355
:1024600002604848016880220A43026030BF70471A
:1024700010ED00E00002004080B5FFF7EDFF80BCEA
:1024800001BC86467046714672467346F4468EF32A
:1024900000887447F0B581B03A4D2E6D0321C943D1
:1024A000695840F200320A401F49884200D95AB1A7
:1024B0001E49884203D940F200139A4204D01C49B5
:1024C000884200D808460146286804273843286017
:1024D0002A6D1020024205D1624A521C02D02B6D97
:1024E0000342FAD02869072202432A61286A0F2290
:1024F000904328622A6D0120024205D1C004FFF7F3
:1025000067FD04462E6D03E00020FFF761FD0446E1
:102510000220002100F00EF8F00602D42868B8432B
:102520002860204601B0F0BD0090D003006CDC02B2
:1025300000366E01F0B581B0124C266D226804257C
:102540002A43226010221640236D134205D1454BC9
:102550005B1C02D0276D1742FAD0226907231A4369
:102560002261226A0F27BA430A43226221699943F2
:102570000143216100F098FA16B92068A843206051
:1025800001B0F0BD00020040F0B50023DC43830A37
:10259000DDB2124B75B146091F273740BD4065407B
:1025A000060C0C2737400E4EF659F61837692F40A7
:1025B00017433761450E07222A406AB1050D1F26D1
:1025C0002E40B2406240800E0C2404400548005961
:1025D000C45814400C43C450F0BDC0461002004023
:1025E0002056000010560000B0B57346DB0714D12A
:1025F000431C0CD00F4B083340F24C240325ED4311
:102600005D59854206D00C3C0C33002CF6D10A48AB
:1026100001F054F91B68002BF9D0FFF7B5FFB0BCEF
:1026200001BC86467046714672467346F4468EF388
:1026300000887447A85600007D5B000010B5084A6A
:10264000116801400123814207D0064C0021641C1F
:1026500004D0116801408142F8D11946084610BDE6
:1026600050020040FF60DBFFFEE7F0B500231C4690
:102670000125A5400D4207D015469D4003269E40EA
:102680000768B7432F4307609B1C641C102CEFD1D5
:10269000F0BDF0B500231C460125A5400D4207D032
:1026A00015469D4003269E40076BB7432F430763A3
:1026B0009B1C641C102CEFD1F0BD0000F0B581B064
:1026C00001273C07FDF764FE6B4D6C4E2042284607
:1026D00000D0304600903F04FDF75AFE204204D05F
:1026E000009A70683842FCD003E0009A686838426B
:1026F000FCD0D06B04210143D16301B0F0BDC046D2
:10270000F0B581B0044601252E07FDF741FE3042A9
:1027100001D05A4900E05849486928400090E061DA
:102720008B6907273B40E3600B691E0D0F231E409A
:10273000374806600E69360C1E40364806600E6942
:10274000360B2E40344806600D692D0A1D40334873
:1027500005600D692D0903263540314805600D6976
:102760001D4030480560CD682D0D35402E4E35603A
:10277000CD68280C18402D4D2860C868000B3840E3
:102780002B4A1060C868000A18402A4A1060C868BE
:1027900000093840284F3860C86818402749086049
:1027A0001B4800680A2358431A4A1268101840F25E
:1027B000D07280182060184800685843174A126881
:1027C00080186060164800685843164A12688018DE
:1027D000A060306858432A6885182561009840B980
:1027E000152D04D302202062143D256101E0012053
:1027F00020620F48006858430E4A126880183A68F1
:102800005A43096851186061A16101B0F0BDC0462A
:1028100098290020B029002090290020A829002014
:10282000842900209C29002088290020A02900203C
:102830008C290020A429002094290020AC29002004
:10284000B0B5044601200507FDF7A2FD284201D0DE
:102850000A4800E008480A4901600268012A03D0DA
:10286000016001680129FCD12CB12046B0BC02BC3A
:102870008E4600F007B8B0BD0010044000100450B0
:102880005713EBA5F0B585B004460120019005076C
:10289000474E301F0490474F381F0090FDF778FDDA
:1028A0000395284201D0009804902046002C7CD04B
:1028B00001980504FDF76CFD0399084204D0049BC0
:1028C00038682842FCD003E0049B30682842FCD0E2
:1028D000E169586919B101990843586108E0019903
:1028E00088435861206A022802D12069143020618F
:1028F000E0680493986121690A200294B1FBF0F228
:1029000013054243891A090419436269B2FBF0F3C3
:102910001C030C434343D11A09022143029A9269D2
:10292000B2FBF0F304465C43121B0A431901114346
:102930000191029C2168204A8918B1FBF0F20346FC
:102940005343C91A090412050A436168B1FBF0F345
:102950001C0314434343C91A09022143029A926893
:10296000B2FBF0F35843101A08431C010443FDF76F
:102970000FFD0399084203D038682842FCD002E0DA
:1029800030682842FCD0049804610446FDF700FD3D
:102990000399084204D0019938682842FCD003E02A
:1029A000019930682842FCD0E16005B0F0BDC04616
:1029B000041004400410045030F8FFFF80B596481E
:1029C00059210160162101608821016001680029F8
:1029D000F6D0DB21C943044A42500021016000F0D7
:1029E0007FF8FDF7F9FBFEE7A55A00008A480021B1
:1029F00001607046714672467346F4468EF3008855
:102A00007447C04610B5010E094A8B58FF242406AE
:102A1000A04301248440A3438B5010BC01BC8646D4
:102A20007046714672467346F4468EF300887447CA
:102A30000800004080B57146C90711D1411C09D07A
:102A40000E4940F24C220B68834206D00C3A0C31FE
:102A5000002AF8D10A4800F031FF89680029F9D02E
:102A60003AF02AFB80BC01BC86467046714672462D
:102A70007346F4468EF300887447C046A85600009B
:102A80007D5B0000644859210160162101608821A6
:102A9000016001680029F6D070467146724673469F
:102AA000F4468EF30088744780B53AF001FB07497D
:102AB00008603AF0DDFA0649086006494018064900
:102AC000B0FBF1F00549086080BDC0464C170020FE
:102AD0005417002020A1070040420F00E011002001
:102AE00070B53E483E490160D021032343501F2268
:102AF000D4433C4D2E462640D42286503A4EAD1942
:102B00006D1E25401D43D823C55004244450374C26
:102B10008450374CC45005244450364D8550364DB2
:102B2000C55006254550354D8550354DC5500725B6
:102B30004550210781503349C150C822012181509D
:102B4000826808239A4382602F4A42602F480246D7
:102B5000C3322F4B1A6058600020C2439A60DA607B
:102B60002C4B1A605A60941E9C60DA601A615A619C
:102B70009A611A620C22521E0C4694405D6A2543EB
:102B80005D62042AF7D88A04996A914200D170BD27
:102B9000214959230B6016230B6088230B600B68B7
:102BA000002BF6D01D4B11241C601D4C5C60D860BE
:102BB0000120186118690028FCD19868401C0BD1CD
:102BC0009A602120D8600120186118690028FCD182
:102BD000F720C04301220A50FEE7C04608ED00E09E
:102BE0000000000000D003000010000000000410EE
:102BF000E1FF0710007E8000E37F8000008000304E
:102C0000E17F0130E1FFFF5F0000FA05FCFEFFFFFE
:102C100080E300E000F002400001004000C00040FE
:102C20000008200010B5044600201B498C4209DC36
:102C30001D498C4213D01D498C4212D01C498C4234
:102C40000BD021E015498C4205D015498C4204D0A7
:102C500014498C4218D1174804E0174802E00D4887
:102C600000E016483AF018FA02280AD140F20010A3
:102C700004430E48844208D110BC01BC86463AF099
:102C80000FBA80000EA1085810BD10BC01BC8646CA
:102C90003AF00ABA0200805EFF10054000110540BC
:102CA00000100550001105500000054000010540CE
:102CB000001005400500405F0400005F0300C05E97
:102CC000001BB700008000000000000000000000B2
:102CD000000000001027000000000000001BB700EB
:102CE0000020EFF3058171B1324A11684B1C0AD004
:102CF00048025C4B185810600C204843584A13187F
:102D000010589860481C714672467346F4468EF31C
:102D10000088744710B5411EEFF305820020072993
:102D200010D87AB10C224A434D4B9A189368083256
:102D300043B10020106048021E4A1368494C2350DA
:102D40001160012010BC02BC8E467146724673466B
:102D5000F4468EF300887447B0B50020EFF3058188
:102D6000F1B1404C01203E4940F200220023A51859
:102D70000D604C608B6020600C31401C09282C4693
:102D8000F4D1D84340F60061364A505009480360F8
:102D900082F30B8882F30988022080F314880120D3
:102DA000B0BC02BC8E46714672467346F4468EF342
:102DB000008874475017002001460020EFF3058279
:102DC000B2B10223EFF314821A40491E07290FD82B
:102DD00072B10C224A4322498A181146083193687D
:102DE00033B1506880F30B88086880F309880120AC
:102DF000714672467346F4468EF300887447C046A7
:102E0000B0B501460020EFF30582F2B10223EFF3E3
:102E100014821A40491E072917D8B2B10C224A431E
:102E20000F4B9D1829460831AC6874B1EFF3098443
:102E30006D68AC4209D39A58944206D80C60094890
:102E400080F30B8880F309880120B0BC02BC8E4659
:102E5000714672467346F4468EF300887447C04646
:102E6000D8170020381800201048006800F066B914
:102E70000E48006800F071B90C48006800F07CB999
:102E80000A48006800F0CAB901460848006800F026
:102E900055B8C0460548006800F073B8034800689C
:102EA00000F014B90148006800F03CB93C2800204B
:102EB000F0B581B00C46054600F0AAFC5720285C0E
:102EC0002E4656362F46573720B9307810B9542041
:102ED000285C88B12846083000F097FA5520002178
:102EE0002954317039700CB12846A04701B0F0BCAC
:102EF00001BC864600F0CEBCA86CC0688047F5E7F0
:102F0000B0B50C46054600F0D1FC88B15620295CCE
:102F1000002061B1EA6D296E0120914207D0084678
:102F2000214600F046FC0146012001B90846B0BD2B
:102F3000B748B849F02201F0E5F9C046B0B50D46F2
:102F4000044600F065FCA06C4068804701465620AE
:102F500001222254E56521665420205C48B1A06C12
:102F6000016928468847582000212154206E606658
:102F700002E0204600F024F8B0BC01BC864600F018
:102F800089BC10B5044600F043FC572001212154B0
:102F9000A06C4069804710BC01BC864600F07ABC3A
:102FA000B0B50C46054600F081FC18B1E86E44430C
:102FB000201DB0BD96489749FC2201F0A3F9C046F8
:102FC000F0B589B00D46044600F070FC002873D0BF
:102FD0005820205C2646583608B1A16E09E0606E84
:102FE000A16E281A0840E26C0123904202D301200E
:102FF00030700023E06D451B0D40226D0BB3552052
:10300000205C27465537D8BB002606962D480590EC
:103010002D480890954200D315460794204629462E
:10302000FFF7BEFF0246083405A92046334600F0EC
:1030300024FA089810B1816805A8884701203870E3
:103040001EE095421ED22946002502951D4801909A
:103050001D480490914200D3114603942046FFF787
:103060009FFF02462046083001A92B4600F005FAD2
:10307000049810B1816801A8884755200121215486
:1030800009B0F0BDA16C09698847A06C4068804711
:10309000606600213170E16D081AA16E0140A942FD
:1030A00006D9A06C406909B0F0BC02BC8E4600474E
:1030B000226D9142C8D3E3E75548564940F20412C5
:1030C00001F020F9E53000000456000010B5044678
:1030D00000F09EFBA06CC068804710BC01BC864617
:1030E00000F0D8BBB0B5044600F092FB552000219B
:1030F0002154A06C406880470546E26D206E9042E6
:1031000003D0294600F055FB18B1A06C40698047F8
:1031100003E020462946FFF753FFB0BC01BC8646BA
:1031200000F0B8BB10B5044600F072FBA06C8068DC
:10313000804710BC01BC864600F0ACBB10B504460D
:1031400000F066FB204600F02FF8A06C80698047F5
:1031500010BC01BC864600F09DBB10B5044600F0D3
:1031600057FB204600F020F8A06C0068804710BC98
:1031700001BC864600F08EBBB0B5054600F048FBAA
:10318000A86C4068804704465420285C38B928461B
:103190002146FFF7B5FE10B1A86C4069804700F0EA
:1031A00079FB2046B0BD0000F0B581B0044600F0C8
:1031B0007DFB38B32046083000F027F95520002564
:1031C000255456202552582001272754E5652566A9
:1031D0006566A06CC06980470090466838462946FD
:1031E0003246FDF703F9411EE8431F2E00D808467A
:1031F000A0660098006808494118B1FBF0F0E0664D
:1032000001B0F0BD02480349C22201F07BF8C0467C
:1032100064590000845900003F420F0010B5044675
:1032200000F0F6FAA06CC0698047044600F032FB5B
:10323000204610BDF0B581B01F4616460D46044627
:10324000083000F03BF90D480830A0602868542190
:1032500000226254791CE164A0640698401C206539
:1032600000F0D6FA2660686860602046FFF79CFF91
:1032700000F010FB204601B0F0BDC046F055000044
:1032800000200870012070471D2070471520C043A2
:103290007047002070471046704701207047FDF7C7
:1032A0007FB81520C04370471820C243002001B9E1
:1032B000104670471520C04370470168896A084767
:1032C0000020704701680B6900210122184701683E
:1032D0008969084703681B691847704701680B69CB
:1032E00000210A4618471520C043704710B582B028
:1032F000014680696C462160083101F029FD02B069
:1033000010BD01688968084701468069083101F0ED
:10331000CBBD000010B504460020A060E060206135
:1033200060610D480830206000F08AFCA06102490D
:1033300001F0D8FD204610BD03330000FEDE000082
:1033400010B50446044808302060A06921460831C1
:1033500001F0AAFD204610BDC855000070470000CE
:1033600070B5054600240F281ADCA80014490C5833
:103370000E18022D14DC601C12D1284600F028F82B
:10338000044660B9284600F025F8044638B90D48CF
:103390000078BFF35F8F0C4C0121084202D03460EB
:1033A000204670BD074800F02DF90028F7D00748E7
:1033B0000830054C2060034800F04EF9EFE7C046A6
:1033C0005817002038280020B42800206C55000031
:1033D000002070470020704770B51C461646054611
:1033E00000F016FA2846FFF78FFF2E626C62A8697C
:1033F00001F049FD82194C4128462346FFF776FF2C
:1034000070BC01BC864600F045BAB0B584B0054634
:1034100000F0FEF92846FFF777FF2C462834686B4A
:1034200020B13820285C08B101F064FC0020039032
:103430000290019000906946204600F0C4F803987D
:1034400010B181686846884700F024FA04B0B0BD26
:1034500010B504468068E168226A636A12184B411D
:103460002046FFF743FF606B30B1016828342046E7
:1034700010BC04BC9646084710BDF0B581B000935F
:1034800015460F46064600F0C3F934462834706BE3
:1034900020B93820305C08B101F000FC20463946E4
:1034A00000F091F830462A46009BFFF795FF01B0E7
:1034B000F0BC01BC864600F0EDB9000010B5044632
:1034C000FFF728FF144808302060204620301821DC
:1034D000FDF757FA382001212154204610BDC0467F
:1034E00080B500F005F880BC02BC8E4600F088B8BC
:1034F00010B504460848083020602046FFF785FFD5
:10350000606B18B18168204628308847204610BC7F
:1035100002BC8E46FFF714BFDC55000010B584B026
:10352000044600200390029001900090616B29B145
:103530004A682146283168469047606B03902046D0
:10354000FFF763FF039848B101686846884703980E
:1035500010B181686846884704B010BD02A004A17C
:103560000B4A00F0CFFEC0465F6F70730000000092
:103570002E2F6D6265642D6F735C706C6174666F65
:10358000726D2F43616C6C6261636B2E680000008A
:103590003B02000080B5FFF7ABFF80BC02BC8E464B
:1035A00000F02EB8FFF7A4BF06C800685310C0187B
:1035B00001231A4201D0026851580847704710B5DC
:1035C0001CC91CC010BDB0B50D460446884211D0C0
:1035D000E06810B181682046884700202060606064
:1035E000A060E060E96821B14A682046294690471A
:1035F000E868E0602046B0BD0120704711207047A8
:10360000FCF7CEBE80B501460378032213400020AC
:10361000012B04D00B781A4012B1012A05D180BDCC
:10362000022003430B70012080BD02A01449094A07
:1036300000F068FE286775617264202620435841B7
:103640005F47554152445F4D41534B29203D3D203A
:1036500030000000E705000080B5017803220A4031
:10366000022A05D1FC22114001220A43027080BDCA
:103670000248034940F2F05200F044FE1A5B000099
:10368000515B000080B501A000F0B7F8507572657D
:10369000207669727475616C2066756E6374696FEB
:1036A0006E2063616C6C65642100000010B50748F2
:1036B00001687622064B10C910C3521EFBD1044983
:1036C000016010BC01BC864600F01EBF08ED00E0A2
:1036D00000100020F0B583B003460020002B59D025
:1036E000002957D0029159690D46463D882D51D881
:1036F00003250D400020461B6E41C8274F40019214
:1037000017430125002F009500D13D462E4030255E
:103710007543214E75191E69B600AF599D6840F674
:1037200010666E435D683C246C431D682C19A41917
:10373000DB681A4E7343E318DB19194C1B19CE29A9
:103740000CD1019A1AB9174CA342019A22D8012A26
:1037500007D1154CA342019A1CD802E04729019ACF
:1037600015DB1120C043471CC82900DC384602B1D4
:10377000384640F26D144C434A1ED517AD0F52190E
:103780009210A2181018094A801846439B190298F3
:103790000360009803B0F0BDF458000080510100B0
:1037A00080AEFEFF7F223100FFD02F00329CFFFF52
:1037B000FEE710B5034682420AD901200024914257
:1037C000024600D22246994200D32046104310BD43
:1037D000012000249142024600D22246994200D3A1
:1037E0002046104010BD80B582B001A908700120AC
:1037F000024601F035FD02B080BDFDF775FF0120E6
:10380000EFF3108101400020401A4841704700004A
:1038100080B500F029FB064801684A1C02D0491C0B
:10382000016080BD03A010A13F2200F06BFDC046E7
:10383000BC280020637269746963616C5F7365639F
:1038400074696F6E5F7265656E7472616E63795FC5
:10385000636F756E746572203C2055494E54333247
:103860005F4D4158000000002E5C6D6265642D6F55
:10387000735C706C6174666F726D5C736F7572638C
:10388000655C6D6265645F637269746963616C2E07
:10389000630000000448016811B1491E016000D0B6
:1038A000704700F0EFBAC046BC28002000F026BBED
:1038B0000120EFF3058101B90846704783B070B568
:1038C00081B07546044605A80EC001200E49D1E816
:1038D0004F2FC1E8430FFF20024212D10B480026B0
:1038E00031462A4600F010FB09A03146324600F06E
:1038F000F3FE05A90091204600F0CAFD0AA000F0E1
:103900009DFD00F0E1FDC046CC2800200001FF80B5
:10391000466174616C2052756E2D74696D65206509
:1039200072726F72000000000A00000080B500B9DA
:10393000FEE700F0F3FC0000F0B58FB072460D46D4
:103940000746D00709D10020C64378684168A942DC
:1039500042D880684018A8423ED9FFF759FF099520
:1039600001200B900346029000260C9698480068B0
:103970000A90B8680169426989180D910068801839
:103980000E900197934C1C4309A8A04704960395F9
:1039900005960696B868016942698918079180689A
:1039A0008018089003A8A0470746099502980B9035
:1039B0000C96874800680A900198806801694269FE
:1039C00089180D91406880180E9009A8A047F64309
:1039D00007B93E46FFF75EFF30460FB0F0BC02BCB1
:1039E0008E46714672467346F4468EF300887447DD
:1039F0000020714672467346F4468EF30088744781
:103A0000FF20714672467346F4468EF30088744771
:103A10007146CA07011D02B1014608680068714677
:103A200072467346F4468EF30088744710B57346A9
:103A300002460020C043DB0715D153685A689C68D2
:103A4000A2188A4226D91A69521E002A22DBDB6894
:103A5000D4001B191C688C421BD9C4001B19521EB0
:103A6000002AF7DA16E013685A689C68A2188A429E
:103A700010D91A69521E002A0CDBDB68D4001B190E
:103A80001C688C4205D9C4001B19521E002AF7DAA3
:103A900000E0586810BC02BC8E4671467246734600
:103AA000F4468EF3008874477146CA07011D02B1BF
:103AB000014608688068714672467346F4468EF384
:103AC000008874477146CA07011D02B101460868A3
:103AD0004068714672467346F4468EF30088744718
:103AE00080B500F079F8002080BC02BC8E4671469B
:103AF00072467346F4468EF300887447F0B58FB073
:103B000074460D46E10713D1E9184F1E0021CE433C
:103B1000AF4250D344686168A9424CD8A468641885
:103B2000AC4248D9AF4203D0B94244D8BC4242D992
:103B3000019200930746FFF76BFE09950220029061
:103B40000B9000260C96224800680A90B86801691C
:103B5000426989180D91006880180E9001201D4C53
:103B6000044309A8A0470098049003950198059084
:103B70000696B8684169026952180792C0684018F1
:103B8000089003A8A0470190099502980B900C9605
:103B90000F4800680A90B8680169426989180D9158
:103BA000406880180E9009A8A0470198F64300B914
:103BB0000646FFF76FFE30460FB0F0BC02BC8E46E3
:103BC000714672467346F4468EF300887447C046C9
:103BD00054170020A01700200249034A034B0AC0D3
:103BE000026070474C5600003456000060560000DA
:103BF000014800F003B8C04674560000B0B582B06A
:103C00000446FFF705FE0A4D287858B90423684694
:103C100003600848084A2146FFF70CFB0121297080
:103C200006490860FFF736FE0448006802B0B0BDE0
:103C3000B028002040280020485500003C280020E3
:103C400000487047685C0000F0B581B00A46044641
:103C50000068411C24D02272830840F2C0310B401E
:103C60007E4919430091617A062940D8C5B28F0078
:103C700001A6F619B746C04600F014B800F01EB809
:103C800000F028B800F006B800F004B800F02FB833
:103C900000F033B80321042302B11946617226E013
:103CA00001B0F0BD01262F46AE40002200983146FB
:103CB000FEF7EFFC607A012803D008E001262F46CA
:103CC000AE40022200983146FEF7E3FC607A0228FB
:103CD0003D4605D101221146A9400098FEF7D9FCC6
:103CE000227A0321042002B101466172206801B0EA
:103CF000F0BC04BC964600F0CDBC0621002AF6D1EB
:103D000058490B4340F2C0323C328100114001223D
:103D10005A500621EBE7C046B0B50D460446016097
:103D2000481C0AD00021284600F08CFC40F20020FC
:103D30002081E8B2012181406160B0BD002200F025
:103D400001B8000070B515460E460446FFF7E4FFC3
:103D5000701C1DD02068411C1BD00121002D0A467B
:103D600000D12A4640F2C03340F2C0353C358600CF
:103D70002E40800818403B4B03439A512046FFF7E2
:103D800063FF0021204670BC04BC964600F00AB8D0
:103D900070BD02480249282200F0B4FAAC59000074
:103DA000C4590000F0B581B004460068421C22D01E
:103DB000820840F2C0352A40284B1343062935D8E3
:103DC000C6B200968F0001A6F619B74600F015B8E6
:103DD00000F018B800F01BB800F006B800F004B806
:103DE00000F024B800F024B803292ED140F20031AD
:103DF000218103212CE001B0F0BD01210098814018
:103E0000002208E0012100988140022203E0012203
:103E10001146009881401846FEF73BFC227A0321A8
:103E2000042002B101466172206811E061720FE066
:103E300006216172237A5BB90A490A433C35810045
:103E4000294001235350062102E005492181042124
:103E500001B0F0BC04BC964600F01CBC0040005011
:103E60000104000000480050EFF31080EFF31081D0
:103E700072B624490A7822B901220A7082430C489A
:103E80000270704780B50120EFF31081014207D026
:103E90000648002101700648007800B162B680BD76
:103EA00004A00BA1362200F02DFAC046ED29002017
:103EB000B9280020216172655F696E746572727540
:103EC0007074735F656E61626C6564282900000020
:103ED0002E5C6D6265642D6F735C68616C5C6D62F5
:103EE00065645F637269746963616C5F7365637451
:103EF000696F6E5F6170692E630000000148007891
:103F00007047C046ED29002070B58EB014460D46AE
:103F1000064601A8001D3021FCF733FD0395002E55
:103F200000DB184E019618483018032802D8686B39
:103F3000EC6B00E001A808900294FFF769FC1348BD
:103F400001684A1C026049B901A811491CC81CC17A
:103F50001CC81CC11CC81CC13CC83CC101A80D49DF
:103F60001CC81CC11CC81CC11CC81CC13CC83CC10D
:103F70000948016809B107488847FFF78BFC0EB074
:103F800070BDC0460101FF80C3FE007FC428002031
:103F900050290020B8290020C8280020F0B585B09D
:103FA000044640683821415C11B93A21405C08B1AF
:103FB00005B0F0BD2068006880472068C069804770
:103FC0000568002D4ED01F21CAB20126334693400A
:103FD0009D4205D0491E0027FF221142F4D100E086
:103FE0000F4640680290001F03901D283FD2606872
:103FF000002101910160416020684068804704947D
:1040000064683B2167543A22019FA754A762E76284
:104010002062A56030463946029AFCF7E7F9411E56
:104020000720039A9040E1602061134A39463B46DD
:10403000FCF7FDF928187941401EB9412A463B4654
:10404000FCF70DFAA061E161276367632687049C92
:10405000204600F063FF204605B0F0BC02BC8E464F
:1040600000F06CBD054806492D2200F04BF90348CD
:1040700003493B2200F046F940420F00005A00007D
:10408000025A000001480321016070470801054001
:10409000434802210160BFF34F8FBFF36F8F70471A
:1040A00002480221016074480160704704E200E0A8
:1040B00080B53B4802210160BFF34F8FBFF36F8F84
:1040C000384838F0FDFF5E480021018080BDC046C1
:1040D00000487047A056000070B53048018839B1DB
:1040E0002F4802210160BFF34F8FBFF36F8F70BD68
:1040F000012606802B4C0022204641F2000138F0B8
:10410000EFFF204638F0E0FF274838F0F1FF274C5A
:104110002046FEF787FDC10B491E802934D240049A
:1041200037D10320C006014321605A25284600F0FC
:104130003BFA50486060284600F036FA364800687E
:10414000C421364A4250164802210160BFF34F8F06
:10415000BFF36F8F7007216801432160284600F08C
:1041600023FAF005216801432160284600F01CFA7B
:10417000B007216801432160284600F015FA700657
:1041800021680142FBD070BD09A01849832200F0CC
:10419000B9F817A01549842200F0B4F8FC290020D2
:1041A00084E100E00300C05E03000004000105405C
:1041B000287072657363616C655F74696D657220E8
:1041C000213D202875696E7433325F7429202D31AA
:1041D00029202626207072657363616C655F74699F
:1041E0006D6572203C3D203132370000BC5B000021
:1041F00028636C6B5F74696D65722025204E555F76
:10420000544D52434C4B5F5045525F534543292018
:104210003D3D20300000000008ED00E00D4F0000A3
:104220000148006800F02AB89817002080B50448BB
:10423000008808B9FFF750FF0248006880BDC046FB
:10424000FC2900200C010540084903224A60084B64
:1042500002221A60022800D81046064B984200D36A
:1042600018460860044802607047C04604010540D3
:1042700084E200E0FFFFFF0004E100E010B5044627
:10428000FFF7C6FA0748007808B9FFF7B1FC0648FF
:1042900000682146FEF70CFE10BC01BC8646FFF705
:1042A000F9BAC046B02800203C28002080B5144848
:1042B000016881F38888406801218843F0B444464E
:1042C0004D4656465F46F0B40121884301460246FA
:1042D0000346044605460646074680468146824612
:1042E0008346844680F300888447F0BCA046A946F4
:1042F000B246BB46F0BC3F20000600F083FFFAE761
:104300000000041080B582B00B460146684602608A
:104310000148002200F068F84401FF80F0B585B044
:10432000FFF776FA02A80A21FFF708FD002649E008
:1043300040F2C0343C3481002140800840F2C03259
:104340001040264D2843012200924250214F38460A
:1043500000F077FF0298411C37D081000194214082
:10436000800840F2C03210402843002242503846B4
:1043700000F067FF761C042E24D300270298411C0E
:1043800023D08100019E3140800840F2C0321040AD
:10439000124C2043009A42500F4D284600F051FF26
:1043A0000298411C11D081003140800840F2C03297
:1043B0001040204300264650284600F042FF7F1C54
:1043C000042FDBD30298411CB2D1054805492822AD
:1043D000FFF798FFF0490200801A060000480050DD
:1043E000AC590000C4590000F0B581B07646009386
:1043F0000D460121094BD3E84F7FC3E8441FFF213D
:104400000F4209D1069F11463246FFF77DFD28462F
:1044100000993A4600F060F900F056F8CC280020E8
:1044200083B080B581B003AF0EC703A9009100F03F
:104430002FF801B080BC01BC03B00047B0B582B01A
:1044400004460220002521462A4600F009FFFFF716
:10445000DFF911E0E8B20D2806D001A90D2008709F
:104460000220012200F0FCFE02200122214600F081
:10447000F7FE601C2578044620780A28EAD0002838
:10448000F2D102B0B0BC01BC8646FFF703BA00000F
:1044900010B5A2B00B46024601A88421FCF760F8D3
:1044A0000446842805D301A87F3005A10522FCF726
:1044B00009FA012C02DB01A8FFF7C0FF22B010BDF2
:1044C0002E2E2E0A0000000080B50D480122D0E8F3
:1044D0004F1FC0E8432F002BF8D1C80705D0FFF7C6
:1044E00097F9BFF34F8F20BFFDE7FFF7E1F928B938
:1044F000FFF785F910B10120FFF718FAFFF70EFF5B
:10450000B429002070470000F0B581B01B48017845
:1045100091BB012404701A4F59203860162038606E
:104520008820386038680028F6D00420FDF704FEA3
:104530002046FDF701FE08252846FDF7FDFD022671
:104540003046FDF7F9FDA004FDF7F6FD1020FEF75B
:1045500075F82046FEF772F82846FEF76FF83046E9
:10456000FEF76CF84020FEF769F80648FDF792FF69
:10457000FEF79AFA0020386001B0F0BDEC29002067
:10458000000100400090D00306480021017000F0B7
:104590005FBDC04680B500F06FFD0248012101708B
:1045A00080BDC046B828002070B5044600F060FD0C
:1045B0004068012181404E1E00F05AFD00680A4902
:1045C00088420CD100F0F6FD054600F0F3FD411BDA
:1045D0003140621A8C4205461446F6D270BD03A0E3
:1045E0000DA13822FFF78EFE40420F0075735F74F5
:1045F00069636B65725F6765745F696E666F2829B2
:104600002D3E6672657175656E6379203D3D203182
:1046100030303030303000002E5C6D6265642D6FBC
:10462000735C746172676574735C5441524745549E
:104630005F4E55564F544F4E5C6E755F74696D6595
:10464000722E630038F05CBDB0B5421C1BD042082E
:104650007C231340420978241440E2180C4BD458B0
:1046600080001C2505400F20A84084430C43D450F3
:10467000B0BC01BC86467046714672467346F4462D
:104680008EF300887447124812496422FFF73AFEFD
:104690003000004080B5421C12D0C91ECAB2032AA5
:1046A0000DD8C3B201219940800840F2C0330340C5
:1046B0000648184380BC08BC9E46FDF7D6BF80BDA7
:1046C000034804492722FFF71DFEC0460040005062
:1046D000B1590000F65B0000F0B581B000920D46C4
:1046E0000646032040073E4C21680A4602404F42DE
:1046F000824200D08FB2080CC3B23A483A46FFF764
:104700008FFE39483818132845D8810001A2511866
:104710008F46C04600F026B800F027B800F028B851
:1047200000F029B800F02AB800F02BB800F02CB83F
:1047300000F02DB800F02FB800F02DB800F02BB825
:1047400000F029B800F027B800F025B800F023B831
:1047500000F021B800F01FB800F01DB800F01BB841
:1047600000F03AB8A168474813E0A16841A010E002
:10477000A1683CA00DE0A16835A00AE0A1682FA0C7
:1047800007E0A16824A004E0A16827A001E0A168D7
:104790001BA0FFF745FE3046FFF750FE61683A4820
:1047A000FFF73EFE4DB139A0FFF748FE2846FFF760
:1047B00045FE38A00099FFF733FEA1683648FFF7A1
:1047C0002FFE21683548FFF72BFE354801B0F0BCBD
:1047D00002BC8E46FFF724BE04A0FFF721FEDAE7F5
:1047E000B8290020515A0000CFFEFFFF41737365C6
:1047F0007274696F6E206661696C65643A200000AE
:104800004D65737361676551756575653A203078DC
:1048100025582C200000000054696D65723A203044
:104820007825582C200000004576656E74466C6132
:1048300067733A20307825582C2000004D656D6F45
:104840007279506F6F6C3A20307825582C20000018
:1048500053656D6170686F72653A20307825582C09
:10486000200000004D757465783A20307825582C6A
:10487000200000005468726561643A203078255841
:104880002C2000003C5A00000A5B00000A46696CBC
:10489000653A20002B256400F75A0000A25A000058
:1048A000225A000080B59F4838F00AFC80BC01BC49
:1048B00086467046714672467346F4468EF300880B
:1048C0007447C04610B5964800680221084202D1DC
:1048D000944838F0F9FB184800680121084207D1D4
:1048E00000242046FDF7ACFF2046214638F01CFC92
:1048F00010BC01BC86467046714672467346F4464B
:104900008EF300887447C04680B585480068022150
:10491000084202D1834838F0D7FB074801680120DC
:10492000084080BC02BC8E46714672467346F4460F
:104930008EF300887447C04600100440F0B597B06D
:10494000774800680221084202D1764838F0BCFB63
:104950000320C043744D28580127384201D138F054
:10496000D7FB3E043C073C48017891BB019407709B
:1049700064201190002410940F97062012900E943A
:104980000D940C940CA835492246FEF7A3FE00288E
:10499000214656D0664CFBF7FBFC0199084203D038
:1049A00020683042FCD002E028683042FCD0FDF79D
:1049B00085FEFBF7EDFC0199084203D020683042E8
:1049C000FCD002E028683042FCD0E86B5749086010
:1049D000019CFBF7DDFC204204D0554801683142C0
:1049E000FCD002E028683042FCD003A8FDF788FE26
:1049F00005980F900698129007980E901849039A00
:104A0000511811910499491E10910A9921B90B99D5
:104A1000022901D10C300E9008980D9009980C9045
:104A20000CA802A900242246FEF754FE00282146C5
:104A300007D03E4800680299081808490968441AD6
:104A40000021204617B0F0BC04BC9646724673465F
:104A5000F4468EF300887447F4290020F0290020E2
:104A600094F8FFFFF0B581B005462D48006802219B
:104A7000084202D12B4838F027FB03200090C043A6
:104A8000294F38580124204201D138F041FB2748F2
:104A9000056025042407264EFBF77AFC204203D04C
:104AA00030682842FCD002E038682842FCD0FDF78C
:104AB00005FEFBF76DFC204203D030682842FCD095
:104AC00002E038682842FCD018480068F863FBF719
:104AD0005FFC204203D030682842FCD002E03868F6
:104AE0002842FCD01348FDF7CDFE0D48416948F23D
:104AF00000020098014200D00F4A5C49B1FBF2F17C
:104B0000484300F09EFB01B0F0BC01BC86467046F5
:104B1000714672467346F4468EF300887447C04669
:104B2000080200400100807204100440F8290020AF
:104B3000041004502455000010270000F0B583B085
:104B4000044646683A20305C10B93920305C08B120
:104B500003B0F0BD204600F0E1F962685168A1B3EE
:104B6000156B0B68012700200195AB423D4600D92B
:104B700005460292526B4968914200D9074691421C
:104B800000D03D46002D63D1002701981B1A0197E4
:104B90007F4102988069012500938342284600D80E
:104BA00001987F1E9141029AD269914200D8019DDD
:104BB000914200D02846029A156978BB1346926844
:104BC0002A4882420DD1009824E0306AF1683269A7
:104BD000101808402168096903B0F0BC04BC96466F
:104BE00008473B201B5C4BB100981A46FBF7FEFBC5
:104BF00000231F4A801859411C4A09E000270098E9
:104C00003B46FBF714FC1A4A80187941174A3B4689
:104C1000FBF725FC854200D30546029A106A40192D
:104C2000D5680540306A854219D020680169284658
:104C30008847206840688047316A8D4202D9A8427F
:104C400003D305E0A84200D282E7884200D37FE781
:104C50002068406903B0F0BC02BC8E46004705A046
:104C60000D4940F20812FFF74DFBC04640420F00CD
:104C70003F420F006D617463685F7469636B20214C
:104C80003D2071756575652D3E7469636B5F6C6160
:104C900073745F7265616400025A000080B582B06F
:104CA0000948D0E85F1F0131C0E8521F002AF8D13F
:104CB000090401D002B080BD028800236846036069
:104CC000024803A1FFF790FBC028002023010480C5
:104CD00044656570536C6565704C6F636B206F76CF
:104CE0006572666C6F7720283E20307846464646CF
:104CF0002900000080B582B00A48D0E85F1F013962
:104D0000C0E8521F002AF8D189B2074A914201D067
:104D100002B080BD0288002368460360034804A1F6
:104D2000FFF762FBC0280020FFFF00002401048081
:104D300044656570536C6565704C6F636B20756E70
:104D4000646572666C6F7720283C20302900000073
:104D5000F0B583B01D4617460E460446FEF758FDD3
:104D6000204600F0DBF8756037600898B060636833
:104D70005868F0B100930196029400221146034650
:104D800004680120BC42044600D814465E68AE4266
:104D900000D81046AE4200D004466CB9D86800284E
:104DA0001946ECD10020019EF0601946029C009B40
:104DB00008E00020F06016E0019EF3600029029CEC
:104DC000009B10D0CE60186B01210022B84208462B
:104DD00000D310465B6BAB4200D31146AB4200D010
:104DE000084608B103E05E602046FFF7A7FE03B067
:104DF000F0BC01BC8646FEF74DBDF0B581B005465E
:104E0000FEF706FD2868C068804768683A21415C63
:104E100079BB3921012747544168393021B30097C4
:104E2000284600F07BF82C466868026B41680D68E4
:104E3000002395423A4600D81A46466B4D68B54263
:104E400000D81F46B54200D03A46002A25460AD16E
:104E5000CA68426003681BB18868984768684268FE
:104E6000002A009FDCD13930002101702846FFF76D
:104E700065FE01B0F0BC01BC8646FEF70BBD80B5F7
:104E800000F001F880BDB0B50446FFF787F8FEF7E3
:104E9000BFFC204600F042F86068046B456BFEF7EB
:104EA000F9FC20462946B0BDB0B50C460546FEF7D4
:104EB000AFFC69684868A04207D070B1C168A142E0
:104EC00009D000290846F9D107E0E0684860284683
:104ED000FFF734FE01E0E168C160B0BC01BC86466A
:104EE000FEF7D8BCB0B50C460546FFF757F8FEF7FD
:104EF0008FFC68680460B0BC01BC8646FEF7CABC83
:104F00004A480121016000F04BB9C0460248032124
:104F10000160FFF785B9C04608010540F0B585B0CE
:104F2000044646683A20305C002878D12068406802
:104F300080476168096A884271D0316A3062401ADC
:104F4000B168F468044000257848814261D004913A
:104F5000764A0027204639463B46FBF768FA3B2253
:104F6000B55C002D039026D001970F462A46FBF72B
:104F70004DFA044602912A46FBF738FA039A101AB2
:104F8000019B1A465A41521E8F41B16A0918B162FB
:104F9000F06A7841F0620122049DA9421F4600D3C5
:104FA0003A4600B13A4633462833002A029D30D1B2
:104FB0000022049F24E000250F46049A2B46FBF7AD
:104FC0004EFA04460291049A2B46FBF730FA039AF4
:104FD000101A2A466A41521E8F41B16A4118B162C5
:104FE000F06A7841049FF0620122B94200D32A4658
:104FF00000B12A4633462833002A029D09D10022F7
:10500000C91B196011465141491E90415860641CEA
:105010005541306B00193063706B6841706305B0A7
:10502000F0BDC046014801210160704708000540FD
:105030003A4801210160BFF34F8FBFF36F8F704774
:105040000248012101606E480160704704E200E0FF
:1050500080B5324801210160BFF34F8FBFF36F8FDE
:105060002F4838F02DF858480021018080BDC046F7
:1050700000487047945C0000B0B52748018839B1FA
:10508000264801210160BFF34F8FBFF36F8FB0BD82
:1050900001250580224C0022204640F2002138F0F4
:1050A0001FF8204638F010F81E4838F021F81E4C42
:1050B0002046FDF7B7FD1D4AB0FBF2F3591E8029CB
:1050C00020D25A43801A22D10320C0060143216016
:1050D0004A48606030480068C021304A42500F485A
:1050E0000560BFF34F8FBFF36F8F680721680143DF
:1050F0002160A807216801432160680621680142F8
:10510000FBD0B0BD0AA019496922FFF7FBF818A02F
:1051100016496A22FFF7F6F8FE29002084E100E034
:105120000200805E020000040000054040420F00C3
:10513000287072657363616C655F74696D65722058
:10514000213D202875696E7433325F7429202D311A
:1051500029202626207072657363616C655F74690F
:105160006D6572203C3D2031323700002D5C00001F
:1051700028636C6B5F74696D65722025204E555FE6
:10518000544D52434C4B5F5045525F534543292089
:105190003D3D20300000000008ED00E0014F000020
:1051A0000248016809B10248084770479C1700206F
:1051B000685C000080B50448008808B9FFF75CFF10
:1051C0000248006880BDC046FE2900200C00054052
:1051D000084A01215160084B19600223022800D8B7
:1051E0001846064B984200D31846106004480160E8
:1051F0007047C0460400054084E200E0FFFFFF0066
:1052000004E100E080B5054900F0A4F8FBF703FCD9
:1052100080BC02BC8E4600F003B8C04600007A4451
:1052200070B540F2E8364643FEF7E2FC0446FFF76D
:1052300026FE05462046FFF722FE401BB042F9D36A
:1052400070BD70B50446FEF7FBFC0546FFF717FE80
:1052500006462846FFF713FE801BA042F9D370BD17
:1052600070B514460D46FEF77BF8092640B101687B
:10527000CB68294622469847002800DB70BD46428D
:10528000FBF78AF806600020C04370BDF0B4040C40
:105290008BB2264682B25E43104658430D0C370C43
:1052A000360400218019164679416E43370C3604C6
:1052B0008019264679416E438919F0BC7047000079
:1052C0004900CA020243100000D004204A0D01D058
:1052D00001221043044A490D914201D102210843A1
:1052E000012800D105207047FF07000030380A2848
:1052F00001D20120704700207047000010B500293E
:105300000AD00878002807D005487844FBF73CFB12
:10531000002801D0002010BD0248784410BD0000D4
:10532000B2090000AA09000010B500290AD00878C7
:10533000002807D005487844FBF726FB002801D059
:10534000002010BD0248784410BD0000960A0000FD
:105350008E0A000070B5420064414B005C41120EA1
:1053600039D01B0E38D0FF2A3CD0FF2B3AD0D218B0
:105370007F3A40024902400A490A4518ED010600F9
:105380004E43000A090A48430104731A4019190CD4
:105390004318990F04D05B08012149075B1A521C7E
:1053A000D80904D3401CF50301D19D0607D0FF2A7C
:1053B00008D2D50506D0E4072043401970BD012569
:1053C000A843F4E7002A01DCE00770BD2402FF20B7
:1053D0002043C00570BD1B0EFF2A03D0FF2B01D058
:1053E000E00770BDFF2636064500B54206D84D00E1
:1053F000B54203D8D218FF2A00D0E7E7004870BDB5
:105400000000C07F03B402487844844603BC604770
:105410001DBDFFFF03B402487844844603BC6047C7
:1054200085BFFFFF303132333435363738394142AA
:1054300043444546403058003031323334353637F6
:1054400038396162636465664030780004000008A2
:105450000000000000000002000100001000000039
:1054600000000000000000003031323334353637A0
:105470003839616263646566787000303132333484
:1054800035363738394142434445465850000000CC
:1054900002400000000000A00000000005400000E5
:1054A000000000C8000000000C4000000000409C0C
:1054B00000000000194000000020BCBE00000000F9
:1054C00034400000BFC91B8E00000004B54000003E
:1054D000504BCFD06607E2CF010000006C410000C6
:1054E0003E8251AADFEEA73401000000D94200003D
:1054F000DCB5A0E23A301F97FFFFFFFFB445000084
:10550000FD25A0C8E9A3C14FFFFFFFFFFF3F00003B
:105510000000008000000000FF3F0000000000804D
:1055200000000000D00700000100000001000000A2
:105530000600000000000000000000000000000065
:105540000100000000000000712E0000792E000014
:10555000A52E00009D2E0000892E0000952E000033
:10556000692E0000812E00000100000000000000F4
:10557000000000005D3300009F3200008132000017
:10558000973200008932000093320000C1320000DF
:105590009B320000C5320000DD3200008D32000079
:1055A000E7320000D5320000CF320000BB320000ED
:1055B000A9320000F9350000A3320000B532000026
:1055C000FD350000DB32000000000000000000009C
:1055D000413300003D33000085360000000000002C
:1055E00000000000F1340000E134000051340000FC
:1055F0000000000000000000A53500009535000007
:105600001D350000A9350000BF350000BD35000084
:105610000000000004000000080000000C00000072
:10562000000000000400000008000000100000005E
:1056300001020204D7000000890100006F0200008F
:105640001903000064050000E411002004000000BC
:105650000000000000000400545900000100000098
:105660000400000000000410000004005C59000069
:10567000010000007C560000D0280020D940000026
:105680002D4200009140000085400000494200008A
:10569000A1400000B1400000D14000000100000026
:1056A000008000001800000004000000903C800210
:1056B000000200000600000006FF43070020000073
:1056C000FFFFFFFFFFFFFFFF00400000030000009F
:1056D00003000000000001001D00000001000000A8
:1056E00000000001070000000700000000000200A9
:1056F0000C0000000C00000000000400FFFFFFFF92
:1057000001008072000000001C0000041CFE034029
:10571000080000000700000407000040200000000F
:10572000FFFFFFFFFFFFFFFF400000000C0000082D
:105730000C000080800000001D0000041D000077A8
:10574000000100001A0000049A3C80420020000082
:10575000040000040400005F0000020005000004D3
:105760000500405F000002001000000810000080EB
:10577000000000011100000811000080000000027C
:10578000120000081200008000000004130000084E
:1057900013000080000000080D0000040D004066AA
:1057A000010000000E0000040E0060660200000010
:1057B0000F0000040F00A0660400000006000008AF
:1057C0000600C0A608000000FFFFFFFFFFFFFFFF6D
:1057D00010000000070000080700E0A620000000FD
:1057E00010000004103D805700000100110000046B
:1057F000913DA0570000020012000004123C8C777B
:105800000000040013000004933CAC770000080083
:1058100014000004143DCC770000100015000004B3
:10582000953DEC77000020000800000408000040CF
:10583000010000000900000409000040020000000F
:105840000A0000040A0000400400000000000008F4
:1058500000FC07B6000001000100000801FD27B6AA
:10586000000002000200000802FE47B6000004002B
:105870001800000418000040010000001600000895
:1058800016000080000001001700000817000080CB
:10589000000002001A0000081A000080000010003A
:1058A0001B0000081B0000800000200017000004FF
:1058B000177F345200008000FFFFFFFFFFFFFFFF54
:1058C000000000011F000004190000800000000219
:1058D0001B0000049B3C80420100000008000008FF
:1058E0000800008000000100090000080900008095
:1058F000000002000000000080DE280080C84D008B
:1059000000A7760000349E008012C700809FEE0042
:10591000007E1701805C400180E9670100C89001AA
:105920000055B8010000000080DE2800001A4F007A
:1059300080F8770080859F000064C80000F1EF00C8
:1059400080CF180100AE4101003B6901801992012E
:1059500080A6B9010000000000080000000004104B
:1059600000080000636F72655F7574696C5F696E33
:105970005F637269746963616C5F73656374696F97
:105980006E2829002E5C6D6265642D6F735C686102
:105990006C5C4C6F77506F7765725469636B65729E
:1059A000577261707065722E637070006F626A2D3D
:1059B0003E70696E20213D202850696E4E616D65F4
:1059C000294E43002E2F6D6265642D6F732F746115
:1059D00072676574732F5441524745545F4E555654
:1059E0004F544F4E2F5441524745545F4D3233353B
:1059F000312F6770696F5F6F626A6563742E68002C
:105A000030002E5C6D6265642D6F735C68616C5C48
:105A10006D6265645F7469636B65725F6170692E46
:105A200063000A2D2D204D6265644F53204572722C
:105A30006F7220496E666F202D2D0A004B65726EC5
:105A4000656C204572726F723A20307825582C2090
:105A5000000A0A2B2B204D6265644F532045727259
:105A60006F7220496E666F202B2B0A4572726F721F
:105A7000205374617475733A203078255820436F31
:105A800064653A202564204D6F64756C653A202565
:105A9000640A4572726F72204D6573736167653A6F
:105AA00020000A466F72206D6F726520696E666F06
:105AB0002C2076697369743A2068747470733A2F75
:105AC0002F6D6265642E636F6D2F732F6572726F19
:105AD000723F6572726F723D307825303858267487
:105AE00067743D4E555F50464D5F4D323335315FE3
:105AF0004E5053415F53000A4572726F72205661D7
:105B00006C75653A2030782558000A4C6F636174D3
:105B1000696F6E3A20307825580028677561726485
:105B20002026204358415F47554152445F4D415321
:105B30004B29203D3D204358415F47554152445F2A
:105B4000494E49545F494E5F50524F475245535357
:105B5000002E5C6D6265642D6F735C706C617466A1
:105B60006F726D5C736F757263655C6D6265645FA7
:105B700072657461726765742E637070004E6F6E2B
:105B80002D73656375726520646F6D61696E207435
:105B90007269657320746F20636F6E74726F6C200E
:105BA000736563757265206F7220756E64656669D2
:105BB0006E6564206D6F64756C652E002E5C6D6281
:105BC00065642D6F735C746172676574735C5441B6
:105BD000524745545F4E55564F544F4E5C544152B8
:105BE0004745545F4D323335315C6C705F74696387
:105BF0006B65722E63002E5C6D6265642D6F735C45
:105C0000746172676574735C5441524745545F4ECA
:105C100055564F544F4E5C5441524745545F4D3298
:105C20003335315C70696E6D61702E63002E5C6D72
:105C30006265642D6F735C746172676574735C5424
:105C400041524745545F4E55564F544F4E5C544158
:105C5000524745545F4D323335315C75735F74691B
:105C6000636B65722E630000705C000010290020D9
:105C700095450000B551000031500000255000004E
:105C8000D1510000415000008945000071500000D2
:105C90000000000040420F0018000000E85D000016
:105CA000E0110020DC050000601E0000C86000005C
:105CB000BC170020441200001C020000100100006C
:105CC00043000000F8FFFFFF0040404040404040DC
:105CD00040404141414141404040404040404040BF
:105CE0004040404040404040400502020202020263
:105CF00002020202020202020220202020202020B2
:105D000020202002020202020202909090909090C5
:105D10001010101010101010101010101010101083
:105D200010101010020202020202888888888888F7
:105D300008080808080808080808080808080808E3
:105D400008080808020202024000000000000000EB
:105D50000000000000000000000000000000000043
:105D60000000000000000000000000000000000033
:105D70000000000000000000000000000000000023
:105D80000000000000000000000000000000000013
:105D90000000000000000000000000000000000003
:105DA00000000000000000000000000000000000F3
:105DB00000000000000000000000000000000000E3
:105DC0000000000000000000000000001C000000B7
:105DD00043000000F8FFFFFF0C0000000E00000071
:105DE0000F0000002E000000101D3000000085B0E4
:105DF0000A460346039002A8017001920093FFE750
:105E00004CF2C000C4F21B100B680121084201D003
:105E1000FFE7F514320014300C01684022114301F1
:105E2000604CF20C10100B2221016003984CF2041C
:105E3000010E501501086002A80078002808D1FF63
:105E4000E70020C0434CF208181309E00C3132205F
:105E50000B4AF60321C0F2550101606A4210561147
:105E60004600051CBFF36F8F7C1004006840901241
:105E70000B14E18E10080120049002E00006201DA2
:105E8000FFE7049805B07047B0B587B013460C46DD
:105E9000054605900491039240F200107E12596A63
:105EA00012166E1288B841E0100802930194009512
:105EB00003B210070120069038E02A42205C320429
:105EC000EA500440F2041021F83006FFE740F25097
:105ED0002024040068101EC6D11E56011E321CF874
:105EE000120A646310425CE30AE0B8120072041103
:105EF0001EFFE7069807B0B0BD82B00146019000D2
:105F00009180400401229162452811D01004084676
:105F100002F2072C81B0BA16260615B8714696C84B
:105F2000AE0548983600981600981004009801A60F
:105F3000100480B584E8100A029002984FF6FF72B0
:105F4000CE044310400E70040002CF0E14100F2236
:105F50001205104001225205904201910B64170274
:105F600098C2101501CFF6E07140180121FFF7A487
:105F7000FE039005E00298000C129E0C380CFFE71F
:105F8000039804B080BD80B586D048090490039181
:105F900000200290D228090298039988420FD21E4D
:105FA000101202994A1C029289004058FFF7B8FF6C
:105FB000002803B818080120059003E0EBB416058B
:105FC0009010040598064A5804B0B588422012067D
:105FD00090059104920598C01C0321884305900602
:105FE000BC1271BC0C0C2C710840069003930294F7
:105FF000019536031621702168140400283F369E4F
:10600000064003040752049800F03CF88A100B077E
:10601000900CE00698001D06906410041D04907E0C
:106020001C051F0590BCA8031A07841804079808CC
:106030008456839C16422270040078010A9007005F
:1060400002019A101810D204104206203C06019852
:106050000091037E0305163C05322E76002E365342
:106060002E857E85386D5E0429CA0546341D980349
:106070007F901DB80428110068049900900846FF1D
:10608000F76CFF0099814238212205125632A81A76
:10609000655642000110056CDC02FF0161086101D8
:1060A0000231000143FB4D04001D0030B54D462078
:1060B000B4456903699946C368826841680068A865
:0860C0004720BCA94630BD00D9
:020000040003F7
:10D000007FE97FE9C5F76CBE7FE97FE9C5F782BE9E
:10D010007FE97FE9C5F7A0BE7FE97FE9C5F7CCBE10
:10D020007FE97FE9C5F7ECBE7FE97FE9C6F784BCFD
:10D030007FE97FE9C6F7DCBC7FE97FE9C6F7E0BCA2
:10D040007FE97FE9C6F7E4BC7FE97FE9C6F7EEBC7C
:10D050007FE97FE9C6F728BD7FE97FE9C6F732BDE2
:10D060007FE97FE9C6F73CBD7FE97FE9C6F746BDAA
:10D070007FE97FE9C5F766B87FE97FE9C5F7E2B8E0
:10D080007FE97FE9C5F7EEB87FE97FE9C5F7F8B832
:10D090007FE97FE9C5F704B97FE97FE9C5F71CB9E6
:10D0A0007FE97FE9C5F75EB97FE97FE9C5F76EB92A
:10D0B0007FE97FE9C5F784B97FE97FE9C5F7A2BCBD
:10D0C0007FE97FE9C4F726BF7FE97FE9C4F756BF50
:10D0D0007FE97FE9C5F7B2B97FE97FE9C5F7CCB948
:10D0E0007FE97FE9C5F780BA7FE97FE9C5F77EBCB4
:10D0F0007FE97FE9C5F79EBC7FE97FE9C5F7C2BC40
:10D100007FE97FE9C7F7A0BA7FE97FE9C7F7CABB24
:10D110007FE97FE9C7F7D6BB7FE97FE9C7F7F4BBB3
:10D120007FE97FE9C7F70ABC7FE97FE9C7F79ABCC7
:10D1300000000000000000000000000000000000EF
:10D14000FFFFFFFFFFFFFFFFFFFFFFFFFFFFFFFFEF
:10D15000FFFFFFFFFFFFFFFFFFFFFFFFFFFFFFFFDF
:10D16000FFFFFFFFFFFFFFFFFFFFFFFFFFFFFFFFCF
:00000001FF
