:1070000055C000006EC000006CC000006AC00000E7
:1070100068C0000066C0000064C0000062C00000DC
:1070200060C000005EC00000E8C400005AC000005C
:1070300058C0000056C0000054C0000052C00000FC
:1070400050C0000078C000004CC000004AC00000E2
:1070500048C0000046C0000044C0000042C000001C
:1070600040C000003EC000003CC000003AC000002C
:1070700038C0000036C0000034C0000032C000003C
:1070800030C000002EC000002CC000002AC000004C
:1070900028C0000026C0000024C0000022C000005C
:1070A00020C000001EC000001CC0000011241FBE34
:1070B000CFEFDAE0DEBFCDBF11E0A0E0B1E0EAE162
:1070C000FFE702C005900D92AC3BB107D9F711E084
:1070D000ACEBB1E001C01D92A23DB107E1F78FD347
:1070E0001AC78ECFF89410926F0010928100109200
:1070F00085001092840081E085BF15BE76985D986A
:1071000028980C94000008952091C6013091C70181
:107110002F5F3F4F3093C7012093C601932F37FF56
:1071200003C08EEF831B982F990F921710F4769857
:107130000895769A08951F920F920FB60F92112418
:107140002F938F939F93EF93FF931092850010924C
:1071500084008091BC019091BD01009741F001979E
:107160009093BD018093BC01892B09F45D988091B7
:10717000BE019091BF01009741F001979093BF012C
:107180008093BE01892B09F42898E0E0F0E0859116
:1071900094918F5F9F4F49F08091C0019091C10100
:1071A00001969093C1018093C001FF91EF919F914F
:1071B0008F912F910F900FBE0F901F90189584E024
:1071C0008093E9000DC08091E8008B778093E80000
:1071D00003C08EB3882351F08091E80082FFF9CF7D
:1071E0008091E80085FFEFCF8091F1000895982FFE
:1071F00083E08093E9008091E80085FD0DC08091D7
:10720000E8008E778093E80003C08EB3882369F08E
:107210008091E80080FFF9CF9093F1005D9A84E6B9
:1072200090E09093BD018093BC0108954F925F92CE
:107230006F927F928F929F92AF92BF92CF92DF9286
:10724000EF92FF920F931F93CF93DF9384E080938D
:10725000E9008091E80082FF57C2289A84E690E016
:107260009093BF018093BE01AADF182F853481F46B
:107270008CE195E29093C1018093C00107B600FCB8
:10728000FDCFF999FECF81E180935700E89503C0C7
:10729000843519F494DF8DE00DC28C34E1F3803530
:1072A000D1F3843721F484E4A2DF80E003C2813685
:1072B00011F489E5FFC18134B1F481DF182F7FDF3C
:1072C00090E0880F991FAA2797FDA095BA2F312F1C
:1072D000330F20E0442737FD4095542F822B932B0A
:1072E000A42BB52BB8C1803711F483E5E3C18335F6
:1072F00049F4C0E0D1E089917ADF21E0C730D207BC
:10730000D1F7D9C1863521F481E371DF80E3D2C1A1
:10731000833731F487E86BDF85E969DF8EE1CAC125
:107320008536B9F4E0E0F0E093E085E09093570013
:10733000E89507B600FCFDCF80935700E89507B6A7
:1073400000FCFDCFE058FF4FA0E7E030FA0771F7EF
:10735000A2CF823739F4E1E0F0E089E08093570072
:107360008491A8C1863439F4E0E0F0E089E08093AC
:10737000570084919FC18E3439F4E3E0F0E089E056
:1073800080935700849196C1813539F4E2E0F0E0B2
:1073900089E08093570084918DC1823631F489E56C
:1073A00026DF80E024DF80E885C1823419F087364B
:1073B00009F0E5C01092C1011092C00100DF082F52
:1073C000FEDEF82EFCDE682E8554823008F071C196
:1073D000902F80E0CF2DD0E0C82BD92B10926F00DA
:1073E000173609F04BC081E180935700E895DD2402
:1073F000CC24C3943FC0E090C201F090C30100913F
:10740000C4011091C501B6E46B16D9F4ED2DF0E07E
:10741000EE29FF29E4918E2FEADEDD2081F082E063
:1074200090E0A0E0B0E0E80EF91E0A1F1B1FE092FA
:10743000C201F092C3010093C4011093C501DC2482
:1074400018C0D801C701B695A795979587954DD5D2
:10745000CEDE82E090E0A0E0B0E0E80EF91E0A1F68
:107460001B1FE092C201F092C3010093C40110936C
:10747000C5012197209709F0BECF7DC08090C20141
:107480009090C301A090C401B090C50196E4691624
:1074900009F05DC083E0F40180935700E89507B6DA
:1074A00000FCFDCF54C0F6E46F1661F5772031F192
:1074B000E090C201F090C3010091C4011091C50198
:1074C0007EDED82ECC24852D90E08C299D29F701D5
:1074D0000C0140925700E895112482E090E0A0E072
:1074E000B0E0E80EF91E0A1F1B1FE092C201F092E5
:1074F000C3010093C4011093C50102C060DE582E81
:10750000742423C0E090C201F090C3010091C40133
:107510001091C50116950795F794E79450DE682FF2
:10752000C701EBD48091C2019091C301A091C40125
:10753000B091C5010296A11DB11D8093C201909327
:10754000C301A093C401B093C501219704C0552481
:10755000772444244394209709F0A5CF96E4691634
:1075600041F485E0F40180935700E89507B600FCEC
:10757000FDCF8DE03CDE82E080936F009CC08334C1
:1075800071F40091C2011091C30119DE90E021E075
:10759000F8010C0120935700E89511247CCE833626
:1075A00019F5E090C201F090C3010091C40110915F
:1075B000C50105DEF701E16090E021E00C012093B8
:1075C0005700E895112482E090E0A0E0B0E0E80EDA
:1075D000F91E0A1F1B1FE092C201F092C301009323
:1075E000C4011093C50157CE8D3661F4E091C201FC
:1075F000F091C30185E080935700E89507B600FC41
:10760000FDCF49CE823551F4E091C201F091C30122
:1076100005911491812FEBDD802F4CC0843421F52E
:10762000E090C201F090C3010091C4011091C50126
:1076300016950795F794E794C2DD682FC7015DD4CE
:107640008091C2019091C301A091C401B091C50184
:107650000296A11DB11D8093C2019093C301A09316
:10766000C401B093C50117CE843609F5E090C2017C
:10767000F090C3010091C4011091C501D801C70168
:10768000B695A7959795879530D4B1DD82E090E0C7
:10769000A0E0B0E0E80EF91E0A1F1B1FE092C20135
:1076A000F092C3010093C4011093C50104C08B3153
:1076B00011F08FE39CDD83E08093E9009091E80076
:1076C0008091E8008E778093E80095FF04C010C099
:1076D0008EB38823C9F08091E80080FFF9CF8091B4
:1076E000E8008E778093E80003C08EB3882361F0B2
:1076F0008091E80080FFF9CF84E08093E9008091D9
:10770000E8008B778093E800DF91CF911F910F9174
:10771000FF90EF90DF90CF90BF90AF909F908F90B1
:107720007F906F905F904F9008959091CA01892F3C
:107730008F77813249F58091CB018032A1F081327F
:1077400019F5913A09F58091E800877F8093E80068
:107750008DE091E067E070E0FFD18091E8008B77E9
:107760008093E8000895913279F48091E800877F52
:107770008093E8008DE091E067E070E051D2809165
:10778000E8008E778093E800089582E061EC42E0A3
:10779000ABD083E061E842E1A7D084E060E842E159
:1077A000A3C084B7877F84BF88E10FB6F894809325
:1077B0006000109260000FBE20E880E090E00FB6FD
:1077C000F89420936100809361000FBE81E085BF33
:1077D00092E095BF6E9A209A559AE1E6F0E02083F8
:1077E000108276985D982898109289008DE7809392
:1077F000880090936F0083E080938100E6C0409101
:10780000000850910108109201081092000824B756
:1078100014BE88E10FB6F894809360001092600067
:107820000FBEE0E0F0E0859194918F5F9F4F71F083
:1078300020FD0BC021FD0AC0283041F480910901D0
:1078400090910A014817590709F04CDCAADF789497
:107850001092C1011092C0010CC0E8DC34D38091B9
:10786000C0019091C1018151974210F01092140112
:107870004BDC80911401882381F78091E0008160C6
:107880008093E0002FDC80E090E00895FA019230D0
:1078900049F0933061F09130F9F485E191E022E113
:1078A00030E01EC087E291E02EE330E019C088236B
:1078B00029F485E691E024E030E012C0813029F41B
:1078C00089E691E022E230E00BC0823029F489E8B9
:1078D00091E028E130E004C080E090E020E030E07A
:1078E00091838083C90108958093E9008091EB0022
:1078F00081608093EB001092ED006093EC00409368
:10790000ED008091EE00881F8827881F08958091E0
:10791000CA0188238CF403C08EB38823B1F0809110
:10792000E80082FFF9CF8091E8008B778093E80030
:1079300008958EB3882349F08091E80080FFF9CF45
:107940008091E8008E778093E8000895EF92FF928F
:107950000F931F9345D04CD008ED10E0F8018081C3
:107960008F77808380818068808380818F7D808312
:1079700019BC1EBA1092C80180EEE82EF12CF70156
:1079800080818B7F8083F80180818160808380E0AB
:1079900060E042E0A9DFE1EEF0E080818E7F80834D
:1079A000E2EEF0E080818160808380818860808366
:1079B000F70180818E7F8083F801808180618083E0
:1079C0001F910F91FF90EF900895E7EDF0E0808117
:1079D000816080838AE482BF81E08093C901B6CF51
:1079E000E8EDF0E080818E7F80831092E2000895C0
:1079F0001092DA001092E10008951F920F920FB6D4
:107A00000F9211242F933F934F935F936F937F9324
:107A10008F939F93AF93BF93EF93FF938091DA007F
:107A200080FF1AC08091D80080FF16C08091DA00D4
:107A30008E7F8093DA008091D90080FF0AC019BC44
:107A400082E089BD09B400FEFDCF81E08EBB3AD251
:107A500003C019BC1EBA36D28091E10080FF17C066
:107A60008091E20080FF13C08091E2008E7F8093BE
:107A7000E2008091E20080618093E2008091D80072
:107A800080628093D80019BC85E08EBB1BD28091A8
:107A9000E10084FF2BC08091E20084FF27C019BC65
:107AA00082E089BD09B400FEFDCF8091D8008F7DB2
:107AB0008093D8008091E1008F7E8093E1008091D7
:107AC000E2008F7E8093E2008091E20081608093EB
:107AD000E2008091C801882331F48091E30087FDA2
:107AE00002C081E001C084E08EBBECD18091E10056
:107AF00083FF21C08091E20083FF1DC08091E100DF
:107B0000877F8093E10082E08EBB1092C801809154
:107B1000E1008E7F8093E1008091E2008E7F809370
:107B2000E2008091E20080618093E20080E060E00A
:107B300042E0DADEC7D1FF91EF91BF91AF919F9103
:107B40008F917F916F915F914F913F912F910F9006
:107B50000FBE0F901F9018959C014091D00150913D
:107B6000D1014617570718F4F90190E044C0611598
:107B7000710511F0AB01F8CF8091E8008E7780930A
:107B8000E80040E050E0F0CF8EB3882309F444C011
:107B9000853009F443C08091E80083FF02C081E092
:107BA00008958091E80082FD31C08091E80080FF57
:107BB00022C08091F3009091F200782F60E0292F8D
:107BC00030E0262B372B07C081918093F100415084
:107BD00050402F5F3F4F4115510519F028303105B6
:107BE00098F390E02830310509F491E08091E800A5
:107BF0008E778093E8004115510531F6992321F6DF
:107C000005C08EB3882341F0853041F08091E800B3
:107C100082FFF7CF80E0089582E0089583E0089521
:107C20009C016115710529F48091E8008B778093A0
:107C3000E800F90126C08EB3882391F1853091F1D7
:107C40008091E80083FF02C081E008958091E80000
:107C500082FFF1CF06C08091F100819361507040A6
:107C600059F02091F3008091F200322F20E090E053
:107C7000822B932B892B79F78091E8008B77809367
:107C8000E80061157105B9F605C08EB3882341F08F
:107C9000853041F08091E80080FFF7CF80E00895C3
:107CA00082E0089583E008950F931F93DF93CF93AD
:107CB00000D0CDB7DEB7EAECF1E08091F10081931E
:107CC00081E0E23DF807C9F730DD8091E80083FFED
:107CD000E4C08091CA019091CB01953009F46DC048
:107CE000963040F4913081F1913070F0933009F08A
:107CF000D4C02AC0983009F4A3C0993009F4B2C0A6
:107D0000963009F0CAC07CC0803809F4C6C08238F9
:107D100009F0C3C08091CE0187708093E900809103
:107D2000EB001092E9002091E800277F2093E80003
:107D300090E025E0969587952A95E1F781708093EC
:107D4000F1001092F10087C0882319F0823009F009
:107D5000A4C08F71823009F0A0C08091CC0188232B
:107D600031F52091CE01277009F497C02093E900E6
:107D70008091EB0080FF1BC0933021F48091EB00D9
:107D8000806213C08091EB0080618093EB0081E002
:107D900090E002C0880F991F2A95E2F78093EA00CD
:107DA0001092EA008091EB0088608093EB001092C3
:107DB000E9008091E800877F51C0882309F06DC0F9
:107DC0001091CC011F770FB7F8948091E800877F5E
:107DD0008093E8009CDD8091E80080FFFCCF8091DB
:107DE000E3008078812B8093E30080688093E30038
:107DF000112311F482E001C083E08EBB0FBF4DC0A0
:107E00008058823008F049C08091CC019091CD011A
:107E10006091CE01AE014F5F5F4F38DDBC0100972E
:107E200009F43BC08091E800877F8093E800898156
:107E30009A8192DE8091E8008B778093E8002DC0D4
:107E4000803859F58091E800877F8093E800809121
:107E5000C8018093F1008091E8008E778093E8005C
:107E600056DD1BC08823C9F49091CC019230A8F450
:107E70008091E800877F8093E8009093C80147DDF8
:107E80008091C801882331F48091E30087FD02C00E
:107E900081E001C084E08EBB78DC8091E80083FF44
:107EA0000AC08091EB0080628093EB008091E80033
:107EB000877F8093E8000F900F90CF91DF911F9103
:107EC0000F91089508951F938EB3882361F0109148
:107ED000E9001092E9008091E80083FF01C0E4DE30
:107EE00017701093E9001F910895F999FECF92BD84
:107EF00081BDF89A992780B50895262FF999FECF6C
:107F00001FBA92BD81BD20BD0FB6F894FA9AF99AB6
:0A7F10000FBE01960895F894FFCF0C
:107F1A004341544552494E4100777700080000001A
:107F2A00000000080112011001020000089A23044F
:107F3A000001000201000109023E00020100803234
:107F4A0009040000010202010005240010010424B2
:107F5A0002040524060001070582030800FF09043C
:107F6A000100020A000000070504021000010705CB
:107F7A008302100001040309042203410064006122
:107F8A000066007200750069007400200046006CEB
:107F9A00006F007200610000001803410064006174
:107FAA000066007200750069007400200049006EC6
:107FBA000064007500730074007200690065007344
:0C7FCA000020004C004C004300000000B0
:040000030000700089
:00000001FF
