:1070000055C000006EC000006CC000006AC00000E7
:1070100068C0000066C0000064C0000062C00000DC
:1070200060C000005EC0000065C400005AC00000DF
:1070300058C0000056C0000054C0000052C00000FC
:1070400050C000004EC000004CC000004AC000000C
:1070500048C0000046C0000044C0000042C000001C
:1070600040C000003EC000003CC000003AC000002C
:1070700038C0000036C0000034C0000032C000003C
:1070800030C000002EC000002CC000002AC000004C
:1070900028C0000026C0000024C0000022C000005C
:1070A00020C000001EC000001CC0000011241FBE34
:1070B000CFEFDAE0DEBFCDBF11E0A0E0B1E0EEE25D
:1070C000FEE702C005900D92AC38B107D9F711E088
:1070D000ACE8B1E001C01D92AD39B107E1F7F2D2E1
:1070E000A4C68ECF84E08093E9000DC08091E800B3
:1070F0008B778093E80003C08EB3882351F0809192
:10710000E80082FFF9CF8091E80085FFEFCF809102
:10711000F1000895982F83E08093E9008091E800C2
:1071200085FD0DC08091E8008E778093E80003C054
:107130008EB3882331F08091E80080FFF9CF9093DF
:10714000F10008954F925F926F927F928F929F927B
:10715000AF92BF92CF92DF92EF92FF920F931F9365
:10716000CF93DF9384E08093E9008091E80082FF71
:1071700044C210928C01B6DF082F8C3409F43BC056
:107180008035C9F1843529F0853429F410920F0136
:1071900032C0A8DF30C0843721F484E4BBDF80E054
:1071A00002C2813611F489E5FEC1813431F59ADFDE
:1071B000F82EFF0CEE240027F7FC0095102FE0922C
:1071C0008F01F092900100939101109392018ADF58
:1071D00090E0880F991FAA2797FDA095BA2F8E29B6
:1071E0009F29A02BB12B80938F0190939001A093A6
:1071F0009101B09392018DE0D6C1803711F483E5FF
:10720000D2C1833549F4C0E0D1E0899183DF21E028
:10721000C730D207D1F7C8C1863521F481E37ADFC0
:1072200080E3C1C1833731F487E874DF85E972DF19
:107230008EE1B9C1823631F489E56CDF80E06ADF26
:1072400080E8B1C18536B9F4E0E0F0E093E085E094
:1072500090935700E89507B600FCFDCF8093570048
:10726000E89507B600FCFDCFEF57FF4F20E7EF355D
:10727000F20771F7C0CF8C3651F434DF809599E076
:10728000E1E0F0E0082E90935700E895B4CF823704
:1072900039F4E1E0F0E089E080935700849183C104
:1072A000863439F4E0E0F0E089E08093570084917F
:1072B0007AC18E3439F4E3E0F0E089E0809357003E
:1072C000849171C1813539F4E2E0F0E089E0809386
:1072D0005700849168C1833471F400918F0110913B
:1072E000900100DF90E021E0F8010C0120935700AD
:1072F000E895112480CF833679F400918F011091A5
:1073000090010160EFDE90E021E0F8010C01209394
:107310005700E895112414C18D3661F4E0918F0176
:10732000F091900185E080935700E89507B600FC46
:10733000FDCF61CF823419F0873609F0E3C0D2DE89
:10734000E82ED0DED82ECEDEA82E8554823008F06E
:1073500029C19E2D80E0CD2DD0E0C82BD92B07363A
:1073600009F052C081E180935700E89500E011E0F8
:1073700047C0F6E4AF1611F5E02FF0E080918F01E1
:1073800090919001E82BF92BE4918E2FC3DE00231E
:1073900099F080918F0190919001A0919101B0910D
:1073A00092010296A11DB11D80938F0190939001CF
:1073B000A0939101B0939201012721C080918F0188
:1073C00090919001A0919101B0919201B695A795ED
:1073D0009795879514D59EDE80918F0190919001AD
:1073E000A0919101B09192010296A11DB11D8093CF
:1073F0008F0190939001A0939101B09392012197F6
:10740000209709F0B6CFD0C060908F0170909001A6
:10741000809091019090920126E4A21609F05EC03E
:1074200083E0F30180935700E89507B600FCFDCF99
:1074300055C0F6E4AF1669F5BB2031F100918F011C
:10744000109190014FDED82ECC24852D90E08C2910
:107450009D29F8010C0140925700E8951124809174
:107460008F0190919001A0919101B09192010296AB
:10747000A11DB11D80938F0190939001A093910164
:10748000B0939201BB2428C02DDE582EBB24B394A8
:1074900023C0E0908F01F090900100919101109134
:1074A000920116950795F794E7941CDE682FC701A3
:1074B000AED480918F0190919001A0919101B091F3
:1074C00092010296A11DB11D80938F0190939001AE
:1074D000A0939101B0939201219704C05524BB243D
:1074E00044244394209709F0A4CFF6E4AF1609F0A2
:1074F00082CE85E0F30180935700E89507B600FC43
:10750000FDCF79CE823551F4E0918F01F091900159
:1075100005911491812FFEDD802F45C08434E1F464
:10752000E0908F01F09090010091910110919201F3
:1075300016950795F794E794D5DD682FC70167D4B2
:1075400080918F0190919001A0919101B091920151
:107550000296A11DB11D47CE843611F580918F0191
:1075600090919001A0919101B0919201B695A7954B
:107570009795879544D4CEDD80918F0190919001AD
:10758000A0919101B09192010296A11DB11D80932D
:107590008F0190939001A0939101B093920104C048
:1075A0008B3111F08FE3B6DD83E08093E900909199
:1075B000E8008091E8008E778093E80095FF04C092
:1075C00010C08EB38823C9F08091E80080FFF9CF06
:1075D0008091E8008E778093E80003C08EB3882303
:1075E00061F08091E80080FFF9CF84E08093E900AA
:1075F0008091E8008B778093E800DF91CF911F9115
:107600000F91FF90EF90DF90CF90BF90AF909F9041
:107610008F907F906F905F904F900895809196012A
:107620008032B1F0813239F580919501813A19F5B6
:107630008091E800877F8093E80088E091E067E030
:1076400070E023D38091E8008B778093E800089561
:1076500080919501813279F48091E800877F809351
:10766000E80088E091E067E070E073D38091E80083
:107670008E778093E800089582E061EC42E0ADD01F
:1076800083E061E842E1A9D084E060E842E1A5C07E
:1076900084B7877F84BF88E10FB6F8948093600039
:1076A000109260000FBE80E090E020E80FB6F894E2
:1076B00020936100809361000FBE81E085BF82E06E
:1076C00085BF02C1FF920F931F93CF93DF9324B71F
:1076D00014BE809160008861809360001092600009
:1076E00010928C0130E0F901E270F07021FD0AC0C7
:1076F000859194918F5F9F4F29F0E0918D01F091DA
:107700008E010995C5DF6E9A769A7894FF2410E071
:1077100001E0E0E0F0E0C591D49121C013DD5DD33C
:10772000F39411F4100F769AF11609F476981F3F2E
:1077300011F40FEF0AC0112341F4013031F08091B0
:107740008C018F5F80938C0101E080918C018530EA
:1077500030F08FEFCF3FD80711F010920F018091DA
:107760000F018823D9F68091E00081608093E000CA
:107770002CE088E190E00FB6F894A8958093600023
:107780000FBE20936000FFCFFA01923071F093306A
:1077900089F0913029F480E191E022E130E019C0D4
:1077A00080E090E020E030E014C082E291E02EE33F
:1077B00030E00FC0882339F480916001282F30E039
:1077C00080E691E006C080916401282F30E084E6D5
:1077D00091E091838083C90108958093E9008091AD
:1077E000EB0081608093EB001092ED006093EC0061
:1077F0004093ED008091EE00881F8827881F089530
:107800008091950188238CF403C08EB38823B1F056
:107810008091E80082FFF9CF8091E8008B77809318
:10782000E80008958EB3882349F08091E80080FF36
:10783000F9CF8091E8008E778093E80008954DD0CD
:1078400054D08091D800982F9F779093D80080686B
:107850008093D8008AE482BF80E189BD89B58260C7
:1078600089BD09B400FEFDCF8091D8008F7D809343
:10787000D8001EBA109293018091E0008B7F809314
:10788000E0008091D80081608093D80080E060E0C3
:1078900042E0A3DF8091E1008E7F8093E100809140
:1078A000E20081608093E2008091E2008860809332
:1078B000E2008091E0008E7F8093E0008091D8000C
:1078C00080618093D8000895E7EDF0E080818160C9
:1078D000808381E080939401B2CFE8EDF0E0808175
:1078E0008E7F80831092E20008951092DA00109249
:1078F000E10008951F920F920FB60F9211242F935B
:107900003F934F935F936F937F938F939F93AF9327
:10791000BF93EF93FF938091DA0080FF13C08091B3
:10792000D80080FF0FC08091DA008E7F8093DA004C
:107930008091D90080FF04C081E08EBBA5D102C038
:107940001EBAA2D18091E10080FF1CC08091E200AC
:1079500080FF18C08091E1008E7F8093E1008091CC
:10796000E2008E7F8093E2008091E200806180934C
:10797000E2008091D80080628093D80019BC85E035
:107980008EBB82D18091E10084FF2DC08091E20006
:1079900084FF29C080E189BD89B5826089BD09B4B1
:1079A00000FEFDCF8091D8008F7D8093D80080911C
:1079B000E1008F7E8093E1008091E2008F7E8093D2
:1079C000E2008091E20081608093E2008091930167
:1079D000882331F48091E30087FD02C081E001C07B
:1079E00084E08EBB51D18091E10083FF21C0809162
:1079F000E20083FF1DC08091E100877F8093E1005A
:107A000082E08EBB109293018091E1008E7F809383
:107A1000E1008091E2008E7F8093E2008091E2009D
:107A200080618093E20080E060E042E0D6DE2CD10D
:107A30008091E10082FF0AC08091E20082FF06C0CF
:107A40008091E1008B7F8093E1001ED1FF91EF9147
:107A5000BF91AF919F918F917F916F915F914F9166
:107A60003F912F910F900FBE0F901F9018950F937D
:107A70001F93DF93CF9300D0CDB7DEB7E5E9F1E0F8
:107A80008091F100819381E0ED39F807C9F7809189
:107A9000950190919601953009F46DC0963040F4AF
:107AA000913081F1913070F0933009F0D7C02AC045
:107AB000983009F4A5C0993009F4B4C0963009F0A3
:107AC000CDC07EC0803809F4CAC0823809F0C6C073
:107AD0008091990187708093E9008091EB0010926A
:107AE000E9002091E800277F2093E80090E025E05E
:107AF000969587952A95E1F781708093F100109211
:107B0000F10089C0882319F0823009F0A7C08F7175
:107B1000823009F0A4C080919701882331F520912B
:107B20009901277009F49BC02093E9008091EB0034
:107B300080FF1BC0933021F48091EB00806213C062
:107B40008091EB0080618093EB0081E090E002C0C7
:107B5000880F991F2A95E2F78093EA001092EA00B5
:107B60008091EB0088608093EB001092E900809197
:107B7000E800877F53C0882309F070C010919701F7
:107B80001F770FB7F8948091E800877F8093E80013
:107B900037DE8091E80080FFFCCF112311F482E0F2
:107BA00001C083E08EBB8091E3008078182B109396
:107BB000E3008091E30080688093E3000FBF4FC033
:107BC0008058823008F04AC08091970190919801C6
:107BD00060919901AE014F5F5F4FD6DDBC01009708
:107BE00009F43DC08091E800877F8093E800898197
:107BF0009A814BD08091E8008B778093E8002FC06A
:107C0000803861F58091E800877F8093E80080915B
:107C100093018093F1008091E8008E778093E800D3
:107C2000EFDD1DC08823D1F4909197019230B8F414
:107C30008091E800877F8093E80090939301E0DDD6
:107C400080919301882331F48091E30087FD02C085
:107C500081E001C084E08EBB0FDD01C0DFDC8091DC
:107C6000E80083FF0AC08091EB0080628093EB0004
:107C70008091E800877F8093E8000F900F90CF916C
:107C8000DF911F910F91089508959C0140919B01F0
:107C900050919C014617570718F4F90190E044C031
:107CA0006115710511F0AB01F8CF8091E8008E7776
:107CB0008093E80040E050E0F0CF8EB3882309F4D1
:107CC00044C0853009F443C08091E80083FF02C0BE
:107CD00081E008958091E80082FD31C08091E80044
:107CE00080FF22C08091F3009091F200782F60E035
:107CF000292F30E0262B372B07C081918093F1008C
:107D0000415050402F5F3F4F4115510519F0283029
:107D1000310598F390E02830310509F491E0809125
:107D2000E8008E778093E8004115510531F69923DC
:107D300021F605C08EB3882341F0853041F0809153
:107D4000E80082FFF7CF80E0089582E0089583E0A5
:107D500008959C016115710529F48091E8008B77E5
:107D60008093E800F90126C08EB3882391F1853015
:107D700091F18091E80083FF02C081E00895809135
:107D8000E80082FFF1CF06C08091F100819361503D
:107D9000704059F02091F3008091F200322F20E0E2
:107DA00090E0822B932B892B79F78091E8008B77D9
:107DB0008093E80061157105B9F605C08EB388237C
:107DC00041F0853041F08091E80080FFF7CF80E0FE
:107DD000089582E0089583E008951F938EB3882369
:107DE00061F01091E9001092E9008091E80083FFB2
:107DF00001C03DDE17701093E9001F910895F999B5
:107E0000FECF92BD81BDF89A992780B50895262F9F
:107E1000F999FECF1FBA92BD81BD20BD0FB6F8946F
:0E7E2000FA9AF99A0FBE01960895F894FFCFD2
:107E2E004C55464143444300000000000000080149
:107E3E0012011001020000089A2301000100000146
:107E4E00000109023E000201008032090400000117
:107E5E000202010005240010010424020405240678
:107E6E0000010705820308000209040100020A004E
:107E7E000000070504021000000705830210000031
:107E8E00040309042603410056005200200043005B
:107E9E0044004300200042006F006F0074006C002D
:0C7EAE006F0061006400650072000000BD
:040000030000700089
:00000001FF
